:020000040800F2
:1000000000C00020D940000829410008294100080B
:10001000294100082941000829410008000000008A
:10002000000000000000000000000000294100085E
:10003000294100080000000029410008DD3D0008BA
:1000400029410008294100082941000829410008E8
:1000500029410008294100082941000829410008D8
:1000600029410008294100082941000829410008C8
:1000700029410008294100082941000829410008B8
:1000800029410008294100082941000829410008A8
:10009000294100082941000829410008013E0008C3
:1000A0002941000829410008294100082941000888
:1000B000294100080000000000000000294100085C
:1000C0002941000829410008294100082941000868
:1000D00029410008413E0008213E0008294100084E
:1000E000294100082941000800000000000000002C
:1000F0000000000000000000000000000000000000
:10010000000000002941000800000000294100080B
:100110000000000000000000C90C0008893E000833
:100120002941000829410008294100082941000807
:10013000294100080000000000000000000000004D
:1001400029410008294100082941000829410008E7
:1001500029410008294100082941000829410008D7
:100160002941000829410008294100080000000039
:100170002941000829410008294100080000000029
:0C0180002941000829410008294100081D
:10018C0010B5054C237833B9044B13B10448AFF3C5
:10019C0000800123237010BD24000020000000000B
:1001AC007441000808B5034B1BB103490348AFF376
:1001BC00008008BD000000002800002074410008E9
:1001CC00034613F8012B002AFBD1181A013870478B
:1001DC0081F0004102E000BF83F0004330B54FEAEC
:1001EC0041044FEA430594EA050F08BF90EA020F59
:1001FC001FBF54EA000C55EA020C7FEA645C7FEAEC
:10020C00655C00F0E2804FEA5454D4EB5555B8BF0E
:10021C006D420CDD2C4480EA020281EA030382EA7F
:10022C00000083EA010180EA020281EA0303362D11
:10023C0088BF30BD11F0004F4FEA01314FF4801CE4
:10024C004CEA113102D0404261EB410113F0004FF6
:10025C004FEA03334CEA133302D0524263EB4303AD
:10026C0094EA050F00F0A780A4F10104D5F1200E4B
:10027C000DDB02FA0EFC22FA05F2801841F10001A6
:10028C0003FA0EF2801843FA05F359410EE0A5F17A
:10029C0020050EF1200E012A03FA0EFC28BF4CF0AB
:1002AC00020C43FA05F3C01851EBE37101F0004561
:1002BC0007D54FF0000EDCF1000C7EEB00006EEB6E
:1002CC000101B1F5801F1BD3B1F5001F0CD34908F8
:1002DC005FEA30004FEA3C0C04F101044FEA44524F
:1002EC0012F5800F80F09A80BCF1004F08BF5FEAD6
:1002FC00500C50F1000041EB045141EA050130BDB6
:10030C005FEA4C0C404141EB010111F4801FA4F158
:10031C000104E9D191F0000F04BF01460020B1FAAD
:10032C0081F308BF2033A3F10B03B3F120020CDAE5
:10033C000C3208DD02F1140CC2F10C0201FA0CF0C3
:10034C0021FA02F10CE002F11402D8BFC2F1200C28
:10035C0001FA02F120FA0CFCDCBF41EA0C019040DE
:10036C00E41AA2BF01EB0451294330BD6FEA040427
:10037C001F3C1CDA0C340EDC04F11404C4F1200212
:10038C0020FA04F001FA02F340EA030021FA04F324
:10039C0045EA030130BDC4F10C04C4F1200220FA7B
:1003AC0002F001FA04F340EA0300294630BD21FAB9
:1003BC0004F0294630BD94F0000F83F4801306BF7F
:1003CC0081F480110134013D4EE77FEA645C18BF73
:1003DC007FEA655C29D094EA050F08BF90EA020F0A
:1003EC0005D054EA000C04BF1946104630BD91EA02
:1003FC00030F1EBF0021002030BD5FEA545C05D105
:10040C004000494128BF41F0004130BD14F5800443
:10041C003CBF01F5801130BD01F0004545F0FE41B7
:10042C0041F470014FF0000030BD7FEA645C1ABFEC
:10043C00194610467FEA655C1CBF0B46024650EA23
:10044C00013406BF52EA033591EA030F41F400214F
:10045C0030BD00BF90F0000F04BF0021704730B5D5
:10046C004FF4806404F132044FF000054FF00001AA
:10047C0050E700BF90F0000F04BF0021704730B56B
:10048C004FF4806404F1320410F0004548BF404240
:10049C004FF000013EE700BF42004FEAE2014FEA95
:1004AC0031014FEA02701FBF12F07F4393F07F4F70
:1004BC0081F06051704792F0000F14BF93F07F4FA2
:1004CC00704730B54FF4607401F0004521F00041E5
:1004DC0020E700BF50EA010208BF704730B54FF06B
:1004EC0000050AE050EA010208BF704730B511F070
:1004FC00004502D5404261EB41014FF4806404F1A8
:10050C0032045FEA915C3FF4DCAE4FF003025FEA29
:10051C00DC0C18BF03325FEADC0C18BF033202EBB1
:10052C00DC02C2F1200300FA03FC20FA02F001FA0B
:10053C0003FE40EA0E0021FA02F11444C1E600BFAA
:10054C0070B54FF0FF0C4CF4E06C1CEA11541DBF5D
:10055C001CEA135594EA0C0F95EA0C0F00F0DEF828
:10056C002C4481EA030621EA4C5123EA4C5350EA0D
:10057C00013518BF52EA033541F4801143F480135E
:10058C0038D0A0FB02CE4FF00005E1FB02E506F0EF
:10059C000042E0FB03E54FF00006E1FB03569CF044
:1005AC00000F18BF4EF0010EA4F1FF04B6F5007F4A
:1005BC0064F5407404D25FEA4E0E6D4146EB0606BC
:1005CC0042EAC62141EA55514FEAC52040EA5E5045
:1005DC004FEACE2EB4F1FD0C88BFBCF5E06F1ED8EF
:1005EC00BEF1004F08BF5FEA500E50F1000041EB26
:1005FC00045170BD06F0004646EA010140EA0200D3
:10060C0081EA0301B4EB5C04C2BFD4EB0C0541EAF4
:10061C00045170BD41F480114FF0000E013C00F309
:10062C00AB8014F1360FDEBF002001F0004170BD2D
:10063C00C4F10004203C35DA0C341BDC04F1140446
:10064C00C4F1200500FA05F320FA04F001FA05F2D2
:10065C0040EA020001F0004221F0004110EBD3709F
:10066C0021FA04F642EB06015EEA430E08BF20EACB
:10067C00D37070BDC4F10C04C4F1200500FA04F36E
:10068C0020FA05F001FA04F240EA020001F0004100
:10069C0010EBD37041F100015EEA430E08BF20EA73
:1006AC00D37070BDC4F1200500FA05F24EEA020EBB
:1006BC0020FA04F301FA05F243EA020321FA04F0EA
:1006CC0001F0004121FA04F220EA020000EBD370A1
:1006DC005EEA430E08BF20EAD37070BD94F0000FA1
:1006EC000FD101F00046400041EB010111F4801FD5
:1006FC0008BF013CF7D041EA060195F0000F18BF86
:10070C00704703F00046520043EB030313F4801FC1
:10071C0008BF013DF7D043EA0603704794EA0C0F7B
:10072C000CEA135518BF95EA0C0F0CD050EA410691
:10073C0018BF52EA4306D1D181EA030101F000410E
:10074C004FF0000070BD50EA410606BF1046194636
:10075C0052EA430619D094EA0C0F02D150EA013642
:10076C0013D195EA0C0F05D152EA03361CBF104683
:10077C0019460AD181EA030101F0004141F0FE4122
:10078C0041F470014FF0000070BD41F0FE4141F4A6
:10079C00780170BD70B54FF0FF0C4CF4E06C1CEAA6
:1007AC0011541DBF1CEA135594EA0C0F95EA0C0F5B
:1007BC0000F0A7F8A4EB050481EA030E52EA033516
:1007CC004FEA013100F088804FEA03334FF0805537
:1007DC0045EA131343EA12634FEA022245EA111564
:1007EC0045EA10654FEA00260EF000419D4208BF15
:1007FC00964244F1FD0404F5407402D25B084FEAC2
:10080C003202B61A65EB03055B084FEA32024FF46D
:10081C0080104FF4002CB6EB020E75EB030E22BFCA
:10082C00B61A754640EA0C005B084FEA3202B6EB8A
:10083C00020E75EB030E22BFB61A754640EA5C0039
:10084C005B084FEA3202B6EB020E75EB030E22BFC9
:10085C00B61A754640EA9C005B084FEA3202B6EBCA
:10086C00020E75EB030E22BFB61A754640EADC0089
:10087C0055EA060E18D04FEA051545EA16754FEAEB
:10088C0006164FEAC30343EA52734FEAC2025FEA09
:10089C001C1CC0D111F4801F0BD141EA00014FF098
:1008AC0000004FF0004CB6E711F4801F04BF014369
:1008BC000020B4F1FD0C88BFBCF5E06F3FF6AFAE85
:1008CC00B5EB030C04BFB6EB020C5FEA500C50F115
:1008DC00000041EB045170BD0EF0004E4EEA113198
:1008EC0014EB5C04C2BFD4EB0C0541EA045170BD9F
:1008FC0041F480114FF0000E013C90E645EA060EE3
:10090C008DE60CEA135594EA0C0F08BF95EA0C0F10
:10091C003FF43BAF94EA0C0F0AD150EA01347FF458
:10092C0034AF95EA0C0F7FF425AF104619462CE72F
:10093C0095EA0C0F06D152EA03353FF4FDAE104692
:10094C00194622E750EA410618BF52EA43067FF4E3
:10095C00C5AE50EA41047FF40DAF52EA43057FF473
:10096C00EBAE12E74FEA4102B2F1E04324BFB3F51C
:10097C00001CDCF1FE5C0DD901F0004C4FEAC0020A
:10098C004CEA5070B2F1004F40EB830008BF20F0EE
:10099C000100704711F0804F21D113F13872BCBFA8
:1009AC0001F00040704741F480114FEA5252C2F1FD
:1009BC001802C2F1200C10FA0CF320FA02F018BF46
:1009CC0040F001004FEAC1234FEAD32303FA0CFC99
:1009DC0040EA0C0023FA02F34FEA4303CCE77FEA28
:1009EC00625307D150EA01331EBF4FF0FE4040F472
:1009FC004000704701F0004040F0FE4040F4000021
:100A0C00704700BF80B400AF044B1B680133034A2E
:100A1C00136000BFBD465DF8047B704740000020AA
:100A2C0080B582B000AF78607B681B681B6903F0EF
:100A3C000203022B22D17B681B68DB6803F00203E4
:100A4C00022B1BD17B681B686FF002021A617B685A
:100A5C0001221A777B681B689B6903F00303002B48
:100A6C0003D0786800F0EEF805E0786800F0E0F864
:100A7C00786800F0F1F87B6800221A777B681B68B5
:100A8C001B6903F00403042B22D17B681B68DB6811
:100A9C0003F00403042B1BD17B681B686FF004026A
:100AAC001A617B6802221A777B681B689B6903F4C6
:100ABC004073002B03D0786800F0C4F805E0786828
:100ACC0000F0B6F8786800F0C7F87B6800221A7757
:100ADC007B681B681B6903F00803082B22D17B6819
:100AEC001B68DB6803F00803082B1BD17B681B68B1
:100AFC006FF008021A617B6804221A777B681B6806
:100B0C00DB6903F00303002B03D0786800F09AF83C
:100B1C0005E0786800F08CF8786800F09DF87B6848
:100B2C0000221A777B681B681B6903F01003102BDB
:100B3C0022D17B681B68DB6803F01003102B1BD1E0
:100B4C007B681B686FF010021A617B6808221A77A9
:100B5C007B681B68DB6903F44073002B03D0786857
:100B6C0000F070F805E0786800F062F8786800F042
:100B7C0073F87B6800221A777B681B681B6903F08B
:100B8C000103012B0ED17B681B68DB6803F00103AA
:100B9C00012B07D17B681B686FF001021A61786822
:100BAC0000F082F87B681B681B6903F08003802BC4
:100BBC000ED17B681B68DB6803F08003802B07D1A8
:100BCC007B681B686FF080021A61786800F062F82D
:100BDC007B681B681B6903F04003402B0ED17B68BC
:100BEC001B68DB6803F04003402B07D17B681B6854
:100BFC006FF040021A61786800F038F87B681B6867
:100C0C001B6903F02003202B0ED17B681B68DB686B
:100C1C0003F02003202B07D17B681B686FF02002A8
:100C2C001A61786800F02CF800BF0837BD4680BD0B
:100C3C0080B483B000AF786000BF0C37BD465DF860
:100C4C00047B704780B483B000AF786000BF0C3772
:100C5C00BD465DF8047B704780B483B000AF78600C
:100C6C0000BF0C37BD465DF8047B704780B483B081
:100C7C0000AF786000BF0C37BD465DF8047B704751
:100C8C0080B483B000AF786000BF0C37BD465DF810
:100C9C00047B704780B483B000AF786000BF0C3722
:100CAC00BD465DF8047B704780B582B000AF7860BC
:100CBC00FFF7A8FE00BF0837BD4680BD80B500AF6A
:100CCC000248FFF7ADFE00BF80BD00BF440000200E
:100CDC0080B483B000AF78600549054B1A687B6817
:100CEC0013430B6000BF0C37BD465DF8047B7047A7
:100CFC000004014080B483B000AF78600549054B17
:100D0C001A6A7B6813430B6200BF0C37BD465DF853
:100D1C00047B70470004014080B483B000AF78605E
:100D2C000649064B1A687B68DB4313400B6000BF17
:100D3C000C37BD465DF8047B704700BF00040140D2
:100D4C0080B483B000AF78600649064B1A6A7B68A2
:100D5C00DB4313400B6200BF0C37BD465DF8047BD0
:100D6C00704700BF0004014080B483B000AF7860CE
:100D7C000549054B5A687B6813434B6000BF0C3721
:100D8C00BD465DF8047B70470004014080B483B01D
:100D9C0000AF78600549054B5A6A7B6813434B6278
:100DAC0000BF0C37BD465DF8047B70470004014062
:100DBC0080B483B000AF78600649064B5A687B68F4
:100DCC00DB4313404B6000BF0C37BD465DF8047B22
:100DDC00704700BF0004014080B483B000AF78605E
:100DEC000649064B5A6A7B68DB4313404B6200BFD3
:100DFC000C37BD465DF8047B704700BF0004014012
:100E0C0080B483B000AF78600549054B9A687B6865
:100E1C0013438B6000BF0C37BD465DF8047B7047F5
:100E2C000004014080B483B000AF78600549054BE5
:100E3C009A6A7B6813438B6200BF0C37BD465DF822
:100E4C00047B70470004014080B483B000AF78602D
:100E5C000649064B9A687B68DB4313408B6000BFE6
:100E6C000C37BD465DF8047B704700BF00040140A1
:100E7C0080B483B000AF78600649064B9A6A7B68F1
:100E8C00DB4313408B6200BF0C37BD465DF8047B1F
:100E9C00704700BF0004014080B483B000AF78609D
:100EAC000549054BDA687B681343CB6000BF0C37F0
:100EBC00BD465DF8047B70470004014080B483B0EC
:100ECC0000AF78600549054BDA6A7B681343CB6247
:100EDC0000BF0C37BD465DF8047B70470004014031
:100EEC0080B483B000AF78600649064BDA687B6843
:100EFC00DB431340CB6000BF0C37BD465DF8047B71
:100F0C00704700BF0004014080B483B000AF78602C
:100F1C000649064BDA6A7B68DB431340CB6200BFA1
:100F2C000C37BD465DF8047B704700BF00040140E0
:100F3C0080B584B000AF78600123FB737B681B7AAB
:100F4C00002B00F0C1807B681B68002B5BD07B689A
:100F5C005B7A012B0ED0022B17D0002B20D17B6893
:100F6C001B681846FFF724FF7B681B681846FFF7C1
:100F7C00AFFE18E07B681B681846FFF7CDFE7B6858
:100F8C001B681846FFF7F0FE0DE07B681B681846DF
:100F9C00FFF79EFE7B681B681846FFF7E5FE02E034
:100FAC000023FB7300BF7B689B7A002B2BD07B68E4
:100FBC009B7A022B0ED0032B17D0012B20D17B68F0
:100FCC001B681846FFF78CFF7B681B681846FFF7F9
:100FDC0017FF18E07B681B681846FFF735FF7B6826
:100FEC001B681846FFF758FF0DE07B681B68184616
:100FFC00FFF706FF7B681B681846FFF74DFF02E002
:10100C000023FB7300BF7B685B68002B70D07B6890
:10101C005B7A012B0ED0022B17D0002B20D17B68D2
:10102C005B681846FFF7D8FE7B685B681846FFF7CD
:10103C0061FE18E07B685B681846FFF781FE7B68F1
:10104C005B681846FFF7A2FE0DE07B685B681846EC
:10105C00FFF750FE7B685B681846FFF797FE02E0CF
:10106C000023FB7300BF7B689B7A002B40D07B680E
:10107C009B7A022B0ED0032B17D0012B20D17B682F
:10108C005B681846FFF740FF7B685B681846FFF704
:10109C00C9FE2DE07B685B681846FFF7E9FE7B68AC
:1010AC005B681846FFF70AFF22E07B685B6818460E
:1010BC00FFF7B8FE7B685B681846FFF7FFFE17E08A
:1010CC000023FB7300BF13E07B681B681846FFF717
:1010DC0023FE7B681B681846FFF76AFE7B685B681B
:1010EC001846FFF72DFE7B685B681846FFF774FE09
:1010FC00FB7B18461037BD4680BD80B483B000AF73
:10110C0078607B681B6843F001027B681A6000BF43
:10111C000C37BD465DF8047B704780B483B000AFDC
:10112C0078607B681B6823F001027B681A6000BF43
:10113C000C37BD465DF8047B704780B485B000AFBA
:10114C00F860B9607A60FB681B6823F4F8527B681E
:10115C001902BB680B431A43FB681A6000BF1437B3
:10116C00BD465DF8047B704780B485B000AFF86075
:10117C00B9607A60FB689B6823F4FF6323F0070374
:10118C00B9687A680A431A43FB689A6000BF14373F
:10119C00BD465DF8047B704780B483B000AF7860C7
:1011AC007B689B6843F400427B689A6000BF0C37F5
:1011BC00BD465DF8047B704780B483B000AF7860A7
:1011CC007B689B6823F400427B689A6000BF0C37F5
:1011DC00BD465DF8047B704780B483B000AF786087
:1011EC0039607B683A681A6100BF0C37BD465DF800
:1011FC00047B704780B483B000AF786039607B6843
:10120C001B6823F440123B681A437B681A6000BFCA
:10121C000C37BD465DF8047B704780B483B000AFDB
:10122C00786039607B685B6823F400423B681A4342
:10123C007B685A6000BF0C37BD465DF8047B704775
:10124C0080B582B000AF786039607868FFF765FFD1
:10125C003B6899683B68DB681A467868FFF76DFF56
:10126C003B685B6819467868FFF7B6FF7868FFF74C
:10127C0044FF7868FFF7A0FF3B6819693B689B69DE
:10128C001A467868FFF770FF3B681B69002B02D089
:10129C007868FFF781FF3B681B6819467868FFF791
:1012AC00A9FF3B685B6919467868FFF7B6FF012315
:1012BC0018460837BD4680BD80B400AF074B1B688D
:1012CC0003F48063B3F5806F0CBF01230023DBB202
:1012DC001846BD465DF8047B704700BF0010024005
:1012EC0080B400AF074BD3F8903003F00203022B0D
:1012FC000CBF01230023DBB21846BD465DF8047B0E
:10130C00704700BF0010024080B400AF064B1B6852
:10131C0003F00803082B0CBF01230023DBB2184693
:10132C00BD465DF8047B70470010024080B400AFEE
:10133C00044B1B6803F0F0031846BD465DF8047BB4
:10134C00704700BF0010024080B400AF044BD3F8CC
:10135C00943003F470631846BD465DF8047B704707
:10136C000010024080B400AF044B9B6803F00C03E8
:10137C001846BD465DF8047B704700BF0010024064
:10138C0080B400AF044B9B6803F0F0031846BD46D5
:10139C005DF8047B704700BF0010024080B400AFC2
:1013AC00044B9B6803F4E0631846BD465DF8047B70
:1013BC00704700BF0010024080B400AF044B9B6824
:1013CC0003F460531846BD465DF8047B704700BFBC
:1013DC000010024080B483B000AF7860064BD3F8A5
:1013EC0088207B681A407B681B04134318460C3713
:1013FC00BD465DF8047B70470010024080B400AF1E
:10140C00044BDB681B0A03F07F031846BD465DF8EE
:10141C00047B70470010024080B400AF044BDB68C3
:10142C0003F0C0631846BD465DF8047B704700BFEF
:10143C000010024080B400AF044BDB6803F00303E0
:10144C001846BD465DF8047B704700BF0010024093
:10145C0080B400AF044BDB6803F070031846BD4644
:10146C005DF8047B704700BF0010024080B584B06B
:10147C0000AF78600023FB607B68032B2ED178686B
:10148C00FFF7A8FF03464F4A934209D0B3F1031F5D
:10149C000ED04D4A934214D100F0A2F8F8608BE0C4
:1014AC00FFF70AFF0346002B7BD0484BFB6078E02C
:1014BC00FFF716FF0346002B75D04FF40043FB607B
:1014CC0071E000F08DF80346184600F01BF9034656
:1014DC00184600F041F9F86000BF6DE07B680C2BFA
:1014EC002ED17868FFF776FF0346394A934209D02C
:1014FC00B3F10C1F0ED0374A934214D100F070F8A0
:10150C00F86059E0FFF7D8FE0346002B4DD02F4B67
:10151C00FB604AE0FFF7E4FE0346002B47D04FF494
:10152C000043FB6043E000F05BF80346184600F014
:10153C00E9F80346184600F0FBF8F86000BF3BE002
:10154C007B68302B38D17868FFF744FF0346224A7A
:10155C00934209D0B3F1301F0ED0204A934214D1DC
:10156C0000F03EF8F86027E0FFF7A6FE0346002BDC
:10157C001FD0164BFB601CE0FFF7B2FE0346002B9E
:10158C0019D04FF40043FB6015E000F029F8034636
:10159C00184600F0B7F80346184600F0C9F8F86092
:1015AC000AE000BF08E000BF06E000BF04E000BF97
:1015BC0002E000BF00E000BFFB6818461037BD46D4
:1015CC0080BD00BF02000300010003000024F400F2
:1015DC0008000C0004000C0020003000100030004B
:1015EC0080B582B000AF00237B60FFF7BBFE0346E3
:1015FC000C2B51D801A252F823F000BF3D16000865
:10160C00A5160008A5160008A516000891160008D6
:10161C00A5160008A5160008A516000897160008C0
:10162C00A5160008A5160008A51600089D160008AA
:10163C00FFF76AFE0346002B11D1FFF765FE034648
:10164C00002B04D0FFF772FE03461B0A03E0FFF7E2
:10165C007BFE03461B0A284A52F8233010E0FFF7A2
:10166C0053FE0346002B04D0FFF760FE03461B0914
:10167C0003E0FFF769FE03461B091F4A52F82330AB
:10168C007B6033E01D4B7B6030E01D4B7B602DE0BD
:10169C0000F076F8786029E0FFF736FE0346002B61
:1016AC0011D1FFF731FE0346002B04D0FFF73EFEAD
:1016BC0003461B0A03E0FFF747FE03461B0A0E4ACC
:1016CC0052F8233010E0FFF71FFE0346002B04D026
:1016DC00FFF72CFE03461B0903E0FFF735FE03461C
:1016EC001B09054A52F823307B6000BF7B68184603
:1016FC000837BD4680BD00BFAC4100080024F40093
:10170C0000127A0080B582B000AF7860FFF738FE27
:10171C0003461B0903F00F03044AD35C1A467B688B
:10172C00D34018460837BD4680BD00BF9441000821
:10173C0080B582B000AF7860FFF730FE03461B0A1D
:10174C00044AD35C1A467B68D34018460837BD461A
:10175C0080BD00BFA441000880B582B000AF7860A6
:10176C00FFF72AFE0346DB0A044AD35C1A467B6861
:10177C00D34018460837BD4680BD00BFA4410008C1
:10178C0090B583B000AF00237B6000233B60FFF774
:10179C0051FE38603B68022B2DD0032B2ED0012B31
:1017AC002FD1FFF7B1FD0346002B11D1FFF7ACFD94
:1017BC000346002B04D0FFF7B9FD03461B0A03E0D8
:1017CC00FFF7C2FD03461B0A2F4A52F8233010E0E4
:1017DC00FFF79AFD0346002B04D0FFF7A7FD034645
:1017EC001B0903E0FFF7B0FD03461B09264A52F81C
:1017FC0023307B602FE0254B7B602CE0244B7B60FF
:10180C0029E0FFF781FD0346002B11D1FFF77CFD8A
:10181C000346002B04D0FFF789FD03461B0A03E0A7
:10182C00FFF792FD03461B0A174A52F8233010E0CB
:10183C00FFF76AFD0346002B04D0FFF777FD034644
:10184C001B0903E0FFF780FD03461B090E4A52F803
:10185C0023307B6000BFFFF7FBFD03461B09013300
:10186C007A68B2FBF3F4FFF7C9FD034603FB04F4FB
:10187C00FFF7D2FD03465B0E01335B00B4FBF3F3C1
:10188C0018460C37BD4690BDAC4100080024F4004E
:10189C0000127A0080B483B000AF78607B681B685C
:1018AC0003F04003402B0CBF01230023DBB218468E
:1018BC000C37BD465DF8047B704780B483B000AF35
:1018CC00786039603B689BB21A467B681A6100BF2E
:1018DC000C37BD465DF8047B704780B584B000AF13
:1018EC00786039600023FB737868FFF7D3FF0346F9
:1018FC00002B3BD17B681B6823F47F4323F0BF0391
:10190C003A6811683A68526811433A68D2681143D0
:10191C003A68126911433A68526911433A689269FC
:10192C0011433A68D26911433A68126A0A431A435E
:10193C007B681A607B685B6823F4706323F0040394
:10194C003A6891683A685269120C0A431A437B68E8
:10195C005A603B681B6AB3F5005F05D13B685B6A54
:10196C0019467868FFF7A9FF0123FB73FB7B184628
:10197C001037BD4680BD80B483B000AF786039604D
:10198C007B683A689A6200BF0C37BD465DF8047BF1
:10199C00704780B483B000AF786039607B683A6878
:1019AC00DA6200BF0C37BD465DF8047B704780B42B
:1019BC0083B000AF786039607B683A681A6300BF07
:1019CC000C37BD465DF8047B704780B483B000AF24
:1019DC0078607B685B6943F001027B685A6100BFE9
:1019EC000C37BD465DF8047B704780B483B000AF04
:1019FC0078607B6800221A807B6800225A607B68C2
:101A0C004FF0FF329A607B680022DA607B6800221C
:101A1C001A7400BF0C37BD465DF8047B704700009C
:101A2C0080B584B000AF786039600023FB607B68C0
:101A3C001B68FB607B68274A934203D07B68B3F139
:101A4C00804F06D1FB6823F070023B685B68134340
:101A5C00FB607B681F4A93420BD07B68B3F1804FCD
:101A6C0007D07B681C4A934203D07B681B4A934285
:101A7C0006D1FB6823F440723B68DB681343FB60C0
:101A8C007B68FA681A603B689B6819467868FFF7B0
:101A9C0080FF3B681B8819467868FFF76CFF7B68F2
:101AAC000C4A934207D07B680B4A934203D07B6865
:101ABC000A4A934205D13B681B7C19467868FFF7AC
:101ACC0076FF7868FFF781FF012318461037BD4673
:101ADC0080BD00BF002C014000400140004401408B
:101AEC0080B483B000AF78607B681B6803F001039F
:101AFC00012B0CBF01230023DBB218460C37BD466B
:101B0C005DF8047B704780B483B000AF78603960B7
:101B1C007B685B6823F440523B681A437B685A60CD
:101B2C0000BF0C37BD465DF8047B704780B483B0B2
:101B3C0000AF786039607B689B6823F440723B6827
:101B4C001A437B689A6000BF0C37BD465DF8047B76
:101B5C007047B0B485B000AFF860B9607A603B6094
:101B6C00002500247B68B3F5004F14D1BB685A00E4
:101B7C003B685B081A443B68B2FBF3F39BB21D460F
:101B8C004FF6F0742C406B089BB203F007031C4318
:101B9C00FB68DC600AE03B685A08BB681A443B6887
:101BAC00B2FBF3F39BB21A46FB68DA6000BF143742
:101BBC00BD46B0BC7047000080B584B000AF786003
:101BCC0039600023FB730023BB607868FFF788FF44
:101BDC000346002B48D17B681A68264B13403A68A1
:101BEC0051683A68D26811433A68126911433A68ED
:101BFC0092690A431A437B681A603B689B681946D2
:101C0C007868FFF780FF3B685B6919467868FFF7D7
:101C1C008DFF7B68184A934204D10320FFF726FC02
:101C2C00B86010E07B68154A934204D10C20FFF792
:101C3C001DFCB86007E07B68114A934203D1302049
:101C4C00FFF714FCB860BB68002B0DD03B681B6819
:101C5C00002B09D00123FB733B689A693B681B6816
:101C6C00B9687868FFF775FFFB7B18461037BD46DF
:101C7C0080BD00BFF369FFEF003801400044004015
:101C8C000048004080B483B000AF0346FB710949A3
:101C9C0097F907305B09FA7902F01F02012000FA6C
:101CAC0002F241F8232000BF0C37BD465DF8047BDF
:101CBC00704700BF00E100E080B483B000AF034682
:101CCC003960FB7197F90730002B0BDA0D49FB7962
:101CDC0003F00F03043B3A68D2B21201D2B20B44A8
:101CEC001A7609E0084997F907303A68D2B212011E
:101CFC00D2B20B4483F8002300BF0C37BD465DF80D
:101D0C00047B704700ED00E000E100E080B582B09C
:101D1C0000AF78607B68013BB3F1807F01D3012376
:101D2C000FE00A4A7B68013B53600F214FF0FF30F4
:101D3C00FFF7C2FF054B00229A60044B07221A6082
:101D4C00002318460837BD4680BD00BF10E000E0F8
:101D5C0080B483B000AF786039607B689B6823F0F7
:101D6C00E0723B681A437B689A6000BF0C37BD4633
:101D7C005DF8047B704780B483B000AF7860396045
:101D8C007B68DB6823F018023B681A437B68DA60D7
:101D9C0000BF0C37BD465DF8047B704780B483B040
:101DAC0000AF786039607B68DB6823F020023B6809
:101DBC001A437B68DA6000BF0C37BD465DF8047BC4
:101DCC00704780B483B000AF786039607B68DB68A3
:101DDC0023F47C623B681A437B68DA6000BF0C37E3
:101DEC00BD465DF8047B704780B483B000AF78606B
:101DFC0039607B681B6B23F00F023B681A437B68CE
:101E0C001A6300BF0C37BD465DF8047B704790B475
:101E1C0086B000AFF860B9607A60FB683033194661
:101E2C00BB6803F440724FF440737B617B6993FA97
:101E3C00A3F33B613B69B3FA83F322FA03F39B00F0
:101E4C000B441C462268BB6803F01F031F2101FAD8
:101E5C0003F3DB431A407B689B0E03F01F01BB6846
:101E6C0003F01F0301FA03F31343236000BF183779
:101E7C00BD4690BC704780B483B000AF78603960C9
:101E8C007B68DB6823F400523B681A437B68DA609A
:101E9C0000BF0C37BD465DF8047B704780B483B03F
:101EAC0000AF786039607B68DB6823F003023B6825
:101EBC001A437B68DA6000BF0C37BD465DF8047BC3
:101ECC00704790B48AB000AFF860B9607A60FB6874
:101EDC0014331946BB6803F000724FF000737B613A
:101EEC007B6993FAA3F33B613B69B3FA83F322FA60
:101EFC0003F39B000B441C462268BB6803F0F8718B
:101F0C004FF0F873FB61FB6993FAA3F3BB61BB69F8
:101F1C00B3FA83F321FA03F3072101FA03F3DB434A
:101F2C001A40BB6803F0F8714FF0F8737B627B6A60
:101F3C0093FAA3F33B623B6AB3FA83F321FA03F3FC
:101F4C00796801FA03F31343236000BF2837BD46B9
:101F5C0090BC704780B485B000AFF860B9607A600F
:101F6C00FB68D3F8B020BB68C3F31203DB431A4001
:101F7C007B6803F0200308499940BB680B40C3F30E
:101F8C0012031A43FB68C3F8B02000BF1437BD46D8
:101F9C005DF8047B704700BFFFFF070080B582B07F
:101FAC0000AF7860396039687868FFF70AFF00BFC6
:101FBC000837BD4680BD80B483B000AF78607B68C5
:101FCC009B6823F0204323F03F037A68936000BFA3
:101FDC000C37BD465DF8047B704780B483B000AF0E
:101FEC0078607B689B6823F0004323F03F0343F049
:101FFC0001027B689A6000BF0C37BD465DF8047B1C
:10200C00704780B483B000AF786039607B689B68A0
:10201C0023F0404323F03F033A6802F0804213431D
:10202C0043F000427B689A6000BF0C37BD465DF8F8
:10203C00047B704780B483B000AF78607B681B680A
:10204C0003F00103012B0CBF01230023DBB2184664
:10205C000C37BD465DF8047B704780B483B000AF8D
:10206C0078607B6801221A6000BF0C37BD465DF8B2
:10207C00047B704780B483B000AF78607B681B68CA
:10208C0043F040027B681A6000BF0C37BD465DF818
:10209C00047B704780B483B000AF786039607B6894
:1020AC005B6823F480523B681A437B685A6000BF1C
:1020BC000C37BD465DF8047B704780B489B000AF27
:1020CC00F860B9607A60FB681A68BB687B617B69F1
:1020DC0093FAA3F33B613B69B3FA83F35B000321EF
:1020EC0001FA03F3DB431A40BB68FB61FB6993FA0B
:1020FC00A3F3BB61BB69B3FA83F35B00796801FAA4
:10210C0003F31A43FB681A6000BF2437BD465DF821
:10211C00047B704780B485B000AFF860B9607A601A
:10212C00FB685A68BB68DB431A40BB68796801FBE3
:10213C0003F31A43FB685A6000BF1437BD465DF8C1
:10214C00047B704780B489B000AFF860B9607A60E6
:10215C00FB689A68BB687B617B6993FAA3F33B616C
:10216C003B69B3FA83F35B00032101FA03F3DB430E
:10217C001A40BB68FB61FB6993FAA3F3BB61BB69B3
:10218C00B3FA83F35B00796801FA03F31A43FB6833
:10219C009A6000BF2437BD465DF8047B704780B45D
:1021AC0089B000AFF860B9607A60FB68DA68BB6828
:1021BC007B617B6993FAA3F33B613B69B3FA83F3CD
:1021CC005B00032101FA03F3DB431A40BB68FB619C
:1021DC00FB6993FAA3F3BB61BB69B3FA83F35B00AE
:1021EC00796801FA03F31A43FB68DA6000BF2437FD
:1021FC00BD465DF8047B704780B489B000AFF860D1
:10220C00B9607A60FB681A6ABB687B617B6993FA78
:10221C00A3F33B613B69B3FA83F39B000F2101FAF3
:10222C0003F3DB431A40BB68FB61FB6993FAA3F32E
:10223C00BB61BB69B3FA83F39B00796801FA03F3C2
:10224C001A43FB681A6200BF2437BD465DF8047B55
:10225C00704780B489B000AFF860B9607A60FB68F1
:10226C005A6ABB681B0A7B617B6993FAA3F33B61D7
:10227C003B69B3FA83F39B000F2101FA03F3DB43B1
:10228C001A40BB681B0AFB61FB6993FAA3F3BB61A1
:10229C00BB69B3FA83F39B00796801FA03F31A4321
:1022AC00FB685A6200BF2437BD465DF8047B70475B
:1022BC0080B483B000AF786039607B683A689A610B
:1022CC0000BF0C37BD465DF8047B704780B483B00B
:1022DC0000AF78607B681B6843F001027B681A6072
:1022EC0000BF0C37BD465DF8047B704780B483B0EB
:1022FC0000AF78607B685B6823F400627B685A608F
:10230C0000BF0C37BD465DF8047B704780B483B0CA
:10231C0000AF78607B689B6843F480527B689A605E
:10232C0000BF0C37BD465DF8047B704780B483B0AA
:10233C0000AF78607B681B6843F020027B681A60F2
:10234C0000BF0C37BD465DF8047B704780B485B088
:10235C0000AF78600849084BDA6C7B681343CB6498
:10236C00054BDA6C7B681340FB60FB6800BF1437CD
:10237C00BD465DF8047B70470010024080B485B008
:10238C0000AF78600849084B9A6D7B6813438B65E6
:10239C00054B9A6D7B681340FB60FB6800BF1437DC
:1023AC00BD465DF8047B70470010024080B485B0D8
:1023BC0000AF78600849084B1A6E7B6813430B66B4
:1023CC00054B1A6E7B681340FB60FB6800BF14372B
:1023DC00BD465DF8047B70470010024080B483B0AA
:1023EC0000AF78607B68042B06D1094A084B1B6848
:1023FC0043F00403136005E0054A054B1B6823F00A
:10240C000403136000BF0C37BD465DF8047B7047B6
:10241C0010E000E080B400AF054A054B1B6823F0C8
:10242C000203136000BFBD465DF8047B704700BF1C
:10243C0010E000E080B400AF054A054B1B6843F484
:10244C008023136000BFBD465DF8047B704700BF5E
:10245C000010024080B400AF054A054B1B6843F4E2
:10246C008033136000BFBD465DF8047B704700BF2E
:10247C000010024080B400AF074B1B6803F400331C
:10248C00B3F5003F0CBF01230023DBB21846BD4659
:10249C005DF8047B704700BF0010024080B483B02D
:1024AC0000AF78600649064B9B6823F003027B68FB
:1024BC0013438B6000BF0C37BD465DF8047B70473F
:1024CC000010024080B400AF044B9B6803F00C0377
:1024DC001846BD465DF8047B704700BF00100240F3
:1024EC0080B483B000AF78600649064B9B6823F03C
:1024FC00F0027B6813438B6000BF0C37BD465DF860
:10250C00047B70470010024080B483B000AF786049
:10251C000649064B9B6823F4E0627B6813438B608F
:10252C0000BF0C37BD465DF8047B704700100240BD
:10253C0080B483B000AF78600649064B9B6823F4E7
:10254C0060527B6813438B6000BF0C37BD465DF84F
:10255C00047B70470010024080B483B000AF7860F9
:10256C0039600848074B9B6823F0FE4279683B684A
:10257C000B431343836000BF0C37BD465DF8047BEF
:10258C00704700BF0010024080B485B000AF786087
:10259C007B681A0E0E4B1344FB60FB681A687B6851
:1025AC001B0CDBB2032101FA03F3DB431A407B68FB
:1025BC00D9B27B681B0CDBB201FA03F31A43FB683C
:1025CC001A6000BF1437BD465DF8047B704700BF2E
:1025DC008810024080B483B000AF78600749074B85
:1025EC00D3F8883023F040527B681343C1F888300D
:1025FC0000BF0C37BD465DF8047B704700100240ED
:10260C0080B400AF054A054B1B6843F08073136020
:10261C0000BFBD465DF8047B704700BF0010024050
:10262C0080B400AF074B1B6803F00073B3F1007F5D
:10263C000CBF01230023DBB21846BD465DF8047BBA
:10264C00704700BF0010024080B485B000AFF86046
:10265C00B9607A603B600A48094BDA68094B134051
:10266C00F968BA6811437A68120211433A680A434E
:10267C001343C36000BF1437BD465DF8047B70473D
:10268C00001002408C80FFF980B400AF054A054B66
:10269C00DB6843F08073D36000BFBD465DF8047BFC
:1026AC00704700BF0010024080B483B000AF786068
:1026BC007B681B6843F001027B681A6000BF0C3713
:1026CC00BD465DF8047B704780B483B000AF786082
:1026DC007B681B6823F001027B681A6000BF0C3713
:1026EC00BD465DF8047B704790B484B000AF786051
:1026FC003960114C3B68DBB20F493A68D2B20232F6
:10270C0051F822103A68120CD24311403A68120C5C
:10271C00FA60FA6892FAA2F2BA60BA68B2FA82F275
:10272C00786800FA02F20A43023344F8232000BF0F
:10273C001037BD4690BC70470000014080B483B098
:10274C0000AF78600649064B1B6823F007027B68D4
:10275C0013430B6000BF0C37BD465DF8047B70471C
:10276C000020024080B483B000AF78607B686FF0CB
:10277C0001021A6100BF0C37BD465DF8047B70473F
:10278C0080B483B000AF78607B68DB6843F00102F3
:10279C007B68DA6000BF0C37BD465DF8047B704780
:1027AC0080B500AF0120FFF701FE4FF08050FFF71E
:1027BC00E5FD0120FFF7C2FFFFF74CFEFFF73AFEE5
:1027CC0000BFFFF757FE0346012BFAD14FF0007301
:1027DC00102200210320FFF737FFFFF755FFFFF70B
:1027EC000FFF00BFFFF71CFF0346012BFAD103209C
:1027FC00FFF754FE00BFFFF765FE03460C2BFAD122
:10280C000020FFF76DFE0020FFF77EFE0020FFF793
:10281C008FFE4FF46020FFF7B7FE00214FF0807061
:10282C00FFF79AFE01F098FB0420FFF7D7FD0B4B46
:10283C001B685B090A4AA2FB0323DB091846FFF756
:10284C0065FA03214FF0FF30FFF736FAFFF7E2FD90
:10285C004FF04050FFF7BEFE00BF80BD20000020AF
:10286C00C55A7C0A80B500AFA14B0722DA6400225E
:10287C0001214FF09040FFF720FC022204214FF081
:10288C009040FFF71AFC022208214FF09040FFF70E
:10289C0014FC012204214FF09040FFF753FC01225D
:1028AC0008214FF09040FFF74DFC072204214FF018
:1028BC009040FFF7A1FC072208214FF09040FFF752
:1028CC009BFC032210214FF09040FFF7F6FB0322F4
:1028DC0020214FF09040FFF7F0FB012280214FF0B8
:1028EC009040FFF7EAFB012240214FF09040FFF7A8
:1028FC00E4FB002280214FF09040FFF723FC0022E4
:10290C0040214FF09040FFF71DFC02224FF48071E4
:10291C004FF09040FFF7D1FB03224FF480714FF042
:10292C009040FFF70FFC00224FF480714FF0904065
:10293C00FFF78FFC02224FF400714FF09040FFF72D
:10294C00BCFB02224FF480614FF09040FFF7B5FBC7
:10295C0002224FF400714FF09040FFF7F3FB02227C
:10296C004FF480614FF09040FFF7ECFB01224FF4E5
:10297C0080614FF09040FFF712FC07224FF400717A
:10298C004FF09040FFF765FC07224FF480614FF049
:10299C009040FFF75EFC002202215648FFF78DFBAA
:1029AC00012204215348FFF788FB002204215148DF
:1029BC00FFF7B0FB012204214E48FFF7C3FB0421B3
:1029CC004C48FFF775FC02224FF480614948FFF731
:1029DC0074FB02224FF400614648FFF76EFB0222A3
:1029EC004FF480614348FFF7ADFB02224FF40061C6
:1029FC004048FFF7A7FB01224FF480613D48FFF7E9
:102A0C0089FB01224FF400613A48FFF783FB042253
:102A1C004FF480613748FFF71CFC04224FF400612F
:102A2C003448FFF716FC01224FF480513148FFF770
:102A3C0044FB01224FF480512E48FFF783FB4FF4E7
:102A4C0080512C48FFF734FC02224FF400512948E6
:102A5C00FFF733FB02224FF480412648FFF72DFB92
:102A6C0002224FF400412348FFF727FB02224FF4C8
:102A7C0000512048FFF766FB02224FF480411D48AD
:102A8C00FFF760FB02224FF400411A48FFF75AFB94
:102A9C0005224FF400511748FFF7DBFB05224FF4DA
:102AAC0080411448FFF7D5FB05224FF40041114833
:102ABC00FFF7CFFB012210210F48FFF7FEFA00228F
:102ACC0010210D48FFF73EFB012220210A48FFF799
:102ADC00F4FA002220210848FFF734FB00224021A1
:102AEC000548FFF7EAFA0120FFF760FC00BF80BD44
:102AFC0000100240000400480008004880B58AB06D
:102B0C0000AF4FF48040FFF739FC00233B604FF4DB
:102B1C0082737B604FF4E063BB600023FB60012396
:102B2C003B614FF400737B612823BB610023FB6185
:102B3C0000233B6207237B624FF480510A48FFF766
:102B4C00A9FA3B4619460848FEF7C7FE0648FFF7A8
:102B5C0091FA02211720FFF7AFF81720FFF792F830
:102B6C0000BF2837BD4680BD0038004080B588B016
:102B7C0000AF4FF48040FFF719FC4FF416537B6005
:102B8C000023BB600023BB610023FB6100233B617E
:102B9C000023FB600C237B610848FFF7B7FB074859
:102BAC00FFF7A4FB3B1D19460448FFF705F8034843
:102BBC00FFF78CFB00BF2037BD4680BD00380140BD
:102BCC0080B588B000AF4FF40030FFF7D7FB4FF45F
:102BDC00E1337B600023BB600023BB614FF40043F7
:102BEC00FB6100233B610023FB600C237B610748E6
:102BFC00FFF77CFB3B1D19460448FEF7DDFF03483D
:102C0C00FFF764FB00BF2037BD4680BD0044004089
:102C1C0080B588B000AF4FF48000FFF7AFFB0F48D2
:102C2C00FFF752FD0023FB6000233B610023FB6197
:102C3C0002237B6100237B60094BBB604FF4004394
:102C4C00BB613B1D19460548FEF7FAFA0348FFF72E
:102C5C002BFD00BF2037BD4680BD00BF0058004093
:102C6C00B47CB00080B500AF0420FFF76FFB0322EB
:102C7C0001213C48FFF721FA002201213948FFF7D6
:102C8C008EFA4FF40050FFF761FB3748FFF793F9CA
:102C9C00354A354B9B6843F0805393600A2000F013
:102CAC0035FF7F213048FFF7ACF900BF2E4B9B68F6
:102CBC00002BFBDB2D4B4FF480229A6000212A481D
:102CCC00FFF76CF800212848FFF755F8002126483B
:102CDC00FFF7D1F800212448FFF760F902212248C0
:102CEC00FFF782F800212048FFF7D8F84FF4800155
:102CFC001E48FFF72DF8012206211B48FFF787F825
:102D0C00062201211848FFF7DCF87F2218491648E3
:102D1C00FFF720F9164A0C211348FFF778F8072221
:102D2C0013491148FFF7CDF87F2212490E48FFF7DF
:102D3C0011F9104A12210C48FFF769F807220D49C6
:102D4C000948FFF7BEF80848FFF787F90648FFF770
:102D5C0044F900BF0448FFF76DF90346002BF9D086
:102D6C0000BF80BD00080048000004500003045060
:102D7C000002B0250004002A80B584B000AF4023C7
:102D8C007B6000237B730123BB7301233B733B1DCF
:102D9C001846FEF7CDF816490220FFF7A5FC1720C0
:102DAC00FEF770FF01211720FEF786FF0121252079
:102DBC00FEF782FF0F48FFF7B9FA2520FEF762FFF6
:102DCC0004212620FEF778FF2620FEF75BFF0A4839
:102DDC00FFF7ACFA02213720FEF76EFF3720FEF723
:102DEC0051FF0648FFF7CCFC00BF1037BD4680BD35
:102DFC000100000F00380140004400400014004066
:102E0C0080B586B000AF2020FFF7B8FA4FF0FF3343
:102E1C00FB6000233B610023BB6047F6FF43BB8094
:102E2C0000233B753B1D19460448FEF7F9FD03488A
:102E3C00FFF798FC00BF1837BD4680BD001400405A
:102E4C0080B483B000AF78607B689B6823F000434C
:102E5C0023F03F0343F004027B689A6000BF0C37F9
:102E6C00BD465DF8047B704780B483B000AF7860DA
:102E7C007B681B6803F00103012B0CBF01230023AB
:102E8C00DBB218460C37BD465DF8047B704780B446
:102E9C0083B000AF78607B681B6803F00403042BDD
:102EAC000CBF01230023DBB218460C37BD465DF87E
:102EBC00047B704780B483B000AF78607B680822D5
:102ECC001A6000BF0C37BD465DF8047B704780B4B8
:102EDC0083B000AF786039607B683A689A6100BF54
:102EEC000C37BD465DF8047B704780B483B000AFEF
:102EFC00786039607B683A689A6200BF0C37BD46CF
:102F0C005DF8047B704780B483B000AF78607B6859
:102F1C009B6903F04003402B0CBF01230023DBB261
:102F2C0018460C37BD465DF8047B704780B483B0FF
:102F3C0000AF78607B68DB6943F020027B68DA6164
:102F4C0000BF0C37BD465DF8047B704780B483B07E
:102F5C0000AF78607B685B6823F000727B685A6016
:102F6C0000BF0C37BD465DF8047B704780B483B05E
:102F7C0000AF786039607B685B6823F47F023B6844
:102F8C001B041A437B685A6000BF0C37BD465DF8C2
:102F9C00047B704780B483B000AF786039607B6885
:102FAC005B6823F480623B681A437B685A6000BFFD
:102FBC000C37BD465DF8047B704780B483B000AF1E
:102FCC0078607B681B6843F001027B681A6000BF65
:102FDC000C37BD465DF8047B704780B483B000AFFE
:102FEC0078607B681B6823F001027B681A6000BF65
:102FFC000C37BD465DF8047B704780B483B000AFDE
:10300C00786039607B683A685A6200BF0C37BD46FD
:10301C005DF8047B704780B483B000AF7860396092
:10302C007B683A68DA6200BF0C37BD465DF8047BFA
:10303C00704780B483B000AF78607B686FF001029A
:10304C001A6100BF0C37BD465DF8047B7047000069
:10305C0080B400AF034B1B881846BD465DF8047B5B
:10306C00704700BFAA75FF1F80B500AF084A084B18
:10307C005B6943F40053536100BF0648FFF707FF39
:10308C000346002BF9D0034B1B6C184680BD00BFC8
:10309C00000400480000045080B500AF00BF054894
:1030AC00FFF7E2FE0346002BF9D00248FFF7C8FEFB
:1030BC0000BF80BD00000450B0B58CB000AFF8600C
:1030CC00B9600023FB620023BB6200237B624FF0DC
:1030DC000003FB614FF00003BB614FF000037B6109
:1030EC0000233B6219E0FFF7D7FFFFF7BDFF024655
:1030FC00FB6A1344FB62FFF7B7FF0246BB6A13443B
:10310C00BB62FFF7B1FF02467B6A13447B625C48EB
:10311C00FFF7D0FE3B6A01333B623B6A0A2BE2DDD0
:10312C00BB6A584AA2FB0323DB08BB627B6A554A85
:10313C00A2FB0323DB087B62FB6A524AA2FB03233C
:10314C00DB08FB62504B1B681846FDF783F94FF008
:10315C0000024E4BFDF7F4F903460C4625461C467F
:10316C00B86AFDF777F902460B4620462946FDF76B
:10317C00E7F903460C4625461C46FB6A07EE903AD7
:10318C00F8EE677A9FED427A67EE877A17EE900A2F
:10319C00FDF782F902460B4620462946FDF7FAFA5E
:1031AC0003460C4618462146FDF7DCFB0346FB6143
:1031BC00D7ED077AB1EE007A67EE877AC7ED077A1A
:1031CC00314B1B681846FDF745F94FF000022F4BA9
:1031DC00FDF7B6F903460C4625461C46786AFDF702
:1031EC0039F902460B4620462946FDF7A9F9034654
:1031FC000C4625461C46FB6A07EE903AF8EE677AB9
:10320C009FED237A67EE877A17EE900AFDF744F963
:10321C0002460B4620462946FDF7BCFA03460C46EF
:10322C0018462146FDF79EFB0346BB61D7ED067A97
:10323C00B1EE007A67EE877AC7ED067AFB68BA6959
:10324C001A6097ED067AD7ED077A77EE677AC7EDB5
:10325C00057A97ED057AF3EE006AC7EE267A9FEDB4
:10326C000D7A67EE877AFCEEE77AC7ED017A3B7947
:10327C00DAB2BB681A7000BF3037BD46B0BD00BFB4
:10328C0000000450CDCCCCCCA400002000000840A1
:10329C0000F07F4500007A4480B582B000AF7860C2
:1032AC0004210948FFF721FE7B681A680623A02138
:1032BC00064800F038FA04210348FFF708FE00BF67
:1032CC000837BD4680BD00BF0004004800580040D0
:1032DC0090B585B000AF78600B46FB700421274891
:1032EC00FFF7F5FD2648FFF731FE00212448FFF7D4
:1032FC0051FEA021224800F0C8F901212048FFF717
:10330C0035FE1F4800F0D0F901211D4800F0E2F90C
:10331C001B48FFF70BFE00BF1948FFF7F4FD0346EF
:10332C00002BF9D01648FFF711FE4FF480611448BA
:10333C00FFF730FEFB7819461148FFF717FE1048CF
:10334C0000F0B2F90023FB730AE0FB7B7A68D41817
:10335C000B4800F0D5F903462370FB7B0133FB735C
:10336C00FA7BFB789A42F0D3054800F0A8F90448A0
:10337C00FFF7DCFD00BF1437BD4690BD00040048CC
:10338C000058004080B584B000AF0346FB710023A9
:10339C00FB734FF4805000F093FAFB7943F0400339
:1033AC00DBB21946094800F099FAFB7B194607482D
:1033BC0000F0B4FA0346BB734FF4805000F072FA7D
:1033CC00BB7B18461037BD4680BD00BF003800409F
:1033DC0080B582B000AF03460A46FB711346BB7141
:1033EC004FF4805000F06CFAFB791946074800F056
:1033FC0075FABB791946054800F070FA4FF4805005
:10340C0000F050FA00BF0837BD4680BD00380040C0
:10341C0080B582B000AF78600A48FFF7DEFD00216E
:10342C000848FFF7EAFD79680648FFF7F4FD054800
:10343C00FFF7FFFD0348FFF7C0FD00BF0837BD468F
:10344C0080BD00BF0014004080B500AF00210548CE
:10345C00FFF7D3FD0348FFF7ECFD0248FFF7BDFD76
:10346C0000BF80BD0014004080B582B000AF786012
:10347C007968094800F0A5FBFF21074800F08BFB99
:10348C00FF21054800F087FBFF21034800F083FB78
:10349C0000BF0837BD4680BD0038014080B483B002
:1034AC0000AF78607B689B6903F00103012B0CBFB4
:1034BC0001230023DBB218460C37BD465DF8047BB4
:1034CC00704780B483B000AF78607B689B6903F071
:1034DC000203022B0CBF01230023DBB218460C376E
:1034EC00BD465DF8047B704780B483B000AF786054
:1034FC007B689B6903F00403042B0CBF012300239E
:10350C00DBB218460C37BD465DF8047B704780B4BF
:10351C0083B000AF78607B689B6903F01003102BBD
:10352C000CBF01230023DBB218460C37BD465DF8F7
:10353C00047B704780B483B000AF78607B689B6974
:10354C0003F04003402B0CBF01230023DBB21846D1
:10355C000C37BD465DF8047B704780B483B000AF78
:10356C0078607B68DB6943F020027B68DA6100BF1E
:10357C000C37BD465DF8047B704780B483B000AF58
:10358C0078607B685B6843F000727B685A6000BFB0
:10359C000C37BD465DF8047B704780B483B000AF38
:1035AC00786039607B685B6823F47F023B681B049E
:1035BC001A437B685A6000BF0C37BD465DF8047B2C
:1035CC00704780B483B000AF78607B685B6843F46D
:1035DC0000527B685A6000BF0C37BD465DF8047B17
:1035EC00704780B483B000AF78607B685B6843F44D
:1035FC0080427B685A6000BF0C37BD465DF8047B87
:10360C00704780B483B000AF786039607B685B68CA
:10361C0023F480623B681A437B685A6000BF0C3706
:10362C00BD465DF8047B704780B483B000AF786012
:10363C0039607B685B6823F47F7323F003033A687B
:10364C001A437B685A6000BF0C37BD465DF8047B9B
:10365C00704780B483B000AF78607B685B6ADBB284
:10366C0018460C37BD465DF8047B704780B483B0B8
:10367C0000AF78600B46FB70FA787B689A6200BFEB
:10368C000C37BD465DF8047B704780B582B000AF47
:10369C0078600B46FB70FB7819467868FFF7C4FF1F
:1036AC0000BF0837BD4680BD80B582B000AF7860E2
:1036BC007868FFF786FF00BF0837BD4680BD80B530
:1036CC0082B000AF78607868FFF78BFF00BF0837D7
:1036DC00BD4680BD80B582B000AF78600B46FB70F4
:1036EC0000BF7868FFF7DAFE0346002BF9D0FB78B1
:1036FC0019467868FFF7BAFF00BF0837BD4680BD92
:10370C0080B582B000AF786000BF7868FFF7ECFE40
:10371C000346002BF9D07868FFF79BFF0346184649
:10372C000837BD4680BD80B586B000AFF8607A60C2
:10373C001A460B46FB721346BB72F868FFF71DFF67
:10374C000021F868FFF75DFFFB7A1946F868FFF770
:10375C009CFFBB7A1946F868FFF71FFFF868FFF764
:10376C00A3FF0023FB7518E0F868FFF7D0FE0346B3
:10377C00002B01D001231FE0F868FFF7A2FE0346DF
:10378C00002BF1D0FB7D7A6813441B781946F8683E
:10379C00FFF7A0FFFB7D0133FB75FA7DBB7A9A42E4
:1037AC00EAD3F868FFF7D9FE00BFF868FFF7C2FE4E
:1037BC000346012BF9D0002318461837BD4680BDAF
:1037CC0080B483B000AF78607B689B6803F0010322
:1037DC00012B0CBF01230023DBB218460C37BD466E
:1037EC005DF8047B704780B483B000AF78607B6871
:1037FC009B6803F00203022B0CBF01230023DBB2F6
:10380C0018460C37BD465DF8047B704780B483B016
:10381C0000AF78607B689B6803F08003802B0CBF43
:10382C0001230023DBB218460C37BD465DF8047B40
:10383C00704780B483B000AF78607B68DB68DBB224
:10384C0018460C37BD465DF8047B704780B483B0D6
:10385C0000AF78600B46FB707B680C33FA781A70FB
:10386C0000BF0C37BD465DF8047B704780B483B055
:10387C0000AF786039607B683A689A6100BF0C379A
:10388C00BD465DF8047B704780B483B000AF7860B0
:10389C0039607B683A689A6200BF0C37BD465DF8A8
:1038AC00047B704780B582B000AF786079680348BC
:1038BC00FFF7DCFF00BF0837BD4680BD00040048A1
:1038CC0080B582B000AF786079680348FFF7DCFF01
:1038DC0000BF0837BD4680BD0004004880B582B0EB
:1038EC0000AF78600B46FB7000BF7868FFF77BFF7A
:1038FC000346002BF9D0FB7819467868FFF7A6FF32
:10390C0000BF7868FFF782FF0346012BF9D0786877
:10391C00FFF78FFF00BF0837BD4680BD80B582B072
:10392C0000AF78600B46FB7000BF7868FFF75BFF59
:10393C000346002BF9D0FB7819467868FFF786FF11
:10394C0000BF7868FFF73CFF0346002BF9D000BF9F
:10395C007868FFF75BFF0346012BF9D07868FFF717
:10396C0068FF034618460837BD4680BD80B483B057
:10397C0000AF78607B681B6843F001027B681A60BB
:10398C0000BF0C37BD465DF8047B704780B483B034
:10399C0000AF78607B681B6823F001027B681A60BB
:1039AC0000BF0C37BD465DF8047B704780B483B014
:1039BC0000AF786039607B683A685A6200BF0C3798
:1039CC00BD465DF8047B704780B483B000AF78606F
:1039DC0039607B683A689A6200BF0C37BD465DF867
:1039EC00047B704780B483B000AF786039607B682B
:1039FC003A68DA6200BF0C37BD465DF8047B70474D
:103A0C0080B483B000AF78607B686FF001021A61FC
:103A1C0000BF0C37BD465DF8047B704780B483B0A3
:103A2C0000AF78607B681B6903F00103012B0CBFAE
:103A3C0001230023DBB218460C37BD465DF8047B2E
:103A4C007047000080B485B000AF78600849084B1F
:103A5C009A6D7B6813438B65054B9A6D7B6813409D
:103A6C00FB60FB6800BF1437BD465DF8047B7047F4
:103A7C000010024080B400AF054A054B1B6843F0B0
:103A8C000203136000BFBD465DF8047B704700BFA6
:103A9C0010E000E080B400AF054A054B1B6823F032
:103AAC000203136000BFBD465DF8047B704700BF86
:103ABC0010E000E080B582B000AF7860FFF7DAFF6D
:103ACC007B68642202FB03F37B607B68064A13600D
:103ADC0000BF054B1B68002BFBD1FFF7DBFF00BFC2
:103AEC000837BD4680BD00BFC000002080B500AFC8
:103AFC001020FFF7A7FF0448FDF777FF1F210248AE
:103B0C00FFF762FF00BF80BD0010004080B582B09F
:103B1C0000AF786079680D48FFF764FF00210B480F
:103B2C00FFF744FF0948FFF76BFF0848FFF71EFF3C
:103B3C0000BF0648FFF772FF0346002BF9D003487D
:103B4C00FFF724FF00BF0837BD4680BD00100040C2
:103B5C0080B483B000AF78607B68DB6903F08003CE
:103B6C00802B0CBF01230023DBB218460C37BD465B
:103B7C005DF8047B704780B483B000AF78600B466F
:103B8C00FB70FB789AB27B681A8500BF0C37BD4678
:103B9C005DF8047B704780B582B000AF78600B464F
:103BAC00FB7000BF7868FFF7D3FF0346002BF9D0FA
:103BBC00FB7819467868FFF7DEFF00BF0837BD4673
:103BCC0080BD80B584B000AF786039600023FB60A5
:103BDC000AE0FB683A6813441B7819467868FFF7CB
:103BEC00DAFFFB680133FB603868FCF7E9FA024640
:103BFC00FB689A42EDD800BF1037BD4680BD80B43B
:103C0C0083B000AF786039607B683A689A6100BF16
:103C1C000C37BD465DF8047B7047000080B500AFE3
:103C2C00FEF7BEFDFFF762FFFEF71CFE40214FF0D2
:103C3C009040FFF7E4FF80214FF09040FFF7DFFF4B
:103C4C00FA20FFF737FFFEF759FFFFF7D9F8FEF719
:103C5C008DFFFEF7B5FFFEF7DBFFFFF703F8FFF76D
:103C6C00F7F902461E4B1A60FFF786F81D48FFF75E
:103C7C0013FB05211C48FFF72BFB1C491C48FFF7C5
:103C8C001BFA1C48FFF7F0FB6420FFF713FF1A4BDD
:103C9C001B78002BFBD0194B1B78DE2B1BD1174B41
:103CAC009B7819460020FFF793FB144BDB781946E1
:103CBC000120FFF78DFB114B1B7919460220FFF7F2
:103CCC0087FB0E4B5B7919460320FFF781FB0A4BF0
:103CDC0000221A7000BF4FF4FA70FFF7EBFED6E724
:103CEC00A400002008000020AC000020A800002048
:103CFC00B80000208C410008C50000208400002082
:103D0C0080B483B000AF7860074B5A697B681A4067
:103D1C007B689A420CBF01230023DBB218460C3798
:103D2C00BD465DF8047B70470004014080B483B04D
:103D3C0000AF7860044A7B68536100BF0C37BD4606
:103D4C005DF8047B704700BF0004014080B483B071
:103D5C0000AF78607B68DB6903F02003202B0CBF7D
:103D6C0001230023DBB218460C37BD465DF8047BFB
:103D7C00704780B483B000AF78607B689B8C9BB23B
:103D8C00DBB218460C37BD465DF8047B704780B437
:103D9C0083B000AF78607B686FF001021A6100BFDE
:103DAC000C37BD465DF8047B704780B483B000AF20
:103DBC0078607B681B6903F00103012B0CBF0123A6
:103DCC000023DBB218460C37BD465DF8047B704708
:103DDC0080B400AF064B1B68002B04D0044B1B684F
:103DEC00013B034A136000BFBD465DF8047B70477E
:103DFC00C000002080B500AF4020FFF781FF0346D4
:103E0C00002B05D00320FFF7BDFA4020FFF78EFFF3
:103E1C0000BF80BD80B500AF0548FFF797FF034694
:103E2C00002B02D00248FFF7A4FF00BF80BD00BFEB
:103E3C000044004098B500AF0D48FFF787FF0346DC
:103E4C00002B12D00520FFF7E3FA0A4B1B781C4617
:103E5C000748FFF78EFF03461A46074B1A55054BCA
:103E6C001B780133DAB2034B1A7000BF98BD00BF48
:103E7C0000380140C40000208400002080B500AF51
:103E8C001548FFF792FF0346002B22D0FFF7DCFA10
:103E9C00124B1B78013B124AD35CFF2B10D10F4BFA
:103EAC001B78023B0E4AD35CFF2B09D10B4B1B78C2
:103EBC00033B0B4AD35CFF2B02D10A4B01221A7035
:103ECC000948FFF756FF0448FFF761FF034B002238
:103EDC001A7000BF80BD00BF00140040C400002059
:103EEC0084000020C50000200038014080B400AFE1
:103EFC00174A174BD3F8883043F47003C2F8883054
:103F0C00144A144B1B6843F001031360114B00223D
:103F1C009A60104A0F4B1B6823F0A85323F410230C
:103F2C0013600C4B4FF48052DA600A4A094B1B6841
:103F3C0023F480231360074B00229A61044B4FF04B
:103F4C0000629A6000BFBD465DF8047B704700BFFD
:103F5C0000ED00E00010024080B487B000AF0023F9
:103F6C00FB6000237B6100233B610223BB600023C9
:103F7C007B6002233B604F4B1B6803F00803002B54
:103F8C0007D14C4BD3F894301B0A03F00F037B6121
:103F9C0005E0484B1B681B0903F00F037B61464A85
:103FAC007B6952F823307B61424B9B6803F00C0316
:103FBC000C2B65D801A252F823F000BFFD3F00087E
:103FCC008D4000088D4000088D4000080540000819
:103FDC008D4000088D4000088D4000080D40000801
:103FEC008D4000088D4000088D40000815400008E9
:103FFC00324A7B69136047E0304B314A1A6043E028
:10400C002E4B304A1A603FE02A4BDB6803F0030367
:10401C007B60284BDB681B0903F0070301333B6013
:10402C007B68022B02D0032B06D00BE0244A3B68A2
:10403C00B2FBF3F33B610BE0224A3B68B2FBF3F3B8
:10404C003B6105E07A693B68B2FBF3F33B6100BF6F
:10405C00184BDB681B0A03F07F023B6902FB03F37E
:10406C003B61144BDB685B0E03F0030301335B0015
:10407C00BB603A69BB68B2FBF3F3104A136003E010
:10408C000E4A7B69136000BF0A4B9B681B0903F047
:10409C000F030D4AD35CFB60084B1A68FB6822FACD
:1040AC0003F3064A136000BF1C37BD465DF8047B62
:1040BC00704700BF00100240AC41000820000020F7
:1040CC000024F40000127A0094410008DFF834D088
:1040DC00002103E00C4B5B58435004310B480C4B54
:1040EC0042189A42F6D30B4A02E0002342F8043BF2
:1040FC00094B9A42F9D3FFF7F9FE00F011F8FFF7DC
:10410C008DFDFEE700C00020E44100080000002007
:10411C002400002024000020C8000020FEE700003E
:10412C0070B50D4E0D4CA41BA4100025A54209D151
:10413C000B4E0C4C00F018F8A41BA4100025A54243
:10414C0005D170BD56F8253098470135EEE756F885
:10415C00253098470135F2E7DC410008DC410008C6
:10416C00DC410008E0410008F8B500BFF8BC08BC11
:10417C009E467047F8B500BFF8BC08BC9E46704719
:10418C00626B636D643D31000000000000000000B4
:10419C0001020304060708090000000001020304E1
:1041AC00A0860100400D0300801A060000350C00AB
:1041BC0040420F0080841E0000093D0000127A006E
:1041CC000024F40000366E010048E801006CDC02AB
:0441DC00B101000825
:0441E0008D01000845
:1041E40001643963339A00000000002001000020BC
:1041F400020000200300002004000020050000202D
:0442040000093D0070
:04000005080040D9D6
:00000001FF
