:020000040800F2
:1000000000C000208D330008DD330008DD33000818
:10001000DD330008DD330008DD3300080000000098
:10002000000000000000000000000000DD330008B8
:10003000DD33000800000000DD33000889310008CE
:10004000DD330008DD330008DD330008DD33000850
:10005000DD330008DD330008DD330008DD33000840
:10006000DD330008DD330008DD330008DD33000830
:10007000DD330008DD330008DD330008DD33000820
:10008000DD330008DD330008DD330008DD33000810
:10009000DD330008DD330008DD330008DD33000800
:1000A000DD330008DD330008DD330008DD330008F0
:1000B000DD3300080000000000000000DD33000810
:1000C000DD330008DD330008DD330008DD330008D0
:1000D000DD330008DD330008DD330008DD330008C0
:1000E000DD330008DD3300080000000000000000E0
:1000F0000000000000000000000000000000000000
:1001000000000000DD33000800000000DD330008BF
:100110000000000000000000F90C0008DD330008BA
:10012000DD330008DD330008DD330008DD3300086F
:10013000DD330008000000000000000000000000A7
:10014000DD330008DD330008DD330008DD3300084F
:10015000DD330008DD330008DD330008DD3300083F
:10016000DD330008DD330008DD3300080000000047
:10017000DD330008DD330008DD3300080000000037
:0C018000DD330008DD330008DD3300082B
:10018C0010B5054C237833B9044B13B10448AFF3C5
:10019C0000800123237010BD14000020000000001B
:1001AC002834000808B5034B1BB103490348AFF3CF
:1001BC00008008BD00000000180000202834000852
:1001CC0081F0004102E000BF83F0004330B54FEAFC
:1001DC0041044FEA430594EA050F08BF90EA020F69
:1001EC001FBF54EA000C55EA020C7FEA645C7FEAFC
:1001FC00655C00F0E2804FEA5454D4EB5555B8BF1F
:10020C006D420CDD2C4480EA020281EA030382EA8F
:10021C00000083EA010180EA020281EA0303362D21
:10022C0088BF30BD11F0004F4FEA01314FF4801CF4
:10023C004CEA113102D0404261EB410113F0004F06
:10024C004FEA03334CEA133302D0524263EB4303BD
:10025C0094EA050F00F0A780A4F10104D5F1200E5B
:10026C000DDB02FA0EFC22FA05F2801841F10001B6
:10027C0003FA0EF2801843FA05F359410EE0A5F18A
:10028C0020050EF1200E012A03FA0EFC28BF4CF0BB
:10029C00020C43FA05F3C01851EBE37101F0004571
:1002AC0007D54FF0000EDCF1000C7EEB00006EEB7E
:1002BC000101B1F5801F1BD3B1F5001F0CD3490808
:1002CC005FEA30004FEA3C0C04F101044FEA44525F
:1002DC0012F5800F80F09A80BCF1004F08BF5FEAE6
:1002EC00500C50F1000041EB045141EA050130BDC6
:1002FC005FEA4C0C404141EB010111F4801FA4F169
:10030C000104E9D191F0000F04BF01460020B1FABD
:10031C0081F308BF2033A3F10B03B3F120020CDAF5
:10032C000C3208DD02F1140CC2F10C0201FA0CF0D3
:10033C0021FA02F10CE002F11402D8BFC2F1200C38
:10034C0001FA02F120FA0CFCDCBF41EA0C019040EE
:10035C00E41AA2BF01EB0451294330BD6FEA040437
:10036C001F3C1CDA0C340EDC04F11404C4F1200222
:10037C0020FA04F001FA02F340EA030021FA04F334
:10038C0045EA030130BDC4F10C04C4F1200220FA8B
:10039C0002F001FA04F340EA0300294630BD21FAC9
:1003AC0004F0294630BD94F0000F83F4801306BF8F
:1003BC0081F480110134013D4EE77FEA645C18BF83
:1003CC007FEA655C29D094EA050F08BF90EA020F1A
:1003DC0005D054EA000C04BF1946104630BD91EA12
:1003EC00030F1EBF0021002030BD5FEA545C05D115
:1003FC004000494128BF41F0004130BD14F5800454
:10040C003CBF01F5801130BD01F0004545F0FE41C7
:10041C0041F470014FF0000030BD7FEA645C1ABFFC
:10042C00194610467FEA655C1CBF0B46024650EA33
:10043C00013406BF52EA033591EA030F41F400215F
:10044C0030BD00BF90F0000F04BF0021704730B5E5
:10045C004FF4806404F132044FF000054FF00001BA
:10046C0050E700BF90F0000F04BF0021704730B57B
:10047C004FF4806404F1320410F0004548BF404250
:10048C004FF000013EE700BF42004FEAE2014FEAA5
:10049C0031014FEA02701FBF12F07F4393F07F4F80
:1004AC0081F06051704792F0000F14BF93F07F4FB2
:1004BC00704730B54FF4607401F0004521F00041F5
:1004CC0020E700BF50EA010208BF704730B54FF07B
:1004DC0000050AE050EA010208BF704730B511F080
:1004EC00004502D5404261EB41014FF4806404F1B8
:1004FC0032045FEA915C3FF4DCAE4FF003025FEA3A
:10050C00DC0C18BF03325FEADC0C18BF033202EBC1
:10051C00DC02C2F1200300FA03FC20FA02F001FA1B
:10052C0003FE40EA0E0021FA02F11444C1E600BFBA
:10053C0070B54FF0FF0C4CF4E06C1CEA11541DBF6D
:10054C001CEA135594EA0C0F95EA0C0F00F0DEF838
:10055C002C4481EA030621EA4C5123EA4C5350EA1D
:10056C00013518BF52EA033541F4801143F480136E
:10057C0038D0A0FB02CE4FF00005E1FB02E506F0FF
:10058C000042E0FB03E54FF00006E1FB03569CF054
:10059C00000F18BF4EF0010EA4F1FF04B6F5007F5A
:1005AC0064F5407404D25FEA4E0E6D4146EB0606CC
:1005BC0042EAC62141EA55514FEAC52040EA5E5055
:1005CC004FEACE2EB4F1FD0C88BFBCF5E06F1ED8FF
:1005DC00BEF1004F08BF5FEA500E50F1000041EB36
:1005EC00045170BD06F0004646EA010140EA0200E3
:1005FC0081EA0301B4EB5C04C2BFD4EB0C0541EA05
:10060C00045170BD41F480114FF0000E013C00F319
:10061C00AB8014F1360FDEBF002001F0004170BD3D
:10062C00C4F10004203C35DA0C341BDC04F1140456
:10063C00C4F1200500FA05F320FA04F001FA05F2E2
:10064C0040EA020001F0004221F0004110EBD370AF
:10065C0021FA04F642EB06015EEA430E08BF20EADB
:10066C00D37070BDC4F10C04C4F1200500FA04F37E
:10067C0020FA05F001FA04F240EA020001F0004110
:10068C0010EBD37041F100015EEA430E08BF20EA83
:10069C00D37070BDC4F1200500FA05F24EEA020ECB
:1006AC0020FA04F301FA05F243EA020321FA04F0FA
:1006BC0001F0004121FA04F220EA020000EBD370B1
:1006CC005EEA430E08BF20EAD37070BD94F0000FB1
:1006DC000FD101F00046400041EB010111F4801FE5
:1006EC0008BF013CF7D041EA060195F0000F18BF96
:1006FC00704703F00046520043EB030313F4801FD2
:10070C0008BF013DF7D043EA0603704794EA0C0F8B
:10071C000CEA135518BF95EA0C0F0CD050EA4106A1
:10072C0018BF52EA4306D1D181EA030101F000411E
:10073C004FF0000070BD50EA410606BF1046194646
:10074C0052EA430619D094EA0C0F02D150EA013652
:10075C0013D195EA0C0F05D152EA03361CBF104693
:10076C0019460AD181EA030101F0004141F0FE4132
:10077C0041F470014FF0000070BD41F0FE4141F4B6
:10078C00780170BD70B54FF0FF0C4CF4E06C1CEAB6
:10079C0011541DBF1CEA135594EA0C0F95EA0C0F6B
:1007AC0000F0A7F8A4EB050481EA030E52EA033526
:1007BC004FEA013100F088804FEA03334FF0805547
:1007CC0045EA131343EA12634FEA022245EA111574
:1007DC0045EA10654FEA00260EF000419D4208BF25
:1007EC00964244F1FD0404F5407402D25B084FEAD2
:1007FC003202B61A65EB03055B084FEA32024FF47E
:10080C0080104FF4002CB6EB020E75EB030E22BFDA
:10081C00B61A754640EA0C005B084FEA3202B6EB9A
:10082C00020E75EB030E22BFB61A754640EA5C0049
:10083C005B084FEA3202B6EB020E75EB030E22BFD9
:10084C00B61A754640EA9C005B084FEA3202B6EBDA
:10085C00020E75EB030E22BFB61A754640EADC0099
:10086C0055EA060E18D04FEA051545EA16754FEAFB
:10087C0006164FEAC30343EA52734FEAC2025FEA19
:10088C001C1CC0D111F4801F0BD141EA00014FF0A8
:10089C0000004FF0004CB6E711F4801F04BF014379
:1008AC000020B4F1FD0C88BFBCF5E06F3FF6AFAE95
:1008BC00B5EB030C04BFB6EB020C5FEA500C50F125
:1008CC00000041EB045170BD0EF0004E4EEA1131A8
:1008DC0014EB5C04C2BFD4EB0C0541EA045170BDAF
:1008EC0041F480114FF0000E013C90E645EA060EF3
:1008FC008DE60CEA135594EA0C0F08BF95EA0C0F21
:10090C003FF43BAF94EA0C0F0AD150EA01347FF468
:10091C0034AF95EA0C0F7FF425AF104619462CE73F
:10092C0095EA0C0F06D152EA03353FF4FDAE1046A2
:10093C00194622E750EA410618BF52EA43067FF4F3
:10094C00C5AE50EA41047FF40DAF52EA43057FF483
:10095C00EBAE12E74A0011D212F5001211D20DD5EE
:10096C006FF47873B3EB62520ED44FEAC12343F0A9
:10097C00004343EA505323FA02F070474FF0000053
:10098C00704750EA013002D14FF0FF3070474FF002
:10099C00000070474FEA4102B2F1E04324BFB3F5C7
:1009AC00001CDCF1FE5C0DD901F0004C4FEAC002DA
:1009BC004CEA5070B2F1004F40EB830008BF20F0BE
:1009CC000100704711F0804F21D113F13872BCBF78
:1009DC0001F00040704741F480114FEA5252C2F1CD
:1009EC001802C2F1200C10FA0CF320FA02F018BF16
:1009FC0040F001004FEAC1234FEAD32303FA0CFC69
:100A0C0040EA0C0023FA02F34FEA4303CCE77FEAF7
:100A1C00625307D150EA01331EBF4FF0FE4040F441
:100A2C004000704701F0004040F0FE4040F40000F0
:100A3C00704700BF80B400AF044B1B680133034AFE
:100A4C00136000BFBD465DF8047B7047300000208A
:100A5C0080B582B000AF78607B681B681B6903F0BF
:100A6C000203022B22D17B681B68DB6803F00203B4
:100A7C00022B1BD17B681B686FF002021A617B682A
:100A8C0001221A777B681B689B6903F00303002B18
:100A9C0003D0786800F0EEF805E0786800F0E0F834
:100AAC00786800F0F1F87B6800221A777B681B6885
:100ABC001B6903F00403042B22D17B681B68DB68E1
:100ACC0003F00403042B1BD17B681B686FF004023A
:100ADC001A617B6802221A777B681B689B6903F496
:100AEC004073002B03D0786800F0C4F805E07868F8
:100AFC0000F0B6F8786800F0C7F87B6800221A7727
:100B0C007B681B681B6903F00803082B22D17B68E8
:100B1C001B68DB6803F00803082B1BD17B681B6880
:100B2C006FF008021A617B6804221A777B681B68D5
:100B3C00DB6903F00303002B03D0786800F09AF80C
:100B4C0005E0786800F08CF8786800F09DF87B6818
:100B5C0000221A777B681B681B6903F01003102BAB
:100B6C0022D17B681B68DB6803F01003102B1BD1B0
:100B7C007B681B686FF010021A617B6808221A7779
:100B8C007B681B68DB6903F44073002B03D0786827
:100B9C0000F070F805E0786800F062F8786800F012
:100BAC0073F87B6800221A777B681B681B6903F05B
:100BBC000103012B0ED17B681B68DB6803F001037A
:100BCC00012B07D17B681B686FF001021A617868F2
:100BDC0000F082F87B681B681B6903F08003802B94
:100BEC000ED17B681B68DB6803F08003802B07D178
:100BFC007B681B686FF080021A61786800F062F8FD
:100C0C007B681B681B6903F04003402B0ED17B688B
:100C1C001B68DB6803F04003402B07D17B681B6823
:100C2C006FF040021A61786800F038F87B681B6836
:100C3C001B6903F02003202B0ED17B681B68DB683B
:100C4C0003F02003202B07D17B681B686FF0200278
:100C5C001A61786800F02CF800BF0837BD4680BDDB
:100C6C0080B483B000AF786000BF0C37BD465DF830
:100C7C00047B704780B483B000AF786000BF0C3742
:100C8C00BD465DF8047B704780B483B000AF7860DC
:100C9C0000BF0C37BD465DF8047B704780B483B051
:100CAC0000AF786000BF0C37BD465DF8047B704721
:100CBC0080B483B000AF786000BF0C37BD465DF8E0
:100CCC00047B704780B483B000AF786000BF0C37F2
:100CDC00BD465DF8047B704780B582B000AF78608C
:100CEC00FFF7A8FE00BF0837BD4680BD80B500AF3A
:100CFC000248FFF7ADFE00BF80BD00BF34000020EE
:100D0C0080B483B000AF78607B681B6843F001024D
:100D1C007B681A6000BF0C37BD465DF8047B7047DA
:100D2C0080B483B000AF78607B681B6823F001024D
:100D3C007B681A6000BF0C37BD465DF8047B7047BA
:100D4C0080B485B000AFF860B9607A60FB681B684E
:100D5C0023F4F8527B681902BB680B431A43FB68F7
:100D6C001A6000BF1437BD465DF8047B704780B431
:100D7C0085B000AFF860B9607A60FB689B6823F4BB
:100D8C00FF6323F00703B9687A680A431A43FB68C8
:100D9C009A6000BF1437BD465DF8047B704780B481
:100DAC0083B000AF78607B689B6843F400427B683B
:100DBC009A6000BF0C37BD465DF8047B704780B469
:100DCC0083B000AF78607B689B6823F400427B683B
:100DDC009A6000BF0C37BD465DF8047B704780B449
:100DEC0083B000AF786039607B683A681A6100BFE5
:100DFC000C37BD465DF8047B704780B483B000AF00
:100E0C00786039607B681B6823F440123B681A4396
:100E1C007B681A6000BF0C37BD465DF8047B7047D9
:100E2C0080B483B000AF786039607B685B6823F472
:100E3C0000423B681A437B685A6000BF0C37BD46C2
:100E4C005DF8047B704780B582B000AF7860396084
:100E5C007868FFF765FF3B6899683B68DB681A4662
:100E6C007868FFF76DFF3B685B6819467868FFF799
:100E7C00B6FF7868FFF744FF7868FFF7A0FF3B6880
:100E8C0019693B689B691A467868FFF770FF3B68E5
:100E9C001B69002B02D07868FFF781FF3B681B6849
:100EAC0019467868FFF7A9FF3B685B6919467868B3
:100EBC00FFF7B6FF012318460837BD4680BD00007A
:100ECC0080B400AF074B1B6803F48063B3F5806FED
:100EDC000CBF01230023DBB21846BD465DF8047B32
:100EEC00704700BF0010024080B400AF074BD3F82E
:100EFC00903003F00203022B0CBF01230023DBB262
:100F0C001846BD465DF8047B704700BF00100240D8
:100F1C0080B400AF064B1B6803F00803082B0CBF12
:100F2C0001230023DBB21846BD465DF8047B7047F5
:100F3C000010024080B400AF044B1B6803F0F003B8
:100F4C001846BD465DF8047B704700BF0010024098
:100F5C0080B400AF044BD3F8943003F4706318469C
:100F6C00BD465DF8047B70470010024080B400AFB2
:100F7C00044B9B6803F00C031846BD465DF8047BDC
:100F8C00704700BF0010024080B400AF044B9B6858
:100F9C0003F0F0031846BD465DF8047B704700BFB4
:100FAC000010024080B400AF044B9B6803F4E06374
:100FBC001846BD465DF8047B704700BF0010024028
:100FCC0080B400AF044B9B6803F460531846BD46D5
:100FDC005DF8047B704700BF0010024080B483B002
:100FEC0000AF7860064BD3F888207B681A407B688A
:100FFC001B04134318460C37BD465DF8047B704741
:10100C000010024080B400AF044BDB681B0A03F0F5
:10101C007F031846BD465DF8047B70470010024004
:10102C0080B400AF044BDB6803F0C0631846BD46C8
:10103C005DF8047B704700BF0010024080B400AF25
:10104C00044BDB6803F003031846BD465DF8047BD4
:10105C00704700BF0010024080B400AF044BDB6847
:10106C0003F070031846BD465DF8047B704700BF63
:10107C000010024080B584B000AF78600023FB60A4
:10108C007B68032B2ED17868FFF7A8FF03464F4AE5
:10109C00934209D0B3F1031F0ED04D4A934214D1A1
:1010AC0000F0A2F8F8608BE0FFF70AFF0346002B74
:1010BC007BD0484BFB6078E0FFF716FF0346002B14
:1010CC0075D04FF40043FB6071E000F08DF80346DF
:1010DC00184600F01BF90346184600F041F9F86079
:1010EC0000BF6DE07B680C2B2ED17868FFF776FF84
:1010FC000346394A934209D0B3F10C1F0ED0374A3C
:10110C00934214D100F070F8F86059E0FFF7D8FE64
:10111C000346002B4DD02F4BFB604AE0FFF7E4FE5B
:10112C000346002B47D04FF40043FB6043E000F034
:10113C005BF80346184600F0E9F80346184600F041
:10114C00FBF8F86000BF3BE07B68302B38D1786847
:10115C00FFF744FF0346224A934209D0B3F1301FF4
:10116C000ED0204A934214D100F03EF8F86027E0EC
:10117C00FFF7A6FE0346002B1FD0164BFB601CE0AE
:10118C00FFF7B2FE0346002B19D04FF40043FB606F
:10119C0015E000F029F80346184600F0B7F80346AE
:1011AC00184600F0C9F8F8600AE000BF08E000BF7C
:1011BC0006E000BF04E000BF02E000BF00E000BF9B
:1011CC00FB6818461037BD4680BD00BF0200030007
:1011DC00010003000024F40008000C0004000C00C3
:1011EC00200030001000300080B582B000AF00232A
:1011FC007B60FFF7BBFE03460C2B51D801A252F8C3
:10120C0023F000BF45120008AD120008AD12000813
:10121C00AD12000899120008AD120008AD120008BA
:10122C00AD1200089F120008AD120008AD120008A4
:10123C00AD120008A5120008FFF76AFE0346002B4A
:10124C0011D1FFF765FE0346002B04D0FFF772FEA9
:10125C0003461B0A03E0FFF77BFE03461B0A284AE2
:10126C0052F8233010E0FFF753FE0346002B04D056
:10127C00FFF760FE03461B0903E0FFF769FE034618
:10128C001B091F4A52F823307B6033E01D4B7B60F7
:10129C0030E01D4B7B602DE000F076F8786029E0A3
:1012AC00FFF736FE0346002B11D1FFF731FE034644
:1012BC00002B04D0FFF73EFE03461B0A03E0FFF7AA
:1012CC0047FE03461B0A0E4A52F8233010E0FFF784
:1012DC001FFE0346002B04D0FFF72CFE03461B0910
:1012EC0003E0FFF735FE03461B09054A52F823308D
:1012FC007B6000BF7B6818460837BD4680BD00BFC9
:10130C00583400080024F40000127A0080B582B032
:10131C0000AF7860FFF738FE03461B0903F00F039C
:10132C00044AD35C1A467B68D34018460837BD463E
:10133C0080BD00BF4034000880B582B000AF78603B
:10134C00FFF730FE03461B0A044AD35C1A467B683F
:10135C00D34018460837BD4680BD00BF5034000846
:10136C0080B582B000AF7860FFF72AFE0346DB0A37
:10137C00044AD35C1A467B68D34018460837BD46EE
:10138C0080BD00BF5034000890B583B000AF00237F
:10139C007B6000233B60FFF751FE38603B68022BFB
:1013AC002DD0032B2ED0012B2FD1FFF7B1FD0346EF
:1013BC00002B11D1FFF7ACFD0346002B04D0FFF737
:1013CC00B9FD03461B0A03E0FFF7C2FD03461B0AE7
:1013DC002F4A52F8233010E0FFF79AFD0346002BFA
:1013EC0004D0FFF7A7FD03461B0903E0FFF7B0FD90
:1013FC0003461B09264A52F823307B602FE0254B0D
:10140C007B602CE0244B7B6029E0FFF781FD0346D9
:10141C00002B11D1FFF77CFD0346002B04D0FFF706
:10142C0089FD03461B0A03E0FFF792FD03461B0AE6
:10143C00174A52F8233010E0FFF76AFD0346002BE1
:10144C0004D0FFF777FD03461B0903E0FFF780FD8F
:10145C0003461B090E4A52F823307B6000BFFFF78E
:10146C00FBFD03461B0901337A68B2FBF3F4FFF76B
:10147C00C9FD034603FB04F4FFF7D2FD03465B0EE4
:10148C0001335B00B4FBF3F318460C37BD4690BD3B
:10149C00583400080024F40000127A0080B483B0A1
:1014AC0000AF78607B681B6803F04003402B0CBFD7
:1014BC0001230023DBB218460C37BD465DF8047BD4
:1014CC00704780B483B000AF786039603B689BB2E2
:1014DC001A467B681A6100BF0C37BD465DF8047B69
:1014EC00704780B584B000AF786039600023FB731F
:1014FC007868FFF7D3FF0346002B3BD17B681B6852
:10150C0023F47F4323F0BF033A6811683A685268AA
:10151C0011433A68D26811433A68126911433A6828
:10152C00526911433A68926911433A68D26911437E
:10153C003A68126A0A431A437B681A607B685B68D4
:10154C0023F4706323F004033A6891683A68526993
:10155C00120C0A431A437B685A603B681B6AB3F54A
:10156C00005F05D13B685B6A19467868FFF7A9FFF5
:10157C000123FB73FB7B18461037BD4680BD80B43E
:10158C0083B000AF78607B6800221A807B680022F1
:10159C005A607B684FF0FF329A607B680022DA60F9
:1015AC007B6800221A7400BF0C37BD465DF8047BC3
:1015BC00704780B483B000AF78607B681B6803F021
:1015CC000103012B0CBF01230023DBB218460C379F
:1015DC00BD465DF8047B704780B483B000AF786083
:1015EC0039607B685B6823F440523B681A437B6824
:1015FC005A6000BF0C37BD465DF8047B704780B461
:10160C0083B000AF786039607B689B6823F44072CC
:10161C003B681A437B689A6000BF0C37BD465DF887
:10162C00047B7047B0B485B000AFF860B9607A60E5
:10163C003B60002500247B68B3F5004F14D1BB68D8
:10164C005A003B685B081A443B68B2FBF3F39BB24D
:10165C001D464FF6F0742C406B089BB203F0070349
:10166C001C43FB68DC600AE03B685A08BB681A4400
:10167C003B68B2FBF3F39BB21A46FB68DA6000BF1F
:10168C001437BD46B0BC704780B584B000AF7860ED
:10169C0039600023FB730023BB607868FFF789FF78
:1016AC000346002B48D17B681A68264B13403A68D6
:1016BC0051683A68D26811433A68126911433A6822
:1016CC0092690A431A437B681A603B689B68194607
:1016DC007868FFF781FF3B685B6919467868FFF70C
:1016EC008EFF7B68184A934204D10320FFF7C2FC9B
:1016FC00B86010E07B68154A934204D10C20FFF7C8
:10170C00B9FCB86007E07B68114A934203D13020E2
:10171C00FFF7B0FCB860BB68002B0DD03B681B68B2
:10172C00002B09D00123FB733B689A693B681B684B
:10173C00B9687868FFF776FFFB7B18461037BD4613
:10174C0080BD00BFF369FFEF00380140004400404A
:10175C000048004080B400AF044BDB681B0A03F068
:10176C0007031846BD465DF8047B704700ED00E0AA
:10177C0080B483B000AF03463960FB7197F9073032
:10178C00002B0BDA0D49FB7903F00F03043B3A688D
:10179C00D2B21201D2B20B441A7609E0084997F979
:1017AC0007303A68D2B21201D2B20B4483F800234C
:1017BC0000BF0C37BD465DF8047B704700ED00E0C0
:1017CC0000E100E080B489B000AFF860B9607A60E5
:1017DC00FB6803F00703FB61FB69C3F10703042BF0
:1017EC0028BF0423BB61FB690433062B02D9FB69B8
:1017FC00033B00E000237B610122BB6902FA03F387
:10180C005A1EBB681A407B699A4001217B6901FA18
:10181C0003F3591E7B680B40134318462437BD460F
:10182C005DF8047B7047000080B582B000AF786033
:10183C007B68013BB3F1807F01D301230FE00A4A9F
:10184C007B68013B53600F214FF0FF30FFF790FF97
:10185C00054B00229A60044B07221A60002318469D
:10186C000837BD4680BD00BF10E000E080B483B0F7
:10187C0000AF786039607B689B6823F0E0723B684E
:10188C001A437B689A6000BF0C37BD465DF8047B39
:10189C00704780B483B000AF786039607B68DB68D8
:1018AC0023F018023B681A437B68DA6000BF0C37E0
:1018BC00BD465DF8047B704780B483B000AF7860A0
:1018CC0039607B68DB6823F020023B681A437B6835
:1018DC00DA6000BF0C37BD465DF8047B704780B4FE
:1018EC0083B000AF786039607B68DB6823F47C627E
:1018FC003B681A437B68DA6000BF0C37BD465DF865
:10190C00047B704780B483B000AF786039607B682B
:10191C001B6B23F00F023B681A437B681A6300BFF2
:10192C000C37BD465DF8047B704790B486B000AFB1
:10193C00F860B9607A60FB6830331946BB6803F411
:10194C0040724FF440737B617B6993FAA3F33B6164
:10195C003B69B3FA83F322FA03F39B000B441C4656
:10196C002268BB6803F01F031F2101FA03F3DB435A
:10197C001A407B689B0E03F01F01BB6803F01F032A
:10198C0001FA03F31343236000BF1837BD4690BC24
:10199C00704780B483B000AF786039607B68DB68D7
:1019AC0023F400523B681A437B68DA6000BF0C37A3
:1019BC00BD465DF8047B704780B483B000AF78609F
:1019CC0039607B68DB6823F003023B681A437B6851
:1019DC00DA6000BF0C37BD465DF8047B704790B4ED
:1019EC008AB000AFF860B9607A60FB6814331946AE
:1019FC00BB6803F000724FF000737B617B6993FA54
:101A0C00A3F33B613B69B3FA83F322FA03F39B0024
:101A1C000B441C462268BB6803F0F8714FF0F87356
:101A2C00FB61FB6993FAA3F3BB61BB69B3FA83F364
:101A3C0021FA03F3072101FA03F3DB431A40BB68D5
:101A4C0003F0F8714FF0F8737B627B6A93FAA3F39F
:101A5C003B623B6AB3FA83F321FA03F3796801FA28
:101A6C0003F31343236000BF2837BD4690BC704777
:101A7C0080B485B000AFF860B9607A60FB68D3F8C9
:101A8C00B020BB68C3F31203DB431A407B6803F03E
:101A9C00200308499940BB680B40C3F312031A4357
:101AAC00FB68C3F8B02000BF1437BD465DF8047B5B
:101ABC00704700BFFFFF070080B582B000AF7860B1
:101ACC00396039687868FFF70AFF00BF0837BD46F0
:101ADC0080BD80B483B000AF78607B689B6823F0D6
:101AEC00204323F03F037A68936000BF0C37BD4658
:101AFC005DF8047B704780B483B000AF78607B687E
:101B0C009B6823F0004323F03F0343F001027B6802
:101B1C009A6000BF0C37BD465DF8047B704780B4FB
:101B2C0083B000AF786039607B689B6823F04043DA
:101B3C0023F03F033A6802F08042134343F0004223
:101B4C007B689A6000BF0C37BD465DF8047B70471C
:101B5C0080B483B000AF78607B681B6803F001032E
:101B6C00012B0CBF01230023DBB218460C37BD46FA
:101B7C005DF8047B704780B483B000AF78607B68FD
:101B8C0001221A6000BF0C37BD465DF8047B70471C
:101B9C0080B485B000AF78600849084BDA6C7B687C
:101BAC001343CB64054BDA6C7B681340FB60FB681A
:101BBC0000BF1437BD465DF8047B7047001002402F
:101BCC0080B485B000AF78600849084B9A6D7B688B
:101BDC0013438B65054B9A6D7B681340FB60FB6868
:101BEC0000BF1437BD465DF8047B704700100240FF
:101BFC0080B485B000AF78600849084B1A6E7B68DA
:101C0C0013430B66054B1A6E7B681340FB60FB6835
:101C1C0000BF1437BD465DF8047B704700100240CE
:101C2C0080B483B000AF78607B68042B06D1094A7E
:101C3C00084B1B6843F00403136005E0054A054B91
:101C4C001B6823F00403136000BF0C37BD465DF81E
:101C5C00047B704710E000E080B400AF054A054BF0
:101C6C001B6823F00203136000BFBD465DF8047BC4
:101C7C00704700BF10E000E080B400AF054A054B90
:101C8C001B6843F48023136000BFBD465DF8047BE2
:101C9C00704700BF0010024080B400AF054A054BEE
:101CAC001B6843F48033136000BFBD465DF8047BB2
:101CBC00704700BF0010024080B400AF074B1B6898
:101CCC0003F40033B3F5003F0CBF01230023DBB258
:101CDC001846BD465DF8047B704700BF00100240FB
:101CEC0080B483B000AF78600649064B9B6823F044
:101CFC0003027B6813438B6000BF0C37BD465DF855
:101D0C00047B70470010024080B400AF044B9B680A
:101D1C0003F00C031846BD465DF8047B704700BF0A
:101D2C000010024080B483B000AF78600649064BC7
:101D3C009B6823F0F0027B6813438B6000BF0C3769
:101D4C00BD465DF8047B70470010024080B483B040
:101D5C0000AF78600649064B9B6823F4E0627B6811
:101D6C0013438B6000BF0C37BD465DF8047B704796
:101D7C000010024080B483B000AF78600649064B77
:101D8C009B6823F460527B6813438B6000BF0C3755
:101D9C00BD465DF8047B70470010024080B483B0F0
:101DAC0000AF786039600848074B9B6823F0FE420F
:101DBC0079683B680B431343836000BF0C37BD4607
:101DCC005DF8047B704700BF0010024080B485B002
:101DDC0000AF78607B681A0E0E4B1344FB60FB68F7
:101DEC001A687B681B0CDBB2032101FA03F3DB439B
:101DFC001A407B68D9B27B681B0CDBB201FA03F387
:101E0C001A43FB681A6000BF1437BD465DF8047BAB
:101E1C00704700BF8810024080B483B000AF786078
:101E2C000749074BD3F8883023F040527B681343A3
:101E3C00C1F8883000BF0C37BD465DF8047B704795
:101E4C000010024080B400AF054A054B1B6843F0FC
:101E5C008073136000BFBD465DF8047B704700BF04
:101E6C000010024080B400AF074B1B6803F00073F6
:101E7C00B3F1007F0CBF01230023DBB21846BD4633
:101E8C005DF8047B704700BF0010024080B485B041
:101E9C0000AFF860B9607A603B600A48094BDA68B9
:101EAC00094B1340F968BA6811437A68120211435E
:101EBC003A680A431343C36000BF1437BD465DF84C
:101ECC00047B7047001002408C80FFF980B400AF97
:101EDC00054A054BDB6843F08073D36000BFBD46F9
:101EEC005DF8047B704700BF0010024080B489B0DD
:101EFC0000AFF860B9607A60FB681A68BB687B61F8
:101F0C007B6993FAA3F33B613B69B3FA83F35B0000
:101F1C00032101FA03F3DB431A40BB68FB61FB6945
:101F2C0093FAA3F3BB61BB69B3FA83F35B007968E3
:101F3C0001FA03F31A43FB681A6000BF2437BD464D
:101F4C005DF8047B704780B485B000AFF860B96071
:101F5C007A60FB685A68BB68DB431A40BB687968D7
:101F6C0001FB03F31A43FB685A6000BF1437BD46EC
:101F7C005DF8047B704780B489B000AFF860B9603D
:101F8C007A60FB689A68BB687B617B6993FAA3F300
:101F9C003B613B69B3FA83F35B00032101FA03F362
:101FAC00DB431A40BB68FB61FB6993FAA3F3BB618B
:101FBC00BB69B3FA83F35B00796801FA03F31A4344
:101FCC00FB689A6000BF2437BD465DF8047B704700
:101FDC0080B489B000AFF860B9607A60FB68DA68E9
:101FEC00BB687B617B6993FAA3F33B613B69B3FAF2
:101FFC0083F35B00032101FA03F3DB431A40BB6854
:10200C00FB61FB6993FAA3F3BB61BB69B3FA83F37E
:10201C005B00796801FA03F31A43FB68DA6000BFCE
:10202C002437BD465DF8047B704780B489B000AF9F
:10203C00F860B9607A60FB681A6ABB687B617B697F
:10204C0093FAA3F33B613B69B3FA83F39B000F2133
:10205C0001FA03F3DB431A40BB68FB61FB6993FA9B
:10206C00A3F3BB61BB69B3FA83F39B00796801FAF4
:10207C0003F31A43FB681A6200BF2437BD465DF8B0
:10208C00047B704780B489B000AFF860B9607A60A7
:10209C00FB685A6ABB681B0A7B617B6993FAA3F3E2
:1020AC003B613B69B3FA83F39B000F2101FA03F305
:1020BC00DB431A40BB681B0AFB61FB6993FAA3F371
:1020CC00BB61BB69B3FA83F39B00796801FA03F334
:1020DC001A43FB685A6200BF2437BD465DF8047B87
:1020EC00704780B483B000AF786039607B683A6821
:1020FC009A6100BF0C37BD465DF8047B704780B415
:10210C0083B000AF78607B681B6843F040027B684B
:10211C001A6000BF0C37BD465DF8047B704780B475
:10212C0083B000AF786039607B685B6823F48052C1
:10213C003B681A437B685A6000BF0C37BD465DF89C
:10214C00047B704780B483B000AF78607B681B68F9
:10215C0043F001027B681A6000BF0C37BD465DF886
:10216C00047B704780B483B000AF78607B681B68D9
:10217C0023F001027B681A6000BF0C37BD465DF886
:10218C00047B704780B483B000AF78607B681B68B9
:10219C0043F001027B681A6000BF0C37BD465DF846
:1021AC00047B704780B483B000AF78607B685B6859
:1021BC0023F400627B685A6000BF0C37BD465DF8A3
:1021CC00047B704780B500AF0120FFF711FD4FF085
:1021DC008050FFF7F5FCFFF75FFDFFF74DFD00BFEB
:1021EC00FFF76AFD0346012BFAD14FF00073102262
:1021FC0000210320FFF74AFEFFF768FEFFF722FEDF
:10220C0000BFFFF72FFE0346012BFAD10320FFF787
:10221C0067FD00BFFFF778FD03460C2BFAD10020B9
:10222C00FFF780FD0020FFF791FD0020FFF7A2FDD6
:10223C004FF46020FFF7CAFD00214FF08070FFF7CC
:10224C00ADFD00F0E3FF0420FFF7EAFC0F4B1B6829
:10225C005B090F4AA2FB0323DB091846FFF7E4FADC
:10226C00FFF778FA0346002200211846FFF7AAFA76
:10227C00034619464FF0FF30FFF77AFAFFF7ECFCF4
:10228C004FF04050FFF7C8FD00BF80BD100000208C
:10229C00C55A7C0A80B500AF9A4B0722DA6400223B
:1022AC0001214FF09040FFF721FE022204214FF054
:1022BC009040FFF71BFE022208214FF09040FFF7E1
:1022CC0015FE012204214FF09040FFF754FE01222D
:1022DC0008214FF09040FFF74EFE072204214FF0EB
:1022EC009040FFF7A2FE072208214FF09040FFF725
:1022FC009CFE032210214FF09040FFF7F7FD0322C4
:10230C0020214FF09040FFF7F1FD012280214FF08A
:10231C009040FFF7EBFD012240214FF09040FFF77A
:10232C00E5FD002280214FF09040FFF724FE0022B3
:10233C0040214FF09040FFF71EFE02224FF48071B7
:10234C004FF09040FFF7D2FD03224FF480714FF015
:10235C009040FFF710FE00224FF480714FF0904038
:10236C00FFF763FE02224FF400714FF09040FFF72D
:10237C00BDFD02224FF480614FF09040FFF7B6FD97
:10238C0001224FF400714FF09040FFF7F4FD012251
:10239C004FF480614FF09040FFF7EDFD07224FF4B2
:1023AC0000714FF09040FFF740FE07224FF4806120
:1023BC004FF09040FFF739FE002202215248FFF700
:1023CC0095FD012204215048FFF790FD00220421C5
:1023DC004D48FFF7B8FD012204214B48FFF7CBFD18
:1023EC0004214948FFF77DFE02224FF480614648E4
:1023FC00FFF77CFD02224FF400614348FFF776FDA6
:10240C0002224FF480614048FFF7B5FD02224FF4E1
:10241C0000613D48FFF7AFFD01224FF480613A485F
:10242C00FFF791FD01224FF400613748FFF78BFD58
:10243C0004224FF480613448FFF724FE04224FF449
:10244C0000613148FFF71EFE01224FF480512E48E7
:10245C00FFF74CFD01224FF480512B48FFF78BFD09
:10246C0002224FF400512848FFF740FD02224FF49E
:10247C0080412548FFF73AFD02224FF400412248E3
:10248C00FFF734FD02224FF400511F48FFF773FD94
:10249C0002224FF480411C48FFF76DFD02224FF4DD
:1024AC0000411948FFF767FD05224FF4005116480B
:1024BC00FFF7BBFD05224FF480411348FFF7B5FD34
:1024CC0005224FF400411048FFF7AFFD0122102107
:1024DC000E48FFF70BFD002210210C48FFF74BFDB7
:1024EC00012220210948FFF701FD00222021074885
:1024FC00FFF741FD002240210448FFF7F7FC00BF25
:10250C0080BD00BF001002400004004800080048D5
:10251C0080B58AB000AF4FF48040FFF751FB002329
:10252C003B604FF482737B604FF4E063BB6000232D
:10253C00FB6000233B614FF400737B612823BB617C
:10254C000023FB6100233B6207237B624FF4805125
:10255C000748FFF7E4FD3B4619460548FEF7C1FF67
:10256C000348FFF7CCFD00BF2837BD4680BD00BF38
:10257C000038004080B588B000AF4FF40030FFF752
:10258C001FFB4FF4E1337B600023BB600023BB6176
:10259C004FF40043FB6100233B610023FB600C23E1
:1025AC007B610748FFF7FEFD3B1D19460448FFF70A
:1025BC006BF80348FFF7E6FD00BF2037BD4680BD32
:1025CC000044004080B588B000AF4FF48000FFF7A6
:1025DC00F7FA0F48FFF7C6FD0023FB6000233B61B1
:1025EC000023FB6102237B6100237B60094BBB60F2
:1025FC004FF40043BB613B1D19460548FEF723FC15
:10260C000348FFF79FFD00BF2037BD4680BD00BFCC
:10261C0000580040B47CB00080B500AF0420FFF738
:10262C00B7FA032201213C48FFF760FC002201218C
:10263C003948FFF7CDFC4FF40050FFF7A9FA3748A3
:10264C00FFF747FA354A354B9B6843F0805393604C
:10265C000A2000F015FD7F213048FFF760FA00BF1B
:10266C002E4B9B68002BFBDB2D4B4FF480229A608A
:10267C0000212A48FFF720F900212848FFF709F923
:10268C0000212648FFF785F900212448FFF714FAAA
:10269C0002212248FFF736F900212048FFF78CF978
:1026AC004FF480011E48FFF7E1F8012206211B4878
:1026BC00FFF73BF9062201211848FFF790F97F221A
:1026CC0018491648FFF7D4F9164A0C211348FFF79E
:1026DC002CF9072213491148FFF781F97F2212497F
:1026EC000E48FFF7C5F9104A12210C48FFF71DF9E7
:1026FC0007220D490948FFF772F90848FFF73BFA22
:10270C000648FFF7F8F900BF0448FFF721FA034623
:10271C00002BF9D000BF80BD000800480000045019
:10272C00000304500002B0250004002A80B483B0DA
:10273C0000AF78607B689B6823F0004323F03F0375
:10274C0043F004027B689A6000BF0C37BD465DF80D
:10275C00047B704780B483B000AF78607B681B68E3
:10276C0003F00103012B0CBF01230023DBB218463D
:10277C000C37BD465DF8047B704780B483B000AF66
:10278C0078607B681B6803F00403042B0CBF0123E7
:10279C000023DBB218460C37BD465DF8047B70474E
:1027AC0080B483B000AF78607B6808221A6000BFE9
:1027BC000C37BD465DF8047B704780B483B000AF26
:1027CC00786039607B683A689A6100BF0C37BD4607
:1027DC005DF8047B7047000080B400AF034B1B888E
:1027EC001846BD465DF8047B704700BFAA75FF1FF5
:1027FC0080B500AF084A084B5B6943F40053536142
:10280C0000BF0648FFF7B9FF0346002BF9D0034B76
:10281C001B6C184680BD00BF00040048000004502B
:10282C0080B500AF00BF0548FFF794FF0346002BAF
:10283C00F9D00248FFF77AFF00BF80BD00000450BA
:10284C00B0B58CB000AFF860B9600023FB62002318
:10285C00BB6200237B624FF00003FB614FF000036F
:10286C00BB614FF000037B6100233B6219E0FFF773
:10287C00D7FFFFF7BDFF0246FB6A1344FB62FFF76D
:10288C00B7FF0246BB6A1344BB62FFF7B1FF0246B7
:10289C007B6A13447B625C48FFF782FF3B6A01331F
:1028AC003B623B6A0A2BE2DDBB6A584AA2FB03235C
:1028BC00DB08BB627B6A554AA2FB0323DB087B6205
:1028CC00FB6A524AA2FB0323DB08FB62504B1B68DA
:1028DC001846FDF7B7FD4FF000024E4BFDF728FEF2
:1028EC0003460C4625461C46B86AFDF7ABFD02466E
:1028FC000B4620462946FDF71BFE03460C46254693
:10290C001C46FB6A07EE903AF8EE677A9FED427A26
:10291C0067EE877A17EE900AFDF7B6FD02460B4676
:10292C0020462946FDF72EFF03460C461846214645
:10293C00FEF730F80346FB61D7ED077AB1EE007A6B
:10294C0067EE877AC7ED077A314B1B681846FDF79F
:10295C0079FD4FF000022F4BFDF7EAFD03460C46C4
:10296C0025461C46786AFDF76DFD02460B4620464F
:10297C002946FDF7DDFD03460C4625461C46FB6A41
:10298C0007EE903AF8EE677A9FED237A67EE877A36
:10299C0017EE900AFDF778FD02460B4620462946B5
:1029AC00FDF7F0FE03460C4618462146FDF7F2FFF4
:1029BC000346BB61D7ED067AB1EE007A67EE877AF3
:1029CC00C7ED067AFB68BA691A6097ED067AD7EDFF
:1029DC00077A77EE677AC7ED057A97ED057AF3EE0D
:1029EC00006AC7EE267A9FED0D7A67EE877AFCEEC9
:1029FC00E77AC7ED017A3B79DAB2BB681A7000BF8F
:102A0C003037BD46B0BD00BF00000450CDCCCCCC9F
:102A1C00740000200000084000F07F4500007A445C
:102A2C0080B584B000AF0346FB71FB793B73012387
:102A3C007B7307F10C0202239021034800F07BF911
:102A4C0000BF1037BD4680BD0058004090B585B022
:102A5C0000AF786000229021124800F004FA07F1D0
:102A6C000C02022390210F4800F0B2F93B7B1B01B2
:102A7C007A7B1209D2B213431846FDF7F3FC4FF0E0
:102A8C000002094BFDF754FD03460C46184621463F
:102A9C00FDF760FF03469AB27B681A8000BF1437BB
:102AAC00BD4690BD005800400000B03F80B584B0DA
:102ABC0000AF78600423FB7304210748FFF77DFE09
:102ACC007B681A680323A021044800F034F900BF86
:102ADC001037BD4680BD00BF0004004800580040C0
:102AEC0080B483B000AF78607B689B6903F001030E
:102AFC00012B0CBF01230023DBB218460C37BD465B
:102B0C005DF8047B704780B483B000AF78607B685D
:102B1C009B6903F00203022B0CBF01230023DBB2E1
:102B2C0018460C37BD465DF8047B704780B483B003
:102B3C0000AF78607B689B6903F00403042B0CBF27
:102B4C0001230023DBB218460C37BD465DF8047B2D
:102B5C00704780B483B000AF78607B689B6903F0EA
:102B6C001003102B0CBF01230023DBB218460C37CB
:102B7C00BD465DF8047B704780B483B000AF7860CD
:102B8C007B689B6903F40043B3F5004F0CBF012332
:102B9C000023DBB218460C37BD465DF8047B70474A
:102BAC0080B483B000AF78607B68DB6943F02002AF
:102BBC007B68DA6100BF0C37BD465DF8047B70475B
:102BCC0080B483B000AF78607B685B6843F00072C0
:102BDC007B685A6000BF0C37BD465DF8047B7047BC
:102BEC0080B483B000AF786039607B685B6823F495
:102BFC007F023B681B041A437B685A6000BF0C378A
:102C0C00BD465DF8047B704780B483B000AF78603C
:102C1C007B685B6843F400527B685A6000BF0C37DA
:102C2C00BD465DF8047B704780B483B000AF78601C
:102C3C0039607B685B6823F480623B681A437B686D
:102C4C005A6000BF0C37BD465DF8047B704780B4FA
:102C5C0083B000AF786039607B685B6823F47F7366
:102C6C0023F003033A681A437B685A6000BF0C37A1
:102C7C00BD465DF8047B704780B483B000AF7860CC
:102C8C007B685B6ADBB218460C37BD465DF8047B8B
:102C9C00704780B483B000AF78600B46FB70FA7855
:102CAC007B689A6200BF0C37BD465DF8047B7047A9
:102CBC0080B582B000AF78600B46FB70FB7819468C
:102CCC007868FFF7C4FF00BF0837BD4680BD80B5EC
:102CDC0082B000AF78607868FFF796FF00BF0837C6
:102CEC00BD4680BD80B582B000AF78600B46FB70EE
:102CFC0000BF7868FFF7F4FE0346002BF9D0FB7891
:102D0C0019467868FFF7C5FF00BF0837BD4680BD80
:102D1C0080B582B000AF786000BF7868FFF706FF1F
:102D2C000346002BF9D07868FFF7A6FF0346184638
:102D3C000837BD4680BD80B586B000AFF8607A60BC
:102D4C001A460B46FB721346BB72F868FFF738FF46
:102D5C000021F868FFF768FFFB7A1946F868FFF75F
:102D6C00A7FFBB7A1946F868FFF73AFFF868FFF738
:102D7C00AEFF0023FB7518E0F868FFF7EAFE034688
:102D8C00002B01D001231FE0F868FFF7BCFE0346BF
:102D9C00002BF1D0FB7D7A6813441B781946F86838
:102DAC00FFF7A0FFFB7D0133FB75FA7DBB7A9A42DE
:102DBC00EAD3F868FFF7F4FE00BFF868FFF7DCFE13
:102DCC000346012BF9D0002318461837BD4680BDA9
:102DDC0090B587B000AFF8607A601A460B46FB726C
:102DEC001346BB72F868FFF7EBFE4FF48061F8688E
:102DFC00FFF71AFFFB7A1946F868FFF759FFBB7A01
:102E0C001946F868FFF7ECFEF868FFF760FF00233F
:102E1C00FB7515E0BB7A012B07D0F868FFF799FE1C
:102E2C000346002B01D0012319E0FB7D7A68D418EE
:102E3C00F868FFF76DFF03462370FB7D0133FB75CC
:102E4C00FA7DBB7A9A42E5D3F868FFF7A9FE00BF7A
:102E5C00F868FFF791FE0346012BF9D000231846C2
:102E6C001C37BD4690BD80B582B000AF78600B4674
:102E7C00FB701346BB707868FFF7A2FE00217868E0
:102E8C00FFF7D2FEFB7819467868FFF711FF012196
:102E9C007868FFF7A5FE7868FFF719FF07E07868F8
:102EAC00FFF757FE0346002B01D0012315E078688D
:102EBC00FFF729FE0346002BF1D0BB781946786842
:102ECC00FFF710FF7868FFF76BFE00BF7868FFF71D
:102EDC0053FE0346012BF9D0002318460837BD4694
:102EEC0080BD80B483B000AF78607B681B6843F012
:102EFC0001027B681A6000BF0C37BD465DF8047B8D
:102F0C00704780B483B000AF78607B681B6823F097
:102F1C0001027B681A6000BF0C37BD465DF8047B6C
:102F2C00704780B483B000AF786039607B683A68D2
:102F3C005A6200BF0C37BD465DF8047B704780B405
:102F4C0083B000AF786039607B683A689A6200BFE2
:102F5C000C37BD465DF8047B704780B483B000AF7E
:102F6C00786039607B683A68DA6200BF0C37BD461E
:102F7C005DF8047B704780B483B000AF78607B68E9
:102F8C006FF001021A6100BF0C37BD465DF8047B7F
:102F9C00704780B483B000AF78607B681B6903F026
:102FAC000103012B0CBF01230023DBB218460C37A5
:102FBC00BD465DF8047B704780B485B000AF786087
:102FCC000849084B9A6D7B6813438B65054B9A6DCA
:102FDC007B681340FB60FB6800BF1437BD465DF88F
:102FEC00047B70470010024080B400AF054A054BCB
:102FFC001B6843F00203136000BFBD465DF8047B01
:10300C00704700BF10E000E080B400AF054A054BEC
:10301C001B6823F00203136000BFBD465DF8047B00
:10302C00704700BF10E000E080B582B000AF786060
:10303C00FFF7DAFF7B68642202FB03F37B607B689B
:10304C00064A136000BF054B1B68002BFBD1FFF732
:10305C00DBFF00BF0837BD4680BD00BF80000020ED
:10306C0080B500AF1020FFF7A7FF0448FEF787FAE2
:10307C001F210248FFF763FF00BF80BD0010004016
:10308C0080B582B000AF786079680D48FFF765FFB6
:10309C0000210B48FFF745FF0948FFF76CFF084874
:1030AC00FFF71FFF00BF0648FFF773FF0346002B17
:1030BC00F9D00348FFF725FF00BF0837BD4680BD98
:1030CC000010004080B483B000AF786039607B683A
:1030DC003A689A6100BF0C37BD465DF8047B7047B7
:1030EC0080B500AFFFF76EF8FFF712FAFFF742FA60
:1030FC00FFF768FAFFF7CEF8FFF7B2FFFFF78CFA8D
:10310C00FFF76AFB0246174B1A60174B00225A61F5
:10311C004FF4FA60FFF788FF1448FFF7C7FC402113
:10312C004FF09040FFF7CEFF80214FF09040FFF71B
:10313C00C9FF0D4A0C4B5B6943F0200353610C49EA
:10314C000C48FFF77DFB0020FFF76AFC0A48FFF7ED
:10315C007DFC054B00225A6105490648FFF770FBC0
:10316C00DDE700BF740000200008004804000020C8
:10317C00780000207C0000207A00002080B400AF92
:10318C00064B1B68002B04D0044B1B68013B034A05
:10319C00136000BFBD465DF8047B704780000020C3
:1031AC0080B400AF174A174BD3F8883043F4700340
:1031BC00C2F88830144A144B1B6843F001031360A7
:1031CC00114B00229A60104A0F4B1B6823F0A85336
:1031DC0023F4102313600C4B4FF48052DA600A4A2C
:1031EC00094B1B6823F480231360074B00229A6160
:1031FC00044B4FF000629A6000BFBD465DF8047B43
:10320C00704700BF00ED00E00010024080B487B0B2
:10321C0000AF0023FB6000237B6100233B61022392
:10322C00BB6000237B6002233B604F4B1B6803F0A9
:10323C000803002B07D14C4BD3F894301B0A03F036
:10324C000F037B6105E0484B1B681B0903F00F0360
:10325C007B61464A7B6952F823307B61424B9B6809
:10326C0003F00C030C2B65D801A252F823F000BF1D
:10327C00B1320008413300084133000841330008E3
:10328C00B9320008413300084133000841330008CB
:10329C00C1320008413300084133000841330008B3
:1032AC00C9320008324A7B69136047E0304B314A1F
:1032BC001A6043E02E4B304A1A603FE02A4BDB6821
:1032CC0003F003037B60284BDB681B0903F0070347
:1032DC0001333B607B68022B02D0032B06D00BE042
:1032EC00244A3B68B2FBF3F33B610BE0224A3B6898
:1032FC00B2FBF3F33B6105E07A693B68B2FBF3F395
:10330C003B6100BF184BDB681B0A03F07F023B6973
:10331C0002FB03F33B61144BDB685B0E03F003030E
:10332C0001335B00BB603A69BB68B2FBF3F3104A34
:10333C00136003E00E4A7B69136000BF0A4B9B6865
:10334C001B0903F00F030D4AD35CFB60084B1A6892
:10335C00FB6822FA03F3064A136000BF1C37BD4614
:10336C005DF8047B704700BF001002405834000821
:10337C00100000200024F40000127A0040340008F1
:10338C00DFF834D0002103E00C4B5B584350043180
:10339C000B480C4B42189A42F6D30B4A02E000231E
:1033AC0042F8043B094B9A42F9D3FFF7F9FE00F0BF
:1033BC0011F8FFF795FEFEE700C0002090340008DE
:1033CC0000000020140000201400002084000020C5
:1033DC00FEE7000070B50D4E0D4CA41BA41000258B
:1033EC00A54209D10B4E0C4C00F018F8A41BA410EC
:1033FC000025A54205D170BD56F8253098470135FA
:10340C00EEE756F8253098470135F2E78834000886
:10341C0088340008883400088C340008F8B500BFE4
:10342C00F8BC08BC9E467047F8B500BFF8BC08BC99
:04343C009E467047F1
:103440000000000000000000010203040607080954
:103450000000000001020304A0860100400D0300EB
:10346000801A060000350C0040420F0080841E00C8
:1034700000093D0000127A000024F40000366E01BD
:083480000048E801006CDC02C9
:04348800B101000886
:04348C008D010008A6
:10349000010F370000000020010000200200002082
:0434A00000093D00E2
:040000050800338D2F
:00000001FF
