:020000040800F2
:1000000000C00020B94A0008094B0008094B00084D
:10001000094B0008094B0008094B000800000000CC
:10002000000000000000000000000000094B000874
:10003000094B000800000000094B00083147000888
:10004000094B0008094B0008094B0008094B000840
:10005000094B0008094B0008094B0008094B000830
:10006000094B0008094B0008094B0008094B000820
:10007000094B0008094B0008094B0008094B000810
:10008000094B0008094B0008094B0008094B000800
:10009000094B0008094B0008094B000855470008A8
:1000A000094B0008094B0008094B0008094B0008E0
:1000B000094B00080000000000000000094B000888
:1000C000094B0008094B0008094B0008094B0008C0
:1000D000094B0008C9470008A9470008094B000858
:1000E000094B0008094B0008000000000000000058
:1000F0000000000000000000000000000000000000
:1001000000000000094B000800000000094B000837
:10011000000000000000000009120008114800085B
:10012000094B0008094B0008094B0008094B00085F
:10013000094B000800000000000000000000000063
:10014000094B0008094B0008094B0008094B00083F
:10015000094B0008094B0008094B0008094B00082F
:10016000094B0008094B0008094B0008000000007B
:10017000094B0008094B0008094B0008000000006B
:0C018000094B0008094B0008094B00085F
:1001900010B5054C237833B9044B13B10448AFF3C1
:1001A00000800123237010BD940600200000000091
:1001B0003879000808B5034B1BB103490348AFF376
:1001C000008008BD00000000980600203879000873
:1001D000034613F8012B002AFBD1181A0138704787
:1001E00001F0FF01102A2BDB10F0070F08D010F8E8
:1001F000013B013A8B422DD010F0070F42B3F6D1EC
:10020000F0B441EA012141EA014122F007047FF004
:1002100000070023F0E80256083C85EA010586EA5B
:10022000010685FA47F5A3FA87F586FA47F6A5FA97
:1002300087F68EB9EED1F0BC01F0FF0102F00702A3
:1002400032B110F8013B013A83EA010313B1F8D14E
:100250000020704701387047002D06BF354603382F
:10026000073815F0010F07D1013015F4807F02BF68
:10027000013015F4C03F0130F0BC0138704700BFB9
:1002800081F0004102E000BF83F0004330B54FEA47
:1002900041044FEA430594EA050F08BF90EA020FB4
:1002A0001FBF54EA000C55EA020C7FEA645C7FEA47
:1002B000655C00F0E2804FEA5454D4EB5555B8BF6A
:1002C0006D420CDD2C4480EA020281EA030382EADB
:1002D000000083EA010180EA020281EA0303362D6D
:1002E00088BF30BD11F0004F4FEA01314FF4801C40
:1002F0004CEA113102D0404261EB410113F0004F52
:100300004FEA03334CEA133302D0524263EB430308
:1003100094EA050F00F0A780A4F10104D5F1200EA6
:100320000DDB02FA0EFC22FA05F2801841F1000101
:1003300003FA0EF2801843FA05F359410EE0A5F1D5
:1003400020050EF1200E012A03FA0EFC28BF4CF006
:10035000020C43FA05F3C01851EBE37101F00045BC
:1003600007D54FF0000EDCF1000C7EEB00006EEBC9
:100370000101B1F5801F1BD3B1F5001F0CD3490853
:100380005FEA30004FEA3C0C04F101044FEA4452AA
:1003900012F5800F80F09A80BCF1004F08BF5FEA31
:1003A000500C50F1000041EB045141EA050130BD11
:1003B0005FEA4C0C404141EB010111F4801FA4F1B4
:1003C0000104E9D191F0000F04BF01460020B1FA09
:1003D00081F308BF2033A3F10B03B3F120020CDA41
:1003E0000C3208DD02F1140CC2F10C0201FA0CF01F
:1003F00021FA02F10CE002F11402D8BFC2F1200C84
:1004000001FA02F120FA0CFCDCBF41EA0C01904039
:10041000E41AA2BF01EB0451294330BD6FEA040482
:100420001F3C1CDA0C340EDC04F11404C4F120026D
:1004300020FA04F001FA02F340EA030021FA04F37F
:1004400045EA030130BDC4F10C04C4F1200220FAD6
:1004500002F001FA04F340EA0300294630BD21FA14
:1004600004F0294630BD94F0000F83F4801306BFDA
:1004700081F480110134013D4EE77FEA645C18BFCE
:100480007FEA655C29D094EA050F08BF90EA020F65
:1004900005D054EA000C04BF1946104630BD91EA5D
:1004A000030F1EBF0021002030BD5FEA545C05D160
:1004B0004000494128BF41F0004130BD14F580049F
:1004C0003CBF01F5801130BD01F0004545F0FE4113
:1004D00041F470014FF0000030BD7FEA645C1ABF48
:1004E000194610467FEA655C1CBF0B46024650EA7F
:1004F000013406BF52EA033591EA030F41F40021AB
:1005000030BD00BF90F0000F04BF0021704730B530
:100510004FF4806404F132044FF000054FF0000105
:1005200050E700BF90F0000F04BF0021704730B5C6
:100530004FF4806404F1320410F0004548BF40429B
:100540004FF000013EE700BF42004FEAE2014FEAF0
:1005500031014FEA02701FBF12F07F4393F07F4FCB
:1005600081F06051704792F0000F14BF93F07F4FFD
:10057000704730B54FF4607401F0004521F0004140
:1005800020E700BF50EA010208BF704730B54FF0C6
:1005900000050AE050EA010208BF704730B511F0CB
:1005A000004502D5404261EB41014FF4806404F103
:1005B00032045FEA915C3FF4DCAE4FF003025FEA85
:1005C000DC0C18BF03325FEADC0C18BF033202EB0D
:1005D000DC02C2F1200300FA03FC20FA02F001FA67
:1005E00003FE40EA0E0021FA02F11444C1E600BF06
:1005F00070B54FF0FF0C4CF4E06C1CEA11541DBFB9
:100600001CEA135594EA0C0F95EA0C0F00F0DEF883
:100610002C4481EA030621EA4C5123EA4C5350EA68
:10062000013518BF52EA033541F4801143F48013B9
:1006300038D0A0FB02CE4FF00005E1FB02E506F04A
:100640000042E0FB03E54FF00006E1FB03569CF09F
:10065000000F18BF4EF0010EA4F1FF04B6F5007FA5
:1006600064F5407404D25FEA4E0E6D4146EB060617
:1006700042EAC62141EA55514FEAC52040EA5E50A0
:100680004FEACE2EB4F1FD0C88BFBCF5E06F1ED84A
:10069000BEF1004F08BF5FEA500E50F1000041EB81
:1006A000045170BD06F0004646EA010140EA02002E
:1006B00081EA0301B4EB5C04C2BFD4EB0C0541EA50
:1006C000045170BD41F480114FF0000E013C00F365
:1006D000AB8014F1360FDEBF002001F0004170BD89
:1006E000C4F10004203C35DA0C341BDC04F11404A2
:1006F000C4F1200500FA05F320FA04F001FA05F22E
:1007000040EA020001F0004221F0004110EBD370FA
:1007100021FA04F642EB06015EEA430E08BF20EA26
:10072000D37070BDC4F10C04C4F1200500FA04F3C9
:1007300020FA05F001FA04F240EA020001F000415B
:1007400010EBD37041F100015EEA430E08BF20EACE
:10075000D37070BDC4F1200500FA05F24EEA020E16
:1007600020FA04F301FA05F243EA020321FA04F045
:1007700001F0004121FA04F220EA020000EBD370FC
:100780005EEA430E08BF20EAD37070BD94F0000FFC
:100790000FD101F00046400041EB010111F4801F30
:1007A00008BF013CF7D041EA060195F0000F18BFE1
:1007B000704703F00046520043EB030313F4801F1D
:1007C00008BF013DF7D043EA0603704794EA0C0FD7
:1007D0000CEA135518BF95EA0C0F0CD050EA4106ED
:1007E00018BF52EA4306D1D181EA030101F000416A
:1007F0004FF0000070BD50EA410606BF1046194692
:1008000052EA430619D094EA0C0F02D150EA01369D
:1008100013D195EA0C0F05D152EA03361CBF1046DE
:1008200019460AD181EA030101F0004141F0FE417D
:1008300041F470014FF0000070BD41F0FE4141F401
:10084000780170BD70B54FF0FF0C4CF4E06C1CEA01
:1008500011541DBF1CEA135594EA0C0F95EA0C0FB6
:1008600000F0A7F8A4EB050481EA030E52EA033571
:100870004FEA013100F088804FEA03334FF0805592
:1008800045EA131343EA12634FEA022245EA1115BF
:1008900045EA10654FEA00260EF000419D4208BF70
:1008A000964244F1FD0404F5407402D25B084FEA1D
:1008B0003202B61A65EB03055B084FEA32024FF4C9
:1008C00080104FF4002CB6EB020E75EB030E22BF26
:1008D000B61A754640EA0C005B084FEA3202B6EBE6
:1008E000020E75EB030E22BFB61A754640EA5C0095
:1008F0005B084FEA3202B6EB020E75EB030E22BF25
:10090000B61A754640EA9C005B084FEA3202B6EB25
:10091000020E75EB030E22BFB61A754640EADC00E4
:1009200055EA060E18D04FEA051545EA16754FEA46
:1009300006164FEAC30343EA52734FEAC2025FEA64
:100940001C1CC0D111F4801F0BD141EA00014FF0F3
:1009500000004FF0004CB6E711F4801F04BF0143C4
:100960000020B4F1FD0C88BFBCF5E06F3FF6AFAEE0
:10097000B5EB030C04BFB6EB020C5FEA500C50F170
:10098000000041EB045170BD0EF0004E4EEA1131F3
:1009900014EB5C04C2BFD4EB0C0541EA045170BDFA
:1009A00041F480114FF0000E013C90E645EA060E3E
:1009B0008DE60CEA135594EA0C0F08BF95EA0C0F6C
:1009C0003FF43BAF94EA0C0F0AD150EA01347FF4B4
:1009D00034AF95EA0C0F7FF425AF104619462CE78B
:1009E00095EA0C0F06D152EA03353FF4FDAE1046EE
:1009F000194622E750EA410618BF52EA43067FF43F
:100A0000C5AE50EA41047FF40DAF52EA43057FF4CE
:100A1000EBAE12E74FF0FF3C06E000BF4FF0010CD9
:100A200002E000BF4FF0010C4DF804CD4FEA410C3D
:100A30007FEA6C5C4FEA430C18BF7FEA6C5C1BD00A
:100A400001B050EA410C0CBF52EA430C91EA030F8B
:100A500002BF90EA020F0020704710F1000F91EAE8
:100A6000030F58BF994208BF90422CBFD8176FEAB6
:100A7000E37040F0010070474FEA410C7FEA6C5C84
:100A800002D150EA013C07D14FEA430C7FEA6C5C8B
:100A9000D6D152EA033CD3D05DF8040B704700BFB7
:100AA0008446104662468C461946634600E000BF05
:100AB00001B5FFF7B7FF002848BF10F1000F01BDD7
:100AC0004DF808EDFFF7F4FF0CBF012000205DF8A2
:100AD00008FB00BF4DF808EDFFF7EAFF34BF012027
:100AE00000205DF808FB00BF4DF808EDFFF7E0FFC0
:100AF00094BF012000205DF808FB00BF4DF808ED11
:100B0000FFF7CEFF94BF012000205DF808FB00BF77
:100B10004DF808EDFFF7C4FF34BF012000205DF859
:100B200008FB00BF4FEA410C7FEA6C5C02D150EA3F
:100B3000013C0AD14FEA430C7FEA6C5C02D152EAD5
:100B4000033C02D14FF0000070474FF001007047A6
:100B50004FEA410212F5001215D211D56FF47873E5
:100B6000B3EB625212D94FEAC12343F0004343EA88
:100B7000505311F0004F23FA02F018BF4042704763
:100B80004FF00000704750EA013005D111F00040ED
:100B900008BF6FF0004070474FF00000704700BF83
:100BA0004FEA4102B2F1E04324BFB3F5001CDCF18F
:100BB000FE5C0DD901F0004C4FEAC0024CEA5070C7
:100BC000B2F1004F40EB830008BF20F001007047F6
:100BD00011F0804F21D113F13872BCBF01F00040F9
:100BE000704741F480114FEA5252C2F11802C2F12B
:100BF000200C10FA0CF320FA02F018BF40F00100AC
:100C00004FEAC1234FEAD32303FA0CFC40EA0C005D
:100C100023FA02F34FEA4303CCE77FEA625307D19A
:100C200050EA01331EBF4FF0FE4040F440007047D1
:100C300001F0004040F0FE4040F40000704700BF6B
:100C400053B94AB9002908BF00281CBF4FF0FF3133
:100C50004FF0FF3000F07AB9ADF1080C6DE904CE29
:100C600000F006F8DDF804E0DDE9022304B0704787
:100C70002DE9F0478C460D460446089E002B51D1C5
:100C80008A4217466DD9B2FA82FEBEF1000F0BD030
:100C9000CEF1200C01FA0EF520FA0CFC02FA0EF748
:100CA0004CEA050C00FA0EF44FEA174A250CBCFB7F
:100CB000FAF81FFA87F90AFB18CC45EA0C4508FB3D
:100CC00009F3AB420AD9ED1908F1FF3280F0238114
:100CD000AB4240F22081A8F102083D44ED1AA4B2D3
:100CE000B5FBFAF00AFB105544EA054400FB09F98C
:100CF000A14509D9E41900F1FF3380F00A81A1452B
:100D000040F2078102383C44A4EB090440EA084061
:100D10000021002E61D024FA0EF4002334607360A9
:100D2000BDE8F0878B4207D9002E54D0002186E819
:100D300021000846BDE8F087B3FA83F1002940F0AE
:100D40008E80AB4202D3824200F2FA80841A65EBB5
:100D500003050120AC46002E3FD086E81010BDE808
:100D6000F08712B90127B7FBF2F7B7FA87FEBEF199
:100D7000000F34D1EB1B3A0C1FFA87FC0121B3FBA7
:100D8000F2F8250C02FB183345EA03450CFB08F387
:100D9000AB4207D9ED1908F1FF3002D2AB4200F2A5
:100DA000D1808046ED1AA3B2B5FBF2F002FB1055DC
:100DB00043EA05440CFB00FCA44507D9E41900F103
:100DC000FF3302D2A44500F2B8801846A4EB0C040D
:100DD00040EA08409DE731463046BDE8F087CEF155
:100DE000200405FA0EF307FA0EF720FA04F83A0C7D
:100DF00025FA04F448EA0308B4FBF2F14FEA184577
:100E000002FB11441FFA87FC45EA044501FB0CF381
:100E1000AB4200FA0EF409D9ED1901F1FF3080F070
:100E20008A80AB4240F2878002393D44EB1A1FFAB8
:100E300088F5B3FBF2F002FB103345EA034500FBF3
:100E40000CF3AB4207D9ED1900F1FF386FD2AB427A
:100E50006DD902383D44EB1A40EA01418FE7C1F1F8
:100E6000200722FA07F88B4005FA01F448EA030349
:100E700020FA07FE4FEA134CFD404EEA040EB5FB84
:100E8000FCF94FEA1E440CFB19551FFA83F844EA9B
:100E9000054509FB08F4AC4202FA01F200FA01FA36
:100EA00008D9ED1809F1FF3043D2AC4241D9A9F17C
:100EB00002091D442D1B1FFA8EFEB5FBFCF00CFB36
:100EC00010554EEA054400FB08F8A04507D9E41880
:100ED00000F1FF3529D2A04527D902381C4440EA49
:100EE0000940A4EB0804A0FB02894C45C6464D46C8
:100EF00015D312D056B1BAEB0E0364EB050404FA15
:100F000007F7CB401F43CC40376074600021BDE839
:100F1000F0871846F8E69046E0E6C245EAD2B8EB1C
:100F2000020E69EB03050138E4E72846D7E740469F
:100F300091E78146BEE7014678E702383C4445E741
:100F4000084608E7A8F102083D442BE7704700BFB8
:100F500080B400AF044B1B680133034A136000BF29
:100F6000BD465DF8047B7047EC06002080B582B07A
:100F700000AF78607B681B681B6903F00203022BDB
:100F800022D17B681B68DB6803F00203022B1BD1B4
:100F90007B681B686FF002021A617B6801221A7776
:100FA0007B681B689B6903F00303002B03D0786800
:100FB00000F0EEF805E0786800F0E0F8786800F0FE
:100FC000F1F87B6800221A777B681B681B6903F0C5
:100FD0000403042B22D17B681B68DB6803F0040345
:100FE000042B1BD17B681B686FF004021A617B68BD
:100FF00002221A777B681B689B6903F44073002BFD
:1010000003D0786800F0C4F805E0786800F0B6F81E
:10101000786800F0C7F87B6800221A777B681B6845
:101020001B6903F00803082B22D17B681B68DB686F
:1010300003F00803082B1BD17B681B686FF00802C4
:101040001A617B6804221A777B681B68DB6903F0EE
:101050000303002B03D0786800F09AF805E0786865
:1010600000F08CF8786800F09DF87B6800221A7711
:101070007B681B681B6903F01003102B22D17B686F
:101080001B68DB6803F01003102B1BD17B681B6807
:101090006FF010021A617B6808221A777B681B6860
:1010A000DB6903F44073002B03D0786800F070F81C
:1010B00005E0786800F062F8786800F073F87B6803
:1010C00000221A777B681B681B6903F00103012B60
:1010D0000ED17B681B68DB6803F00103012B07D18D
:1010E0007B681B686FF001021A61786800F082F873
:1010F0007B681B681B6903F08003802B0ED17B6823
:101100001B68DB6803F08003802B07D17B681B68BA
:101110006FF080021A61786800F062F87B681B68E3
:101120001B6903F04003402B0ED17B681B68DB6812
:1011300003F04003402B07D17B681B686FF040022F
:101140001A61786800F038F87B681B681B6903F047
:101150002003202B0ED17B681B68DB6803F0200383
:10116000202B07D17B681B686FF020021A6178681A
:1011700000F02CF800BF0837BD4680BD80B483B0B6
:1011800000AF786000BF0C37BD465DF8047B704748
:1011900080B483B000AF786000BF0C37BD465DF807
:1011A000047B704780B483B000AF786000BF0C3719
:1011B000BD465DF8047B704780B483B000AF7860B3
:1011C00000BF0C37BD465DF8047B704780B483B028
:1011D00000AF786000BF0C37BD465DF8047B7047F8
:1011E00080B483B000AF786000BF0C37BD465DF8B7
:1011F000047B704780B582B000AF7860FFF7A8FE2F
:1012000000BF0837BD4680BD80B500AF0248FFF77C
:10121000ADFE00BF80BD00BFF006002080B483B0EB
:1012200000AF78600549054B1A687B6813430B6073
:1012300000BF0C37BD465DF8047B704700040140D9
:1012400080B483B000AF78600549054B1A6A7B68AB
:1012500013430B6200BF0C37BD465DF8047B70473B
:101260000004014080B483B000AF78600649064BAB
:101270001A687B68DB4313400B6000BF0C37BD4628
:101280005DF8047B704700BF0004014080B483B068
:1012900000AF78600649064B1A6A7B68DB4313404F
:1012A0000B6200BF0C37BD465DF8047B704700BF82
:1012B0000004014080B483B000AF78600549054B5D
:1012C0005A687B6813434B6000BF0C37BD465DF81E
:1012D000047B70470004014080B483B000AF7860A5
:1012E0000549054B5A6A7B6813434B6200BF0C37B4
:1012F000BD465DF8047B70470004014080B483B0B4
:1013000000AF78600649064B5A687B68DB431340A0
:101310004B6000BF0C37BD465DF8047B704700BFD3
:101320000004014080B483B000AF78600649064BEA
:101330005A6A7B68DB4313404B6200BF0C37BD46E3
:101340005DF8047B704700BF0004014080B483B0A7
:1013500000AF78600549054B9A687B6813438B6042
:1013600000BF0C37BD465DF8047B704700040140A8
:1013700080B483B000AF78600549054B9A6A7B68FA
:1013800013438B6200BF0C37BD465DF8047B70478A
:101390000004014080B483B000AF78600649064B7A
:1013A0009A687B68DB4313408B6000BF0C37BD46F7
:1013B0005DF8047B704700BF0004014080B483B037
:1013C00000AF78600649064B9A6A7B68DB4313409E
:1013D0008B6200BF0C37BD465DF8047B704700BFD1
:1013E0000004014080B483B000AF78600549054B2C
:1013F000DA687B681343CB6000BF0C37BD465DF8ED
:10140000047B70470004014080B483B000AF786073
:101410000549054BDA6A7B681343CB6200BF0C3782
:10142000BD465DF8047B70470004014080B483B082
:1014300000AF78600649064BDA687B68DB431340EF
:10144000CB6000BF0C37BD465DF8047B704700BF22
:101450000004014080B483B000AF78600649064BB9
:10146000DA6A7B68DB431340CB6200BF0C37BD46B2
:101470005DF8047B704700BF0004014080B584B074
:1014800000AF78600123FB737B681B7A002B00F0B0
:10149000C1807B681B68002B5BD07B685B7A012B6B
:1014A0000ED0022B17D0002B20D17B681B6818466A
:1014B000FFF724FF7B681B681846FFF7AFFE18E0B4
:1014C0007B681B681846FFF7CDFE7B681B681846D3
:1014D000FFF7F0FE0DE07B681B681846FFF79EFEE5
:1014E0007B681B681846FFF7E5FE02E00023FB73EC
:1014F00000BF7B689B7A002B2BD07B689B7A022BEA
:101500000ED0032B17D0012B20D17B681B68184607
:10151000FFF78CFF7B681B681846FFF717FF18E082
:101520007B681B681846FFF735FF7B681B68184609
:10153000FFF758FF0DE07B681B681846FFF706FFB2
:101540007B681B681846FFF74DFF02E00023FB7322
:1015500000BF7B685B68002B70D07B685B7A012BD7
:101560000ED0022B17D0002B20D17B685B68184669
:10157000FFF7D8FE7B685B681846FFF761FE18E04E
:101580007B685B681846FFF781FE7B685B681846DE
:10159000FFF7A2FE0DE07B685B681846FFF750FE80
:1015A0007B685B681846FFF797FE02E00023FB7339
:1015B00000BF7B689B7A002B40D07B689B7A022B14
:1015C0000ED0032B17D0012B20D17B685B68184607
:1015D000FFF740FF7B685B681846FFF7C9FE2DE008
:1015E0007B685B681846FFF7E9FE7B685B68184616
:1015F000FFF70AFF22E07B685B681846FFF7B8FE3A
:101600007B685B681846FFF7FFFE17E00023FB735B
:1016100000BF13E07B681B681846FFF723FE7B685A
:101620001B681846FFF76AFE7B685B681846FFF781
:101630002DFE7B685B681846FFF774FEFB7B18463F
:101640001037BD4680BD80B483B000AF78607B6842
:101650001B6843F001027B681A6000BF0C37BD466F
:101660005DF8047B704780B483B000AF78607B681E
:101670001B6823F001027B681A6000BF0C37BD466F
:101680005DF8047B704780B485B000AFF860B96046
:101690007A60FB681B6823F4F8527B681902BB6808
:1016A0000B431A43FB681A6000BF1437BD465DF850
:1016B000047B704780B485B000AFF860B9607A6091
:1016C000FB689B6823F4FF6323F00703B9687A681B
:1016D0000A431A43FB689A6000BF1437BD465DF8A1
:1016E000047B704780B483B000AF78607B689B68F0
:1016F00043F400427B689A6000BF0C37BD465DF83A
:10170000047B704780B483B000AF78607B689B68CF
:1017100023F400427B689A6000BF0C37BD465DF839
:10172000047B704780B483B000AF786039607B6819
:101730003A681A6100BF0C37BD465DF8047B7047FC
:1017400080B483B000AF786039607B681B6823F495
:1017500040123B681A437B681A6000BF0C37BD46D5
:101760005DF8047B704780B483B000AF7860396067
:101770007B685B6823F400423B681A437B685A60CD
:1017800000BF0C37BD465DF8047B704780B582B062
:1017900000AF786039607868FFF765FF3B6899684B
:1017A0003B68DB681A467868FFF76DFF3B685B684B
:1017B00019467868FFF7B6FF7868FFF744FF786846
:1017C000FFF7A0FF3B6819693B689B691A46786878
:1017D000FFF770FF3B681B69002B02D07868FFF7AA
:1017E00081FF3B681B6819467868FFF7A9FF3B68D3
:1017F0005B6919467868FFF7B6FF0123184608377A
:10180000BD4680BD80B400AF074B1B6803F4806306
:10181000B3F5806F0CBF01230023DBB21846BD4631
:101820005DF8047B704700BF0010024080B400AF39
:10183000074BD3F8903003F00203022B0CBF0123B7
:101840000023DBB21846BD465DF8047B704700BF3D
:101850000010024080B400AF064B1B6803F0080381
:10186000082B0CBF01230023DBB21846BD465DF8F0
:10187000047B70470010024080B400AF044B1B682B
:1018800003F0F0031846BD465DF8047B704700BFC7
:101890000010024080B400AF044BD3F8943003F43E
:1018A00070631846BD465DF8047B70470010024027
:1018B00080B400AF044B9B6803F00C031846BD4690
:1018C0005DF8047B704700BF0010024080B400AF99
:1018D000044B9B6803F0F0031846BD465DF8047B9B
:1018E000704700BF0010024080B400AF044B9B68FB
:1018F00003F4E0631846BD465DF8047B704700BF03
:101900000010024080B400AF044B9B6803F46053A6
:101910001846BD465DF8047B704700BF00100240CA
:1019200080B483B000AF7860064BD3F888207B6822
:101930001A407B681B04134318460C37BD465DF8FC
:10194000047B70470010024080B400AF044BDB689A
:101950001B0A03F07F031846BD465DF8047B704701
:101960000010024080B400AF044BDB6803F0C0639A
:101970001846BD465DF8047B704700BF001002406A
:1019800080B400AF044BDB6803F003031846BD4688
:101990005DF8047B704700BF0010024080B400AFC8
:1019A000044BDB6803F070031846BD465DF8047B0A
:1019B000704700BF0010024080B584B000AF78606F
:1019C0000023FB607B68032B2ED17868FFF7A8FF0C
:1019D00003464F4A934209D0B3F1031F0ED04D4A3C
:1019E000934214D100F0A2F8F8608BE0FFF70AFFF1
:1019F0000346002B7BD0484BFB6078E0FFF716FFD7
:101A00000346002B75D04FF40043FB6071E000F0FB
:101A10008DF80346184600F01BF90346184600F0FF
:101A200041F9F86000BF6DE07B680C2B2ED178681F
:101A3000FFF776FF0346394A934209D0B3F10C1FF2
:101A40000ED0374A934214D100F070F8F86059E094
:101A5000FFF7D8FE0346002B4DD02F4BFB604AE02A
:101A6000FFF7E4FE0346002B47D04FF40043FB6032
:101A700043E000F05BF80346184600F0E9F803463F
:101A8000184600F0FBF8F86000BF3BE07B68302BA5
:101A900038D17868FFF744FF0346224A934209D0C1
:101AA000B3F1301F0ED0204A934214D100F03EF81B
:101AB000F86027E0FFF7A6FE0346002B1FD0164B69
:101AC000FB601CE0FFF7B2FE0346002B19D04FF479
:101AD0000043FB6015E000F029F80346184600F0CB
:101AE000B7F80346184600F0C9F8F8600AE000BFEE
:101AF00008E000BF06E000BF04E000BF02E000BF56
:101B000000E000BFFB6818461037BD4680BD00BF2F
:101B100002000300010003000024F40008000C0090
:101B200004000C00200030001000300080B582B0AE
:101B300000AF00237B60FFF7BBFE03460C2B51D8A0
:101B400001A252F823F000BF7D1B0008E51B00082E
:101B5000E51B0008E51B0008D11B0008E51B000879
:101B6000E51B0008E51B0008D71B0008E51B000863
:101B7000E51B0008E51B0008DD1B0008FFF76AFEF7
:101B80000346002B11D1FFF765FE0346002B04D05E
:101B9000FFF772FE03461B0A03E0FFF77BFE0346D6
:101BA0001B0A284A52F8233010E0FFF753FE034681
:101BB000002B04D0FFF760FE03461B0903E0FFF78C
:101BC00069FE03461B091F4A52F823307B6033E04D
:101BD0001D4B7B6030E01D4B7B602DE000F076F804
:101BE000786029E0FFF736FE0346002B11D1FFF79E
:101BF00031FE0346002B04D0FFF73EFE03461B0ACE
:101C000003E0FFF747FE03461B0A0E4A52F8233053
:101C100010E0FFF71FFE0346002B04D0FFF72CFE59
:101C200003461B0903E0FFF735FE03461B09054A7F
:101C300052F823307B6000BF7B6818460837BD46EA
:101C400080BD00BF887A00080024F40000127A00EA
:101C500080B582B000AF7860FFF738FE03461B09FD
:101C600003F00F03044AD35C1A467B68D34018463E
:101C70000837BD4680BD00BF707A000880B582B0CD
:101C800000AF7860FFF730FE03461B0A044AD35CBE
:101C90001A467B68D34018460837BD4680BD00BF52
:101CA000807A000880B582B000AF7860FFF72AFE26
:101CB0000346DB0A044AD35C1A467B68D3401846C5
:101CC0000837BD4680BD00BF807A000890B583B05C
:101CD00000AF00237B6000233B60FFF751FE3860BC
:101CE0003B68022B2DD0032B2ED0012B2FD1FFF7D9
:101CF000B1FD0346002B11D1FFF7ACFD0346002BCD
:101D000004D0FFF7B9FD03461B0A03E0FFF7C2FD4D
:101D100003461B0A2F4A52F8233010E0FFF79AFDC2
:101D20000346002B04D0FFF7A7FD03461B0903E081
:101D3000FFF7B0FD03461B09264A52F823307B60AB
:101D40002FE0254B7B602CE0244B7B6029E0FFF7E4
:101D500081FD0346002B11D1FFF77CFD0346002BCC
:101D600004D0FFF789FD03461B0A03E0FFF792FD4D
:101D700003461B0A174A52F8233010E0FFF76AFDAA
:101D80000346002B04D0FFF777FD03461B0903E051
:101D9000FFF780FD03461B090E4A52F823307B6093
:101DA00000BFFFF7FBFD03461B0901337A68B2FB56
:101DB000F3F4FFF7C9FD034603FB04F4FFF7D2FD7C
:101DC00003465B0E01335B00B4FBF3F318460C379C
:101DD000BD4690BD887A00080024F40000127A0005
:101DE00080B483B000AF78607B681B6803F0400369
:101DF000402B0CBF01230023DBB218460C37BD4635
:101E00005DF8047B704780B483B000AF78603960C0
:101E10003B689BB21A467B681A6100BF0C37BD460F
:101E20005DF8047B704780B584B000AF786039609E
:101E30000023FB737868FFF7D3FF0346002B3BD1E9
:101E40007B681B6823F47F4323F0BF033A68116863
:101E50003A68526811433A68D26811433A68126985
:101E600011433A68526911433A68926911433A68DA
:101E7000D26911433A68126A0A431A437B681A60AE
:101E80007B685B6823F4706323F004033A6891680D
:101E90003A685269120C0A431A437B685A603B68DD
:101EA0001B6AB3F5005F05D13B685B6A1946786829
:101EB000FFF7A9FF0123FB73FB7B18461037BD46D4
:101EC00080BD80B483B000AF786039607B683A68C9
:101ED0009A6200BF0C37BD465DF8047B704780B442
:101EE00083B000AF786039607B683A68DA6200BF1F
:101EF0000C37BD465DF8047B704780B483B000AFFB
:101F0000786039607B683A681A6300BF0C37BD4659
:101F10005DF8047B704780B483B000AF78607B6865
:101F20005B6943F001027B685A6100BF0C37BD4614
:101F30005DF8047B704780B483B000AF78607B6845
:101F400000221A807B6800225A607B684FF0FF32C3
:101F50009A607B680022DA607B6800221A7400BFF6
:101F60000C37BD465DF8047B7047000080B584B037
:101F700000AF786039600023FB607B681B68FB6002
:101F80007B68274A934203D07B68B3F1804F06D128
:101F9000FB6823F070023B685B681343FB607B685F
:101FA0001F4A93420BD07B68B3F1804F07D07B6808
:101FB0001C4A934203D07B681B4A934206D1FB68BC
:101FC00023F440723B68DB681343FB607B68FA686C
:101FD0001A603B689B6819467868FFF780FF3B688A
:101FE0001B8819467868FFF76CFF7B680C4A9342A0
:101FF00007D07B680B4A934203D07B680A4A93421E
:1020000005D13B681B7C19467868FFF776FF786836
:10201000FFF781FF012318461037BD4680BD00BF82
:10202000002C0140004001400044014080B483B0D6
:1020300000AF78607B681B6803F00103012B0CBFC5
:1020400001230023DBB218460C37BD465DF8047B44
:10205000704780B483B000AF786039607B685B689C
:1020600023F440523B681A437B685A6000BF0C3728
:10207000BD465DF8047B704780B483B000AF7860E4
:1020800039607B689B6823F440723B681A437B6825
:102090009A6000BF0C37BD465DF8047B7047B0B452
:1020A00085B000AFF860B9607A603B60002500241D
:1020B0007B68B3F5004F14D1BB685A003B685B08DE
:1020C0001A443B68B2FBF3F39BB21D464FF6F07423
:1020D0002C406B089BB203F007031C43FB68DC60D9
:1020E0000AE03B685A08BB681A443B68B2FBF3F34A
:1020F0009BB21A46FB68DA6000BF1437BD46B0BC1D
:102100007047000080B584B000AF7860396000236C
:10211000FB730023BB607868FFF788FF0346002B42
:1021200048D17B681A68264B13403A6851683A6870
:10213000D26811433A68126911433A6892690A43B6
:102140001A437B681A603B689B6819467868FFF7FA
:1021500080FF3B685B6919467868FFF78DFF7B68F5
:10216000184A934204D10320FFF726FCB86010E020
:102170007B68154A934204D10C20FFF71DFCB86020
:1021800007E07B68114A934203D13020FFF714FC2B
:10219000B860BB68002B0DD03B681B68002B09D0D2
:1021A0000123FB733B689A693B681B68B9687868D0
:1021B000FFF775FFFB7B18461037BD4680BD00BF9B
:1021C000F369FFEF00380140004400400048004040
:1021D00080B483B000AF0346FB71094997F907301B
:1021E0005B09FA7902F01F02012000FA02F241F8BD
:1021F000232000BF0C37BD465DF8047B704700BF4D
:1022000000E100E080B483B000AF03463960FB71A9
:1022100097F90730002B0BDA0D49FB7903F00F0318
:10222000043B3A68D2B21201D2B20B441A7609E0EA
:10223000084997F907303A68D2B21201D2B20B447A
:1022400083F8002300BF0C37BD465DF8047B704760
:1022500000ED00E000E100E080B582B000AF786002
:102260007B68013BB3F1807F01D301230FE00A4A71
:102270007B68013B53600F214FF0FF30FFF7C2FF37
:10228000054B00229A60044B07221A60002318466F
:102290000837BD4680BD00BF10E000E080B483B0C9
:1022A00000AF786039607B689B6823F0E0723B6820
:1022B0001A437B689A6000BF0C37BD465DF8047B0B
:1022C000704780B483B000AF786039607B68DB68AA
:1022D00023F018023B681A437B68DA6000BF0C37B2
:1022E000BD465DF8047B704780B483B000AF786072
:1022F00039607B68DB6823F020023B681A437B6807
:10230000DA6000BF0C37BD465DF8047B704780B4CF
:1023100083B000AF786039607B68DB6823F47C624F
:102320003B681A437B68DA6000BF0C37BD465DF836
:10233000047B704780B483B000AF786039607B68FD
:102340001B6B23F00F023B681A437B681A6300BFC4
:102350000C37BD465DF8047B704790B486B000AF83
:10236000F860B9607A60FB6830331946BB6803F4E3
:1023700040724FF440737B617B6993FAA3F33B6136
:102380003B69B3FA83F322FA03F39B000B441C4628
:102390002268BB6803F01F031F2101FA03F3DB432C
:1023A0001A407B689B0E03F01F01BB6803F01F03FC
:1023B00001FA03F31343236000BF1837BD4690BCF6
:1023C000704780B483B000AF786039607B68DB68A9
:1023D00023F400523B681A437B68DA6000BF0C3775
:1023E000BD465DF8047B704780B483B000AF786071
:1023F00039607B68DB6823F003023B681A437B6823
:10240000DA6000BF0C37BD465DF8047B704790B4BE
:102410008AB000AFF860B9607A60FB68143319467F
:10242000BB6803F000724FF000737B617B6993FA25
:10243000A3F33B613B69B3FA83F322FA03F39B00F6
:102440000B441C462268BB6803F0F8714FF0F87328
:10245000FB61FB6993FAA3F3BB61BB69B3FA83F336
:1024600021FA03F3072101FA03F3DB431A40BB68A7
:1024700003F0F8714FF0F8737B627B6A93FAA3F371
:102480003B623B6AB3FA83F321FA03F3796801FAFA
:1024900003F31343236000BF2837BD4690BC704749
:1024A00080B485B000AFF860B9607A60FB68D3F89B
:1024B000B020BB68C3F31203DB431A407B6803F010
:1024C000200308499940BB680B40C3F312031A4329
:1024D000FB68C3F8B02000BF1437BD465DF8047B2D
:1024E000704700BFFFFF070080B582B000AF786083
:1024F000396039687868FFF70AFF00BF0837BD46C2
:1025000080BD80B483B000AF78607B689B6823F0A7
:10251000204323F03F037A68936000BF0C37BD4629
:102520005DF8047B704780B483B000AF78607B684F
:102530009B6823F0004323F03F0343F001027B68D4
:102540009A6000BF0C37BD465DF8047B704780B4CD
:1025500083B000AF786039607B689B6823F04043AC
:1025600023F03F033A6802F08042134343F00042F5
:102570007B689A6000BF0C37BD465DF8047B7047EE
:1025800080B483B000AF78607B681B6803F0010300
:10259000012B0CBF01230023DBB218460C37BD46CC
:1025A0005DF8047B704780B483B000AF78607B68CF
:1025B00001221A6000BF0C37BD465DF8047B7047EE
:1025C00080B489B000AFF860B9607A60FB681A68BF
:1025D000BB687B617B6993FAA3F33B613B69B3FA08
:1025E00083F35B00032101FA03F3DB431A40BB686A
:1025F000FB61FB6993FAA3F3BB61BB69B3FA83F395
:102600005B00796801FA03F31A43FB681A6000BFA4
:102610002437BD465DF8047B704780B485B000AFB9
:10262000F860B9607A60FB685A68BB68DB431A409F
:10263000BB68796801FB03F31A43FB685A6000BF6B
:102640001437BD465DF8047B704780B489B000AF95
:10265000F860B9607A60FB689A68BB687B617B69E7
:1026600093FAA3F33B613B69B3FA83F35B00032165
:1026700001FA03F3DB431A40BB68FB61FB6993FA81
:10268000A3F3BB61BB69B3FA83F35B00796801FA1A
:1026900003F31A43FB689A6000BF2437BD465DF818
:1026A000047B704780B489B000AFF860B9607A608D
:1026B000FB68DA68BB687B617B6993FAA3F33B61D3
:1026C0003B69B3FA83F35B00032101FA03F3DB43B5
:1026D0001A40BB68FB61FB6993FAA3F3BB61BB695A
:1026E000B3FA83F35B00796801FA03F31A43FB68DA
:1026F000DA6000BF2437BD465DF8047B704780B4C4
:1027000089B000AFF860B9607A60FB681A6ABB688C
:102710007B617B6993FAA3F33B613B69B3FA83F373
:102720009B000F2101FA03F3DB431A40BB68FB61F6
:10273000FB6993FAA3F3BB61BB69B3FA83F39B0014
:10274000796801FA03F31A43FB681A6200BF243761
:10275000BD465DF8047B704780B489B000AFF86077
:10276000B9607A60FB685A6ABB681B0A7B617B6947
:1027700093FAA3F33B613B69B3FA83F39B000F2108
:1027800001FA03F3DB431A40BB681B0AFB61FB69D8
:1027900093FAA3F3BB61BB69B3FA83F39B00796837
:1027A00001FA03F31A43FB685A6200BF2437BD469F
:1027B0005DF8047B704780B483B000AF7860396007
:1027C0007B683A689A6100BF0C37BD465DF8047BB0
:1027D0007047000080B485B000AF78600849084BAE
:1027E000DA6C7B681343CB64054BDA6C7B6813406F
:1027F000FB60FB6800BF1437BD465DF8047B704783
:102800000010024080B485B000AF78600849084BE2
:102810009A6D7B6813438B65054B9A6D7B681340FB
:10282000FB60FB6800BF1437BD465DF8047B704752
:102830000010024080B485B000AF78600849084BB2
:102840001A6E7B6813430B66054B1A6E7B68134048
:10285000FB60FB6800BF1437BD465DF8047B704722
:102860000010024080B483B000AF78607B68042B16
:1028700006D1094A084B1B6843F00403136005E0C6
:10288000054A054B1B6823F00403136000BF0C3797
:10289000BD465DF8047B704710E000E080B400AFF7
:1028A000054A054B1B6823F00203136000BFBD46B9
:1028B0005DF8047B704700BF10E000E080B483B097
:1028C00000AF78607B681B6843F040027B681A6049
:1028D00000BF0C37BD465DF8047B704780B483B001
:1028E00000AF786039607B685B6823F480523B6896
:1028F0001A437B685A6000BF0C37BD465DF8047B05
:102900007047000080B400AF054A054B1B6843F4D4
:102910008023136000BFBD465DF8047B704700BF95
:102920000010024080B400AF054A054B1B6843F419
:102930008033136000BFBD465DF8047B704700BF65
:102940000010024080B400AF074B1B6803F4003353
:10295000B3F5003F0CBF01230023DBB21846BD4690
:102960005DF8047B704700BF0010024080B483B064
:1029700000AF78600649064B9B6823F003027B6832
:1029800013438B6000BF0C37BD465DF8047B704776
:102990000010024080B400AF044B9B6803F00C03AE
:1029A0001846BD465DF8047B704700BF001002402A
:1029B00080B483B000AF78600649064B9B6823F073
:1029C000F0027B6813438B6000BF0C37BD465DF897
:1029D000047B70470010024080B483B000AF786081
:1029E0000649064B9B6823F4E0627B6813438B60C7
:1029F00000BF0C37BD465DF8047B704700100240F5
:102A000080B483B000AF78600649064B9B6823F41E
:102A100060527B6813438B6000BF0C37BD465DF886
:102A2000047B70470010024080B483B000AF786030
:102A300039600848074B9B6823F0FE4279683B6881
:102A40000B431343836000BF0C37BD465DF8047B26
:102A5000704700BF0010024080B485B000AF7860BE
:102A60007B681A0E0E4B1344FB60FB681A687B6888
:102A70001B0CDBB2032101FA03F3DB431A407B6832
:102A8000D9B27B681B0CDBB201FA03F31A43FB6873
:102A90001A6000BF1437BD465DF8047B704700BF65
:102AA0008810024080B483B000AF78600749074BBC
:102AB000D3F8883023F040527B681343C1F8883044
:102AC00000BF0C37BD465DF8047B70470010024024
:102AD00080B400AF054A054B1B6843F08073136058
:102AE00000BFBD465DF8047B704700BF0010024088
:102AF00080B400AF074B1B6803F00073B3F1007F95
:102B00000CBF01230023DBB21846BD465DF8047BF1
:102B1000704700BF0010024080B485B000AFF8607D
:102B2000B9607A603B600A48094BDA68094B134088
:102B3000F968BA6811437A68120211433A680A4385
:102B40001343C36000BF1437BD465DF8047B704774
:102B5000001002408C80FFF980B400AF054A054B9D
:102B6000DB6843F08073D36000BFBD465DF8047B33
:102B7000704700BF0010024080B483B000AF78609F
:102B80007B681B6843F001027B681A6000BF0C374A
:102B9000BD465DF8047B704780B483B000AF7860B9
:102BA0007B681B6823F001027B681A6000BF0C374A
:102BB000BD465DF8047B704780B483B000AF786099
:102BC0007B681B6843F001027B681A6000BF0C370A
:102BD000BD465DF8047B704780B483B000AF786079
:102BE0007B685B6823F400627B685A6000BF0C3727
:102BF000BD465DF8047B704780B483B000AF786059
:102C00007B689B6843F480527B689A6000BF0C37F6
:102C1000BD465DF8047B704780B483B000AF786038
:102C20007B681B6843F020027B681A6000BF0C378A
:102C3000BD465DF8047B704790B484B000AF786007
:102C40003960114C3B68DBB20F493A68D2B20232AC
:102C500051F822103A68120CD24311403A68120C13
:102C6000FA60FA6892FAA2F2BA60BA68B2FA82F22C
:102C7000786800FA02F20A43023344F8232000BFC6
:102C80001037BD4690BC70470000014080B483B04F
:102C900000AF78600649064B1B6823F007027B688B
:102CA00013430B6000BF0C37BD465DF8047B7047D3
:102CB0000020024080B483B000AF78607B686FF082
:102CC00001021A6100BF0C37BD465DF8047B7047F6
:102CD00080B483B000AF78607B68DB6843F00102AA
:102CE0007B68DA6000BF0C37BD465DF8047B704737
:102CF00080B500AF0120FFF79DFD4FF08050FFF73A
:102D000081FD0120FFF7C2FFFFF70CFEFFF7FAFD80
:102D100000BFFFF717FE0346012BFAD14FF00073F7
:102D2000102200210320FFF7F7FEFFF715FFFFF742
:102D3000CFFE00BFFFF7DCFE0346012BFAD10320D4
:102D4000FFF714FE00BFFFF725FE03460C2BFAD158
:102D50000020FFF72DFE0020FFF73EFE0020FFF7CA
:102D60004FFE4FF46020FFF777FE00214FF0807098
:102D7000FFF75AFE01F0E6FD0420FFF773FD0B4B51
:102D80001B685B090A4AA2FB0323DB091846FFF70D
:102D900063FA03214FF0FF30FFF734FAFFF77EFDAF
:102DA0004FF04050FFF77EFE00BF80BD20000020A6
:102DB000C55A7C0A80B500AFA14B0722DA64002215
:102DC00001214FF09040FFF7FBFB022204214FF05E
:102DD0009040FFF7F5FB022208214FF09040FFF7EB
:102DE000EFFB012204214FF09040FFF72EFC01225F
:102DF00008214FF09040FFF728FC072204214FF0F4
:102E00009040FFF77CFC072208214FF09040FFF72D
:102E100076FC032210214FF09040FFF7D1FB0322F4
:102E200020214FF09040FFF7CBFB012280214FF093
:102E30009040FFF7C5FB012240214FF09040FFF783
:102E4000BFFB002280214FF09040FFF7FEFB0022E5
:102E500040214FF09040FFF7F8FB02224FF48071C1
:102E60004FF09040FFF7ACFB03224FF480714FF01E
:102E70009040FFF7EAFB00224FF480714FF0904042
:102E8000FFF76AFC02224FF400714FF09040FFF709
:102E900097FB02224FF480614FF09040FFF790FBC8
:102EA00002224FF400714FF09040FFF7CEFB022258
:102EB0004FF480614FF09040FFF7C7FB01224FF4C1
:102EC00080614FF09040FFF7EDFB07224FF4007157
:102ED0004FF09040FFF740FC07224FF480614FF025
:102EE0009040FFF739FC002202215648FFF768FBAB
:102EF000012204215348FFF763FB002204215148BB
:102F0000FFF78BFB012204214E48FFF79EFB0421B3
:102F10004C48FFF750FC02224FF480614948FFF70C
:102F20004FFB02224FF400614648FFF749FB0222A3
:102F30004FF480614348FFF788FB02224FF40061A1
:102F40004048FFF782FB01224FF480613D48FFF7C4
:102F500064FB01224FF400613A48FFF75EFB042254
:102F60004FF480613748FFF7F7FB04224FF400610C
:102F70003448FFF7F1FB01224FF480513148FFF74D
:102F80001FFB01224FF480512E48FFF75EFB4FF4E8
:102F900080512C48FFF70FFC02224FF400512948C2
:102FA000FFF70EFB02224FF480412648FFF708FB93
:102FB00002224FF400412348FFF702FB02224FF4A4
:102FC00000512048FFF741FB02224FF480411D4889
:102FD000FFF73BFB02224FF400411A48FFF735FB95
:102FE00005224FF400511748FFF7B6FB05224FF4B6
:102FF00080411448FFF7B0FB05224FF4004111480F
:10300000FFF7AAFB012210210F48FFF7D9FA00228F
:1030100010210D48FFF719FB012220210A48FFF774
:10302000CFFA002220210848FFF70FFB00224021A1
:103030000548FFF7C5FA0120FFF7FCFB00BF80BD84
:1030400000100240000400480008004880B58AB023
:1030500000AF4FF48040FFF7D5FB00233B604FF4F7
:1030600082737B604FF4E063BB600023FB6001234D
:103070003B614FF400737B612823BB610023FB613C
:1030800000233B6207237B624FF480510A48FFF71D
:1030900025FC3B4619460848FEF7C5FE0648FFF7E3
:1030A0000DFC02211720FFF7ADF81720FFF790F86D
:1030B00000BF2837BD4680BD0038004080B588B0CD
:1030C00000AF4FF48040FFF7B5FB4FF416537B6021
:1030D0000023BB600023BB610023FB6100233B6135
:1030E0000023FB600C237B610848FFF785FD074840
:1030F000FFF772FD3B1D19460448FFF703F803482C
:10310000FFF75AFD00BF2037BD4680BD00380140A3
:1031100080B588B000AF4FF40030FFF773FB4FF479
:10312000E1337B600023BB600023BB614FF40043AD
:10313000FB6100233B610023FB600C237B6107489C
:10314000FFF74AFD3B1D19460448FEF7DBFF034825
:10315000FFF732FD00BF2037BD4680BD0044004070
:1031600080B588B000AF4FF48000FFF74BFB0F48ED
:10317000FFF712FD0023FB6000233B610023FB618E
:1031800002237B6100237B60094BBB604FF400434B
:10319000BB613B1D19460548FEF7F8FA0348FFF7E7
:1031A000EBFC00BF2037BD4680BD00BF005800408B
:1031B000B47CB00080B500AF0420FFF70BFB032206
:1031C00001213C48FFF7FCF9002201213948FFF7B3
:1031D00069FA4FF40050FFF7FDFA3748FFF791F90D
:1031E000354A354B9B6843F0805393600A2001F0C9
:1031F0002BF87F213048FFF7AAF900BF2E4B9B68C0
:10320000002BFBDB2D4B4FF480229A6000212A48D3
:10321000FFF76AF800212848FFF753F800212648F5
:10322000FFF7CFF800212448FFF75EF9022122487A
:10323000FFF780F800212048FFF7D6F84FF480010F
:103240001E48FFF72BF8012206211B48FFF785F8DF
:10325000062201211848FFF7DAF87F22184916489C
:10326000FFF71EF9164A0C211348FFF776F80722DC
:1032700013491148FFF7CBF87F2212490E48FFF798
:103280000FF9104A12210C48FFF767F807220D4981
:103290000948FFF7BCF80848FFF785F90648FFF72B
:1032A00042F900BF0448FFF76BF90346002BF9D041
:1032B00000BF80BD00080048000004500003045017
:1032C0000002B0250004002A80B584B000AF40237E
:1032D0007B6000237B730123BB7301233B733B1D86
:1032E0001846FEF7CBF816490220FFF7A5FC172079
:1032F000FEF76EFF01211720FEF784FF0021252035
:10330000FEF780FF0F48FFF787FC2520FEF760FFE0
:1033100004212620FEF776FF2620FEF759FF0A48F3
:10332000FFF77AFC02213720FEF76CFF3720FEF70B
:103330004FFF0648FFF7CCFC00BF1037BD4680BDED
:103340000100000F0038014000440040001400401C
:1033500080B586B000AF2020FFF754FA4FF0FF335E
:10336000FB6000233B610023BB6047F6FF43BB804B
:1033700000233B753B1D19460448FEF7F7FD034843
:10338000FFF798FC00BF1837BD4680BD0014004011
:1033900080B483B000AF78607B689B6823F0004303
:1033A00023F03F0343F004027B689A6000BF0C37B0
:1033B000BD465DF8047B704780B483B000AF786091
:1033C0007B681B6803F00103012B0CBF0123002362
:1033D000DBB218460C37BD465DF8047B704780B4FD
:1033E00083B000AF78607B681B6803F00403042B94
:1033F0000CBF01230023DBB218460C37BD465DF835
:10340000047B704780B483B000AF78607B6808228B
:103410001A6000BF0C37BD465DF8047B704780B46E
:1034200083B000AF786039607B683A689A6100BF0A
:103430000C37BD465DF8047B704780B483B000AFA5
:10344000786039607B683A689A6200BF0C37BD4685
:103450005DF8047B704780B483B000AF78607B6810
:103460009B6903F01003102B0CBF01230023DBB278
:1034700018460C37BD465DF8047B704780B483B0B6
:1034800000AF78607B689B6903F04003402B0CBF62
:1034900001230023DBB218460C37BD465DF8047BE0
:1034A000704780B483B000AF78607B68DB6943F01D
:1034B00020027B68DA6100BF0C37BD465DF8047BF3
:1034C000704780B483B000AF78607B685B6823F09E
:1034D00000727B685A6000BF0C37BD465DF8047B04
:1034E000704780B483B000AF786039607B685B68F8
:1034F00023F47F023B681B041A437B685A6000BFB9
:103500000C37BD465DF8047B704780B483B000AFD4
:10351000786039607B685B6823F480623B681A439B
:103520007B685A6000BF0C37BD465DF8047B70476E
:1035300080B483B000AF78607B681B6843F0010201
:103540007B681A6000BF0C37BD465DF8047B70478E
:1035500080B483B000AF78607B681B6823F0010201
:103560007B681A6000BF0C37BD465DF8047B70476E
:1035700080B483B000AF786039607B683A685A6283
:1035800000BF0C37BD465DF8047B704780B483B044
:1035900000AF786039607B683A68DA6200BF0C3748
:1035A000BD465DF8047B704780B483B000AF78609F
:1035B0007B686FF001021A6100BF0C37BD465DF8F1
:1035C000047B704780B400AF034B1B881846BD4690
:1035D0005DF8047B704700BFAA75FF1F80B500AF80
:1035E000084A084B5B6943F40053536100BF064827
:1035F000FFF7F5FE0346002BF9D0034B1B6C184672
:1036000080BD00BF000400480000045080B500AF3A
:1036100000BF0548FFF7D0FE0346002BF9D0024853
:10362000FFF7B6FE00BF80BD00000450B0B58CB0FF
:1036300000AFF860B9600023FB620023BB62002387
:103640007B624FF00003FB614FF00003BB614FF062
:1036500000037B6100233B6219E0FFF7D7FFFFF710
:10366000BDFF0246FB6A1344FB62FFF7B7FF024649
:10367000BB6A1344BB62FFF7B1FF02467B6A134487
:103680007B625C48FFF7BEFE3B6A01333B623B6AEC
:103690000A2BE2DDBB6A584AA2FB0323DB08BB62AC
:1036A0007B6A554AA2FB0323DB087B62FB6A524A12
:1036B000A2FB0323DB08FB62504B1B681846FCF798
:1036C00021FF4FF000024E4BFCF792FF03460C46E1
:1036D00025461C46B86AFCF715FF02460B462046F5
:1036E0002946FCF785FF03460C4625461C46FB6A27
:1036F00007EE903AF8EE677A9FED427A67EE877AA6
:1037000017EE900AFCF720FF02460B46204629469A
:10371000FDF798F803460C4618462146FDF740FA97
:103720000346FB61D7ED077AB1EE007A67EE877A40
:10373000C7ED077A314B1B681846FCF7E3FE4FF0E4
:1037400000022F4BFCF754FF03460C4625461C464F
:10375000786AFCF7D7FE02460B4620462946FCF75E
:1037600047FF03460C4625461C46FB6A07EE903A87
:10377000F8EE677A9FED237A67EE877A17EE900A64
:10378000FCF7E2FE02460B4620462946FDF75AF8B2
:1037900003460C4618462146FDF702FA0346BB6174
:1037A000D7ED067AB1EE007A67EE877AC7ED067A32
:1037B000FB68BA691A6097ED067AD7ED077A77EE5B
:1037C000677AC7ED057A97ED057AF3EE006AC7EEE2
:1037D000267A9FED0D7A67EE877AFCEEE77AC7EDE1
:1037E000017A3B79DAB2BB681A7000BF3037BD4648
:1037F000B0BD00BF00000450CDCCCCCC50070020A1
:103800000000084000F07F4500007A4490B585B084
:1038100000AF786000229021124800F030FB07F1E1
:103820000C02022390210F4800F0DEFA3B7B1B01C3
:103830007A7B1209D2B213431846FCF773FE4FF09D
:103840000002094BFCF7D4FE03460C4618462146FD
:10385000FDF7A6F902467B681A6000BF1437BD4623
:1038600090BD00BF005800400000B03F80B582B05E
:1038700000AF786004210C48FFF7DFFD7B681A6811
:103880000623A021094800F062FA03461A46084BB5
:103890001A70074B1B78012B01D1002300E0012394
:1038A00018460837BD4680BD000400480058004057
:1038B000B006002090B585B000AF78600B46FB7075
:1038C00004212C48FFF7ABFD2B48FFF7FAFD002140
:1038D0002948FFF71AFEA021274800F0EAF9012144
:1038E0002548FFF7FEFD244800F0F2F901212248A7
:1038F00000F004FA2048FFF7D4FD1F48FFF7ABFDA6
:103900000346002B01D000232FE000BF1A48FFF729
:10391000B5FD0346002BF9D01748FFF7D2FD4FF451
:1039200080611548FFF7F1FDFB7819461248FFF753
:10393000D8FD114800F0CCF90023FB730AE0FB7BB3
:103940007A68D4180C4800F0EFF903462370FB7B2B
:103950000133FB73FA7BFB789A42F0D3064800F000
:10396000C2F90548FFF79DFD012318461437BD46EF
:1039700090BD00BF000400480058004080B584B0EE
:1039800000AF0346FB710023FB734FF4805000F03F
:1039900035FBFB7943F04003DBB21946094800F0E0
:1039A0003BFBFB7B1946074800F056FB0346BB7305
:1039B0004FF4805000F014FBBB7B18461037BD4617
:1039C00080BD00BF0038004080B582B000AF034624
:1039D0000A46FB711346BB714FF4805000F00EFB9A
:1039E000FB791946074800F017FBBB7919460548D3
:1039F00000F012FB4FF4805000F0F2FA00BF0837DD
:103A0000BD4680BD0038004080B582B000AF786010
:103A10000A48FFF79DFD00210848FFF7A9FD7968D6
:103A20000648FFF7B3FD0548FFF7BEFD0348FFF763
:103A30007FFD00BF0837BD4680BD00BF00140040B9
:103A400080B500AF00210548FFF792FD0348FFF75E
:103A5000ABFD0248FFF77CFD00BF80BD00140040B5
:103A600080B483B000AF0023FB7106E0FB79074A06
:103A70000021D154FB790133FB71FB791D2BF5D962
:103A800000BF0C37BD465DF8047B7047300700204F
:103A900080B582B000AF78607968094800F02FFCEB
:103AA000FF21074800F015FCFF21054800F011FC3C
:103AB000FF21034800F00DFC00BF0837BD4680BD64
:103AC0000038014080B483B000AF78607B689B69A8
:103AD00003F00103012B0CBF01230023DBB21846C6
:103AE0000C37BD465DF8047B704780B483B000AFEF
:103AF00078607B689B6903F00203022B0CBF0123F3
:103B00000023DBB218460C37BD465DF8047B7047D6
:103B100080B483B000AF78607B689B6903F00403D6
:103B2000042B0CBF01230023DBB218460C37BD4623
:103B30005DF8047B704780B483B000AF78607B6829
:103B40009B6903F01003102B0CBF01230023DBB291
:103B500018460C37BD465DF8047B704780B483B0CF
:103B600000AF78607B689B6903F04003402B0CBF7B
:103B700001230023DBB218460C37BD465DF8047BF9
:103B8000704780B483B000AF78607B68DB6943F036
:103B900020027B68DA6100BF0C37BD465DF8047B0C
:103BA000704780B483B000AF78607B685B6843F097
:103BB00000727B685A6000BF0C37BD465DF8047B1D
:103BC000704780B483B000AF786039607B685B6811
:103BD00023F47F023B681B041A437B685A6000BFD2
:103BE0000C37BD465DF8047B704780B483B000AFEE
:103BF00078607B685B6843F400527B685A6000BF62
:103C00000C37BD465DF8047B704780B483B000AFCD
:103C100078607B685B6843F480427B685A6000BFD1
:103C20000C37BD465DF8047B704780B483B000AFAD
:103C3000786039607B685B6823F480623B681A4374
:103C40007B685A6000BF0C37BD465DF8047B704747
:103C500080B483B000AF786039607B685B6823F420
:103C60007F7323F003033A681A437B685A6000BFEE
:103C70000C37BD465DF8047B704780B483B000AF5D
:103C800078607B685B6ADBB218460C37BD465DF82E
:103C9000047B704780B483B000AF78600B46FB7044
:103CA000FA787B689A6200BF0C37BD465DF8047BEA
:103CB000704780B582B000AF78600B46FB70FB7830
:103CC00019467868FFF7C4FF00BF0837BD4680BDBE
:103CD00080B582B000AF78607868FFF786FF00BFDC
:103CE0000837BD4680BD80B582B000AF7860786887
:103CF000FFF78BFF00BF0837BD4680BD80B582B09F
:103D000000AF78600B46FB7000BF7868FFF7DAFE03
:103D10000346002BF9D0FB7819467868FFF7BAFF05
:103D200000BF0837BD4680BD80B582B000AF786067
:103D300000BF7868FFF7ECFE0346002BF9D07868E7
:103D4000FFF79BFF034618460837BD4680BD80B588
:103D500086B000AFF8607A601A460B46FB721346D5
:103D6000BB72F868FFF71DFF0021F868FFF75DFFE1
:103D7000FB7A1946F868FFF79CFFBB7A1946F8688A
:103D8000FFF71FFFF868FFF7A3FF0023FB7518E09C
:103D9000F868FFF7D0FE0346002B01D001231FE097
:103DA000F868FFF7A2FE0346002BF1D0FB7D7A688E
:103DB00013441B781946F868FFF7A0FFFB7D013319
:103DC000FB75FA7DBB7A9A42EAD3F868FFF7D9FE11
:103DD00000BFF868FFF7C2FE0346012BF9D00023AD
:103DE00018461837BD4680BD90B587B000AFF86063
:103DF0007A601A460B46FB721346BB72F868FFF7EF
:103E0000D0FE4FF48061F868FFF70FFFFB7A194688
:103E1000F868FFF74EFFBB7A1946F868FFF7D1FE46
:103E2000F868FFF755FF0023FB7515E0BB7A012BFF
:103E300007D0F868FFF77FFE0346002B01D001236F
:103E400019E0FB7D7A68D418F868FFF76DFF034628
:103E50002370FB7D0133FB75FA7DBB7A9A42E5D373
:103E6000F868FFF78EFE00BFF868FFF777FE03469D
:103E7000012BF9D0002318461C37BD4690BD80B5F4
:103E800082B000AF78600B46FB701346BB70786859
:103E9000FFF787FE00217868FFF7C7FEFB78194619
:103EA0007868FFF706FF01217868FFF78AFE7868D7
:103EB000FFF70EFF07E07868FFF73DFE0346002B93
:103EC00001D0012315E07868FFF70FFE0346002BB1
:103ED000F1D0BB7819467868FFF710FF7868FFF7D4
:103EE00050FE00BF7868FFF739FE0346012BF9D07A
:103EF000002318460837BD4680BD80B483B000AFAC
:103F000078607B689B6803F00103012B0CBF0123E1
:103F10000023DBB218460C37BD465DF8047B7047C2
:103F200080B483B000AF78607B689B6803F00203C5
:103F3000022B0CBF01230023DBB218460C37BD4611
:103F40005DF8047B704780B483B000AF78607B6815
:103F50009B6803F08003802B0CBF01230023DBB29E
:103F600018460C37BD465DF8047B704780B483B0BB
:103F700000AF78607B68DB68DBB218460C37BD4663
:103F80005DF8047B704780B483B000AF78600B4667
:103F9000FB707B680C33FA781A7000BF0C37BD4693
:103FA0005DF8047B704780B483B000AF78603960FF
:103FB0007B683A689A6100BF0C37BD465DF8047BA8
:103FC000704780B483B000AF786039607B683A682E
:103FD0009A6200BF0C37BD465DF8047B7047000055
:103FE00080B582B000AF786079680348FFF7DBFFE7
:103FF00000BF0837BD4680BD0004004880B582B0D0
:1040000000AF786079680348FFF7DBFF00BF08372F
:10401000BD4680BD0004004880B582B000AF786026
:104020000B46FB7000BF7868FFF77AFF0346002B52
:10403000F9D0FB7819467868FFF7A5FF00BF7868CC
:10404000FFF781FF0346012BF9D07868FFF78EFF59
:1040500000BF0837BD4680BD80B582B000AF786034
:104060000B46FB7000BF7868FFF75AFF0346002B32
:10407000F9D0FB7819467868FFF785FF00BF7868AC
:10408000FFF73BFF0346002BF9D000BF7868FFF72E
:104090005AFF0346012BF9D07868FFF767FF034604
:1040A00018460837BD4680BD80B483B000AF786045
:1040B0007B681B6843F001027B681A6000BF0C3705
:1040C000BD465DF8047B704780B483B000AF786074
:1040D0007B681B6823F001027B681A6000BF0C3705
:1040E000BD465DF8047B704780B483B000AF786054
:1040F00039607B683A685A6200BF0C37BD465DF88C
:10410000047B704780B483B000AF786039607B680F
:104110003A689A6200BF0C37BD465DF8047B704771
:1041200080B483B000AF786039607B683A68DA6247
:1041300000BF0C37BD465DF8047B704780B483B088
:1041400000AF78607B686FF001021A6100BF0C3726
:10415000BD465DF8047B704780B483B000AF7860E3
:104160007B681B6903F00103012B0CBF01230023B3
:10417000DBB218460C37BD465DF8047B7047000083
:1041800080B485B000AF78600849084B9A6D7B68B1
:1041900013438B65054B9A6D7B681340FB60FB688E
:1041A00000BF1437BD465DF8047B70470010024025
:1041B00080B400AF054A054B1B6843F0020313604F
:1041C00000BFBD465DF8047B704700BF10E000E013
:1041D00080B400AF054A054B1B6823F0020313604F
:1041E00000BFBD465DF8047B704700BF10E000E0F3
:1041F00080B582B000AF7860FFF7DAFF7B68642299
:1042000002FB03F37B607B68064A136000BF054B2B
:104210001B68002BFBD1FFF7DBFF00BF0837BD4653
:1042200080BD00BFA807002080B500AF1020FFF7B9
:10423000A7FF0448FDF77FFE1F210248FFF762FF3A
:1042400000BF80BD0010004080B582B000AF786034
:1042500079680D48FFF764FF00210B48FFF744FF22
:104260000948FFF76BFF0848FFF71EFF00BF06482D
:10427000FFF772FF0346002BF9D00348FFF724FF36
:1042800000BF0837BD4680BD0010004080B483B039
:1042900000AF78607B68DB6903F08003802B0CBF84
:1042A00001230023DBB218460C37BD465DF8047BC2
:1042B000704780B483B000AF78600B46FB70FB782A
:1042C0009AB27B681A8500BF0C37BD465DF8047B47
:1042D000704780B582B000AF78600B46FB7000BFBE
:1042E0007868FFF7D3FF0346002BF9D0FB78194617
:1042F0007868FFF7DEFF00BF0837BD4680BD80B598
:1043000084B000AF786039600023FB600AE0FB688E
:104310003A6813441B7819467868FFF7DAFFFB68A0
:104320000133FB603868FBF753FF0246FB689A4293
:10433000EDD800BF1037BD4680BD80B483B000AF5C
:10434000786039607B683A689A6100BF0C37BD4677
:104350005DF8047B7047000080B500AFFEF7C8FC35
:10436000FFF762FFFEF726FD40214FF09040FFF778
:10437000E4FF80214FF09040FFF7DFFFFA20FFF7C6
:1043800037FFFEF763FEFEF7E3FFFEF797FEFEF74B
:10439000BFFEFEF7E5FEFEF70DFFFFF713F902463D
:1043A000154B1A60FEF790FF1448FFF75FFA0521DE
:1043B0001348FFF77FFA13491348FFF737F91348FB
:1043C000FFF766FB6420FFF713FF0320FFF7D6FA21
:1043D0000F48FFF71BFA0B490B48FFF727F900F0CE
:1043E000F3F80C4B1B78002BF2D000F015F84FF4CB
:1043F000FA70FFF7FDFEEBE75007002008000020F1
:1044000074070020720700209807002050790008E8
:1044100090070020B007002080B500AF5C4B1B78F0
:10442000A12B02D0A22B47D0B0E0594B5B781946A4
:104430000020FFF7C9FA564B9B7819460120FFF779
:10444000C3FA534BDB7819460220FFF7BDFA504BF5
:104450001B7919460320FFF7B7FA4D4B5B791946D4
:104460000820FFF7B1FA0020FFF788FA03461A4642
:10447000484B1A700120FFF781FA03461A46454B54
:104480005A700220FFF77AFA03461A46414B9A7097
:104490000320FFF773FA03461A463E4BDA700820F2
:1044A000FFF76CFA03461A463A4B1A713A4B002250
:1044B0001A70FFF7D5FA69E00020FFF75FFA0346AC
:1044C0001A46344B1A700120FFF758FA03461A4671
:1044D000304B5A700220FFF751FA03461A462D4B13
:1044E0009A700320FFF74AFA03461A46294BDA70FE
:1044F0000820FFF743FA03461A46264B1A71254B4C
:104500001B781A462549264800F02AFB2448FFF765
:10451000BFFA2448FFF7BCFA1E4B5B781A462249C3
:104520001F4800F01DFB1E48FFF7B2FA1F48FFF7B7
:10453000AFFA184B9B781A461D49194800F010FB3A
:104540001748FFF7A5FA1B48FFF7A2FA114BDB78D3
:104550001A461949124800F003FB1148FFF798FA70
:104560001648FFF795FA0B4B1B791A4614490C486D
:1045700000F0F6FA0A48FFF78BFA1248FFF788FABC
:10458000054B00221A70FFF76BFA00BF00BF80BD19
:104590003007002054070020B00700205879000899
:1045A0007C0700207079000888790008A07900084D
:1045B000B8790008D0790008E8790008007A000886
:1045C000187A0008307A000880B500AF144B1A88BA
:1045D000144B1B889A420DD0124B1B881A46124965
:1045E000124800F0BDFA1148FFF752FA0D4B1A8835
:1045F0000B4B1A800E4B1A880E4B1B889A420DD01B
:104600000C4B1B881A460C49084800F0A9FA0748C9
:10461000FFF73EFA074B1A88054B1A8000BF80BD92
:104620009E070020AE070020487A00087C07002083
:1046300094070020A60700205C7A000880B483B0AD
:1046400000AF7860074B5A697B681A407B689A42D2
:104650000CBF01230023DBB218460C37BD465DF8C2
:10466000047B70470004014080B483B000AF7860E1
:10467000044A7B68536100BF0C37BD465DF8047B7C
:10468000704700BF0004014080B483B000AF786081
:104690007B68DB6903F02003202B0CBF0123002380
:1046A000DBB218460C37BD465DF8047B704780B41A
:1046B00083B000AF78607B689B8C9BB2DBB21846FE
:1046C0000C37BD465DF8047B704780B483B000AF03
:1046D000786039607B685A693B685A407B685A61E8
:1046E00000BF0C37BD465DF8047B704780B483B0D3
:1046F00000AF78607B686FF001021A6100BF0C3771
:10470000BD465DF8047B704780B483B000AF78602D
:104710007B681B6903F00103012B0CBF01230023FD
:10472000DBB218460C37BD465DF8047B70470000CD
:1047300080B400AF064B1B68002B04D0044B1B68F1
:10474000013B034A136000BFBD465DF8047B704720
:10475000A807002080B500AF4020FFF76FFF034699
:10476000002B19D00320FFF709F903461A460B4B1B
:104770001A700A4B1B7803F00103002B09D0084B79
:104780001B8801339AB2064B1A8010210548FFF7A7
:104790009CFF4020FFF768FF00BF80BDA4070020FA
:1047A000A60700200008004880B500AF0548FFF7C5
:1047B0006BFF0346002B02D00248FFF778FF00BFD3
:1047C00080BD00BF0044004098B500AF0D48FFF722
:1047D0005BFF0346002B12D00520FFF715F90A4BAB
:1047E0001B781C460748FFF762FF03461A46074B33
:1047F0001A55054B1B780133DAB2034B1A7000BF10
:1048000098BD00BF00380140AC07002030070020F1
:1048100080B500AF1548FFF777FF0346002B22D085
:10482000FFF70EF9124B1B78013B124AD35CFF2BAA
:1048300010D10F4B1B78023B0E4AD35CFF2B09D1E2
:104840000B4B1B78033B0B4AD35CFF2B02D10A4B6B
:1048500001221A700948FFF72AFF0448FFF746FFB4
:10486000034B00221A7000BF80BD00BF001400403F
:10487000AC07002030070020B007002000380140BE
:1048800080B584B000AF7860114B1B68002B02D15B
:104890000F4B104A1A600E4B1B68FB600C4B1A68DA
:1048A0007B6813446A46934207D900F02FF9024609
:1048B0000C2313604FF0FF3306E0054B1A687B684A
:1048C0001344034A1360FB6818461037BD4680BD89
:1048D000B4060020C007002080B400AF174A174B71
:1048E000D3F8883043F47003C2F88830144A144B6C
:1048F0001B6843F001031360114B00229A60104AB9
:104900000F4B1B6823F0A85323F4102313600C4BA8
:104910004FF48052DA600A4A094B1B6823F4802363
:104920001360074B00229A61044B4FF000629A60BB
:1049300000BFBD465DF8047B704700BF00ED00E09E
:104940000010024080B487B000AF0023FB6000235A
:104950007B6100233B610223BB6000237B60022359
:104960003B604F4B1B6803F00803002B07D14C4BF7
:10497000D3F894301B0A03F00F037B6105E0484B2A
:104980001B681B0903F00F037B61464A7B6952F8E1
:1049900023307B61424B9B6803F00C030C2B65D8E2
:1049A00001A252F823F000BFDD4900086D4A00085B
:1049B0006D4A00086D4A0008E54900086D4A000884
:1049C0006D4A00086D4A0008ED4900086D4A00086C
:1049D0006D4A00086D4A0008F5490008324A7B69B3
:1049E000136047E0304B314A1A6043E02E4B304AA7
:1049F0001A603FE02A4BDB6803F003037B60284B1F
:104A0000DB681B0903F0070301333B607B68022B63
:104A100002D0032B06D00BE0244A3B68B2FBF3F331
:104A20003B610BE0224A3B68B2FBF3F33B6105E0DC
:104A30007A693B68B2FBF3F33B6100BF184BDB685C
:104A40001B0A03F07F023B6902FB03F33B61144B3B
:104A5000DB685B0E03F0030301335B00BB603A6964
:104A6000BB68B2FBF3F3104A136003E00E4A7B69A4
:104A7000136000BF0A4B9B681B0903F00F030D4A2C
:104A8000D35CFB60084B1A68FB6822FA03F3064A02
:104A9000136000BF1C37BD465DF8047B704700BF44
:104AA00000100240887A0008200000200024F40052
:104AB00000127A00707A0008DFF834D0002103E099
:104AC0000C4B5B58435004310B480C4B42189A4234
:104AD000F6D30B4A02E0002342F8043B094B9A420A
:104AE000F9D3FFF7F9FE00F017F8FFF735FCFEE702
:104AF00000C00020387D000800000020940600203F
:104B000094060020C0070020FEE70000014B186853
:104B1000704700BF2400002070B50D4E0D4CA41B43
:104B2000A4100025A54209D10B4E0C4C02F004FF45
:104B3000A41BA4100025A54205D170BD56F8253050
:104B400098470135EEE756F8253098470135F2E7EA
:104B5000307D0008307D0008307D0008347D00087D
:104B60000EB400B59CB04FF402711DABADF814103B
:104B7000029006906FF000410A48049107914FF6A9
:104B8000FF7153F8042BADF816100068019302A9C9
:104B900000F00AF8029B00221A701CB05DF804EBCA
:104BA00003B07047240000202DE9F04FBDB08A46C5
:104BB00015461F46834601F025FE03680D931846EF
:104BC000FBF706FBBAF80C3008901B0618D5DAF88C
:104BD0001030ABB94021584601F02AFECAF8000057
:104BE000CAF8100048B90C23CBF800304FF0FF335F
:104BF000099309983DB0BDE8F08F4023CAF81430FE
:104C00009FED997B8DED067B00232CAC1F942193A7
:104C1000209305950393119310930993059D2B46BB
:104C200013F8012B12B1252A40F08380059BEE1A60
:104C30000DD084E84800219B33442193209B01330D
:104C4000072B209377DC0834099B334409932B7896
:104C5000002B00F029870023691C8DF85F301A466D
:104C60004FF0FF390A931D460A204E1C097805961D
:104C7000029102992039582900F21884DFE811F0D6
:104C8000A60016041604AB00160416041604160437
:104C900016041604AE0065001604B700BA00160428
:104CA000D700DA00DA00DA00DA00DA00DA00DA0037
:104CB000DA00DA00160416041604160416041604A4
:104CC000160416041604160415012B0116042B01F4
:104CD0001604160416041604ED0016041604400308
:104CE00016041604160416041604A8031604160463
:104CF0008600160416041604160416041604160478
:104D000016041604160407016B002B012B012B015E
:104D1000F0006B0016041604FA0016042203420386
:104D200076030101160487031604AA031604160469
:104D3000C2031D4673E71FAA5146584602F07EFA89
:104D4000002840F092862CAC7EE701232B220599A7
:104D50008BE70F46FBE70BB18DF85F20AE0640F105
:104D6000AA80073727F0070707F10803D7E900678C
:104D70000493002E77F1000306DA76424FF02D03FC
:104D800067EB47078DF85F300123CAE20BB18DF85E
:104D90005F20374B1193AB0640F13983073727F07B
:104DA000070707F10803D7E900670493E8070BD565
:104DB00056EA070308D030238DF860309DF808309C
:104DC0008DF8613045F002050223A7E2002ABED12A
:104DD00001232022BBE745F00105B8E73E680A96AB
:104DE000002E07F10401B4DA76420A960F4645F028
:104DF0000405ACE705994E1C097802912A2910D0C8
:104E00004FF0000905960299303909293FF631AF74
:104E100000FB091905990E4616F8011B029105962B
:104E2000F1E73968059641EAE17904378FE745F003
:104E300080058CE700210A9102990A9E303900FB17
:104E400006110A9105990E4616F8011B0291029966
:104E5000059630390929EFD90BE745F0080576E7C3
:104E600045F0400573E700BF0000000000000000AF
:104E7000C87A0008059909786C2905D1059901318E
:104E8000059145F0200562E745F010055FE73B1D01
:104E9000049300263B688DF888308DF85F604FF0F2
:104EA000010937460DF188081BE10BB18DF85F2031
:104EB00045F0100552E715F0100F07F1040303D079
:104EC0003E680493F71754E73E68049315F0400FCB
:104ED00018BF36B2F6E70BB18DF85F20073727F021
:104EE000070707F10803049397ED007B8DED067B20
:104EF000069B1293079B23F0004313934FF0FF325E
:104F00004A4BDDE91201FBF70DFE002840F0D58584
:104F10004FF0FF32454BDDE91201FBF7E5FD0028BC
:104F200040F0CB8500220023DDE90601FBF7D2FD2E
:104F300010B12D238DF85F303D4B3E4A029925F08C
:104F400080054729CCBF904698464FF003090026BC
:104F50003746C6E0B9F1FF3F22D0029B23F0200381
:104F6000472B04D1B9F1000F08BF4FF0010945F4F8
:104F700080730C93079B002B15DA069B0E93079BFF
:104F800003F100430F932D230B93029B23F0200783
:104F9000462F0ED0452F46D109F1010602210AE025
:104FA0004FF00609E3E79DED067B00238DED0E7BB8
:104FB000EAE74E4603211DAB01931AAB009332463C
:104FC00019AB9DED0E0B584600F04EFE472F804664
:104FD00002D1E80740F17E8508EB0603462F0393D4
:104FE00011D198F80030302B09D100220023DDE9DF
:104FF0000E01FBF765FD10B9C6F101061996039A7B
:10500000199B1A44039200220023DDE90E01FBF7ED
:1050100057FD88B930221D9B039999420ED9591C1E
:105020001D911A70F7E74E46B8E700BFFFFFEF7F0C
:10503000B87A0008BC7A0008039B1D931D9B472F7C
:10504000A3EB0803039340F0FA80199BD91C02DB01
:10505000994580F22081029B023B0293199A9DF8A8
:1050600008108DF86C10531E002B1993B6BFC2F1B7
:1050700001032B222D22092B8DF86D2040F3FB809C
:105080000DF17B020A2693FBF6F006FB103330335A
:10509000092802F8013C02F1FF31034600F3E480E5
:1050A000303301F8013C023A0DF16E030DF17B0043
:1050B00082421946C0F0DA80039A1BABCB1A012A50
:1050C000109303EB020902DC15F0010702D0089BE4
:1050D000002799440B9B13B12D238DF85F300C9D55
:1050E00000264E453346B8BF4B460B939DF85F30C4
:1050F00013B10B9B01330B9315F0020314931EBFE6
:105100000B9B02330B9315F08403159318D10A9B64
:105110000B9A9B1A002B0C9312DD0C9B102BA94BA6
:10512000236000F3D5810C9B63600C9A219B134490
:105130002193209B0133072B209300F3E281083455
:105140009DF85F3073B10DF15F032360012363604D
:10515000219B01332193209B0133072B209300F3E4
:10516000DA810834149B6BB118AB236002236360AF
:10517000219B02332193209B0133072B209300F3C3
:10518000D4810834159B802B14D10A9B0B9A9B1A4F
:10519000002B0FDD8C4A2260102B00F3D081219A66
:1051A000636013442193209B0133072B209300F36A
:1051B000DF810834A6EB0906002E0FDD824B236049
:1051C000102E00F3DF81209B219866600133064496
:1051D000072B2196209300F3EC810834EB0500F1B6
:1051E000F281219B84E800034B442193209B0133EF
:1051F000072B209340F319841FAA5146584602F00A
:105200001DF8002840F031842CAC6B0700F11084AD
:10521000099B0A9A0B998A42ACBF9B185B180993A9
:10522000219B3BB11FAA5146584602F007F80028BF
:1052300040F01B8400232093049F2CACEEE4029BDF
:10524000652B7FF70BAF029B662B24D1199B002B9C
:1052500019DDB9F1000F01D1EA0702D5089A13440C
:105260004B44199F994635E70A460CE712F8011B93
:1052700003F8011B1CE7302213448DF86E208DF8D3
:105280006F301CA918E7B9F1000F01D1EB0715D554
:10529000089B0133E4E7199A039B9A4206DBEF0768
:1052A0000ED5089B134467220292DAE7039B089904
:1052B000002A0B44F7DCC2F10102F3E70123D0E737
:1052C0001346F0E70BB18DF85F2015F0200F07F1C2
:1052D000040308D009993A68CE1708463146C2E956
:1052E00000011F469AE4EE0603D53A680999116059
:1052F000F7E76806F9D53A68BDF824101180F0E7A1
:1053000045F0100515F0200322D0073727F00707D6
:1053100007F10803D7E900670493002300228DF802
:105320005F20B9F1FF3F00F0DB8325F080020B9294
:1053300056EA070240F0D983B9F1000F00F0AA80C5
:10534000012B76D0022B00F0918000260027D2E3BB
:105350003A1D15F01001049202D03E680027DDE7E7
:1053600015F04003F9D03E880027D6E73B1D049393
:10537000302378228DF86030144B3E68119300275B
:1053800045F002058DF8612002230292C6E73B1D1D
:105390000026B9F1FF3F0493D7F800808DF85F60D5
:1053A0000AD04A4631464046FAF71AFF002800F074
:1053B0008D80A0EB0809CBE54046FAF709FF81464E
:1053C000C6E500BFEC7A0008FC7A0008D97A00082C
:1053D00045F01005A90609D5073727F0070707F19B
:1053E0000803D7E900670493012397E73B1D15F0F5
:1053F000100F049301D03E6802E06A06FBD53E8898
:105400000027F1E70BB18DF85F20A34BC2E43B1DF1
:1054100015F0100F049301D03E6802E06E06FBD534
:105420003E880027C2E4434666E3002F08BF0A2EE9
:1054300005D20DF1F008303608F8416D77E30DF133
:10544000B008304639460A220023FBF7F9FB303218
:1054500008F8012D0023304639460A22FBF7F0FBFD
:1054600006460F4656EA0703EBD160E30026002705
:105470000DF1B00806F00F03119AD35C08F8013D56
:10548000330943EA07733A091E46174656EA0703EB
:10549000F0D14CE33BB9EA0705D50DF1F008302314
:1054A00008F8413D43E30DF1B00840E30BB18DF83E
:1054B0005F20029B002B00F0F7829DF808308DF8EA
:1054C000883000268DF85F600497E8E406463FE5E3
:1054D00010236360219B10332193209B0133072B02
:1054E000209304DC08340C9B103B0C9315E61FAA98
:1054F0005146584601F0A2FE002840F0B6822CAC7E
:10550000F1E71FAA5146584601F098FE002840F0E6
:10551000AC822CAC14E61FAA5146584601F08EFE10
:10552000002840F0A2822CAC1CE61FAA5146584627
:1055300001F084FE002840F098822CAC22E6102274
:105540006260219A10322192209A0132072A209219
:1055500002DC0834103B1DE61FAA514658460C9346
:1055600001F06CFE002840F080822CAC0C9BF1E72F
:105570001FAA5146584601F061FE002840F075828E
:105580002CAC17E610236360219B10332193209BE2
:105590000133072B209302DC0834103E0EE61FAACD
:1055A0005146584601F04AFE002840F05E822CAC7D
:1055B000F3E71FAA5146584601F040FE002840F08C
:1055C00054822CAC0AE6029B652B40F3A981002291
:1055D0000023DDE90601FBF773FA002862D02F4BA8
:1055E000236001236360219B01332193209B0133BE
:1055F000072B209325DC0834199B039A934202DB86
:10560000EE077FF502AE0D9B2360089B6360089A4E
:10561000219B13442193209B0133072B20931ADCF9
:105620000834039B5E1E002E7FF7EFAD1C4F4FF03A
:105630001008102E276018DC6660219B1E442196FE
:10564000D4E51FAA5146584601F0F8FD002840F065
:105650000C822CACD0E71FAA5146584601F0EEFD53
:10566000002840F002822CACDBE7219BC4F80480C8
:1056700010332193209B0133072B209302DC083445
:10568000103ED6E71FAA5146584601F0D7FD002824
:1056900040F0EB812CACF3E7D97A0008EA7A0008F5
:1056A000FC7A0008199B002B7ADC9B4B23600123BA
:1056B0006360219B01332193209B0133072B2093AF
:1056C00044DC0834199B23B9039B13B9E8077FF521
:1056D0009CAD0D9B2360089B6360089A219B13443B
:1056E0002193209B0133072B209339DC04F108031D
:1056F000199E002E19DA894F76421024102E1F6051
:1057000038DC219A5E601644209A21960132072ADD
:1057100003F10803209208DD1FAA5146584601F004
:105720008DFD002840F0A1812CAB039A5A600399AB
:10573000219AC3F800800A442192209A0132072A54
:1057400020923FF759AD03F108045EE51FAA5146C8
:10575000584601F073FD002840F087812CACB1E77A
:105760001FAA5146584601F069FD002840F07D818E
:105770002CABBDE7219A5C6010322192209A013255
:10578000072A209202DC0833103EB7E71FAA5146D1
:10579000584601F053FD002840F067812CABF3E739
:1057A000039BBB42A8BF3B46002B1E460BDD63603C
:1057B000219BC4F8008033442193209B0133072BA5
:1057C00020935FDC0834002EACBFBE1B3E46002E8B
:1057D0000FDDDFF84891C4F80090102E5CDC219BAF
:1057E00066601E44209B21960133072B20936ADCC0
:1057F0000834199B039A934201DBE9070DD50D9BF1
:105800002360089B6360089A219B13442193209B8B
:105810000133072B209360DC0834039B039ADE1BC3
:10582000199BD31A9E42A8BF1E46002E0BDD219B5A
:10583000666033442193209B01334744072B276044
:10584000209354DC0834199B039A002EA2EB030327
:10585000ACBF9E1B1E46002E7FF7D7AC2F4F4FF0DC
:105860001008102E27607FF7E7AE219BC4F8048054
:1058700010332193209B0133072B209341DC083404
:10588000103EEEE71FAA5146584601F0D7FC00280B
:1058900040F0EB802CAC96E710236360219B103323
:1058A0002193209B0133072B209302DC0834103E08
:1058B00091E71FAA5146584601F0C0FC002840F06D
:1058C000D4802CACF3E71FAA5146584601F0B6FC31
:1058D000002840F0CA802CAC8BE71FAA51465846DE
:1058E00001F0ACFC002840F0C0802CAC95E71FAA6A
:1058F0005146584601F0A2FC002840F0B6802CAC7E
:10590000A1E71FAA5146584601F098FC002840F034
:10591000AC802CACB4E700BFEA7A0008FC7A00083F
:10592000039B012B01DCEA0776D501236360219BF1
:10593000C4F8008001332193209B0133072B20936F
:1059400036DC08340D9B2360089B6360089A219B1A
:1059500013442193209B0133072B209331DC08341F
:1059600000230022DDE90601FBF7AAF8039B5E1E77
:1059700000282FD108F1010384E84800219B039AF5
:10598000013B13442193209B0133072B20934ADDD5
:105990001FAA5146584601F051FC002865D12CAC95
:1059A0001BAB2360109B6360109A219B13441CE483
:1059B0001FAA5146584601F041FC002855D12CAC95
:1059C000C0E71FAA5146584601F038FC00284CD1C8
:1059D0002CACC5E7002EE3DD594F4FF01008102E18
:1059E000276004DC219B66601E442196CBE7219B47
:1059F000C4F8048010332193209B0133072B20939C
:105A000002DC0834103EEAE71FAA5146584601F06E
:105A100015FC50BB2CACF5E701236360219BC4F857
:105A200000800133AEE70834BAE70834FFF7EDBB76
:105A30000A9B0B9A9D1A002D7FF7EAAB1026414B6B
:105A40002360102D1BDC219B65601D44209B21954C
:105A50000133072B20937FF7DBAB1FAA5146584633
:105A600001F0ECFB00283FF4D3ABBAF80C3013F094
:105A7000400F099B18BF4FF0FF33FFF7B9B8219BC8
:105A8000666010332193209B0133072B209302DCA7
:105A90000834103DD3E71FAA5146584601F0CEFB0B
:105AA0000028E2D12CACF4E7219B002BDDD01FAA0B
:105AB0005146584601F0C2FBD7E7DDE90623104600
:105AC0001946FBF72FF800283FF444AA1E4B1F4A43
:105AD000FFF734BA1D9BA3EB08030393FFF7B5BA96
